{
  "_format": "hh-sol-artifact-1",
  "contractName": "ML",
  "sourceName": "contracts/ML.sol",
  "abi": [
    {
      "inputs": [
        {
          "internalType": "address",
          "name": "_datastorage",
          "type": "address"
        },
        {
          "internalType": "address",
          "name": "_modelstorage",
          "type": "address"
        }
      ],
      "stateMutability": "nonpayable",
      "type": "constructor"
    },
    {
      "inputs": [],
      "name": "ActorNotFound",
      "type": "error"
    },
    {
      "inputs": [],
      "name": "FailToCallActor",
      "type": "error"
    },
    {
      "inputs": [
        {
          "internalType": "uint64",
          "name": "",
          "type": "uint64"
        }
      ],
      "name": "InvalidCodec",
      "type": "error"
    },
    {
      "inputs": [],
      "name": "InvalidResponseLength",
      "type": "error"
    },
    {
      "inputs": [
        {
          "internalType": "uint256",
          "name": "balance",
          "type": "uint256"
        },
        {
          "internalType": "uint256",
          "name": "value",
          "type": "uint256"
        }
      ],
      "name": "NotEnoughBalance",
      "type": "error"
    },
    {
      "inputs": [
        {
          "internalType": "string",
          "name": "_schemaName",
          "type": "string"
        },
        {
          "internalType": "bytes32[]",
          "name": "columns",
          "type": "bytes32[]"
        },
        {
          "internalType": "enum IDataStorage.Category",
          "name": "category",
          "type": "uint8"
        },
        {
          "internalType": "int64[][]",
          "name": "data",
          "type": "int64[][]"
        }
      ],
      "name": "addOnChainData",
      "outputs": [],
      "stateMutability": "payable",
      "type": "function"
    },
    {
      "inputs": [],
      "name": "datastorage",
      "outputs": [
        {
          "internalType": "address payable",
          "name": "dataStorageAddress",
          "type": "address"
        }
      ],
      "stateMutability": "view",
      "type": "function"
    },
    {
      "inputs": [
        {
          "internalType": "bytes",
          "name": "cid",
          "type": "bytes"
        },
        {
          "internalType": "int64[]",
          "name": "train_indices",
          "type": "int64[]"
        },
        {
          "internalType": "uint32",
          "name": "label_index",
          "type": "uint32"
        }
      ],
      "name": "extractCidData",
      "outputs": [
        {
          "internalType": "bytes",
          "name": "",
          "type": "bytes"
        }
      ],
      "stateMutability": "view",
      "type": "function"
    },
    {
      "inputs": [
        {
          "internalType": "string",
          "name": "_modelName",
          "type": "string"
        }
      ],
      "name": "getModel",
      "outputs": [
        {
          "internalType": "bytes",
          "name": "",
          "type": "bytes"
        }
      ],
      "stateMutability": "view",
      "type": "function"
    },
    {
      "inputs": [],
      "name": "modelstorage",
      "outputs": [
        {
          "internalType": "address payable",
          "name": "modelStorageAddress",
          "type": "address"
        }
      ],
      "stateMutability": "view",
      "type": "function"
    },
    {
      "inputs": [
        {
          "internalType": "int64[][]",
          "name": "data",
          "type": "int64[][]"
        },
        {
          "internalType": "bytes",
          "name": "model",
          "type": "bytes"
        }
      ],
      "name": "predictDecisionTreeClassificationOffChainModel",
      "outputs": [
        {
          "internalType": "int64[]",
          "name": "",
          "type": "int64[]"
        }
      ],
      "stateMutability": "view",
      "type": "function"
    },
    {
      "inputs": [
        {
          "internalType": "string",
          "name": "_modelName",
          "type": "string"
        },
        {
          "internalType": "int64[][]",
          "name": "data",
          "type": "int64[][]"
        }
      ],
      "name": "predictDecisionTreeClassificationOnchainModel",
      "outputs": [
        {
          "internalType": "int64[]",
          "name": "",
          "type": "int64[]"
        }
      ],
      "stateMutability": "view",
      "type": "function"
    },
    {
      "inputs": [
        {
          "internalType": "int64[][]",
          "name": "data",
          "type": "int64[][]"
        },
        {
          "internalType": "bytes",
          "name": "model",
          "type": "bytes"
        }
      ],
      "name": "predictDecisionTreeRegressionOffChainModel",
      "outputs": [
        {
          "internalType": "int64[]",
          "name": "",
          "type": "int64[]"
        }
      ],
      "stateMutability": "view",
      "type": "function"
    },
    {
      "inputs": [
        {
          "internalType": "string",
          "name": "_modelName",
          "type": "string"
        },
        {
          "internalType": "int64[][]",
          "name": "data",
          "type": "int64[][]"
        }
      ],
      "name": "predictDecisionTreeRegressionOnchainModel",
      "outputs": [
        {
          "internalType": "int64[]",
          "name": "",
          "type": "int64[]"
        }
      ],
      "stateMutability": "view",
      "type": "function"
    },
    {
      "inputs": [
        {
          "internalType": "int64[][]",
          "name": "data",
          "type": "int64[][]"
        },
        {
          "internalType": "bytes",
          "name": "model",
          "type": "bytes"
        }
      ],
      "name": "predictKNNClassificationOffChainModel",
      "outputs": [
        {
          "internalType": "int64[]",
          "name": "",
          "type": "int64[]"
        }
      ],
      "stateMutability": "view",
      "type": "function"
    },
    {
      "inputs": [
        {
          "internalType": "string",
          "name": "_modelName",
          "type": "string"
        },
        {
          "internalType": "int64[][]",
          "name": "data",
          "type": "int64[][]"
        }
      ],
      "name": "predictKNNClassificationOnchainModel",
      "outputs": [
        {
          "internalType": "int64[]",
          "name": "",
          "type": "int64[]"
        }
      ],
      "stateMutability": "view",
      "type": "function"
    },
    {
      "inputs": [
        {
          "internalType": "int64[][]",
          "name": "data",
          "type": "int64[][]"
        },
        {
          "internalType": "bytes",
          "name": "model",
          "type": "bytes"
        }
      ],
      "name": "predictKNNRegressionOffChainModel",
      "outputs": [
        {
          "internalType": "int64[]",
          "name": "",
          "type": "int64[]"
        }
      ],
      "stateMutability": "view",
      "type": "function"
    },
    {
      "inputs": [
        {
          "internalType": "string",
          "name": "_modelName",
          "type": "string"
        },
        {
          "internalType": "int64[][]",
          "name": "data",
          "type": "int64[][]"
        }
      ],
      "name": "predictKNNRegressionOnchainModel",
      "outputs": [
        {
          "internalType": "int64[]",
          "name": "",
          "type": "int64[]"
        }
      ],
      "stateMutability": "view",
      "type": "function"
    },
    {
      "inputs": [
        {
          "internalType": "int64[][]",
          "name": "data",
          "type": "int64[][]"
        },
        {
          "internalType": "bytes",
          "name": "model",
          "type": "bytes"
        }
      ],
      "name": "predictLinearRegressionOffChainModel",
      "outputs": [
        {
          "internalType": "int64[]",
          "name": "",
          "type": "int64[]"
        }
      ],
      "stateMutability": "view",
      "type": "function"
    },
    {
      "inputs": [
        {
          "internalType": "string",
          "name": "_modelName",
          "type": "string"
        },
        {
          "internalType": "int64[][]",
          "name": "data",
          "type": "int64[][]"
        }
      ],
      "name": "predictLinearRegressionOnchainModel",
      "outputs": [
        {
          "internalType": "int64[]",
          "name": "",
          "type": "int64[]"
        }
      ],
      "stateMutability": "view",
      "type": "function"
    },
    {
      "inputs": [
        {
          "internalType": "int64[][]",
          "name": "data",
          "type": "int64[][]"
        },
        {
          "internalType": "bytes",
          "name": "model",
          "type": "bytes"
        }
      ],
      "name": "predictLogisticRegressionOffChainModel",
      "outputs": [
        {
          "internalType": "int64[]",
          "name": "",
          "type": "int64[]"
        }
      ],
      "stateMutability": "view",
      "type": "function"
    },
    {
      "inputs": [
        {
          "internalType": "string",
          "name": "_modelName",
          "type": "string"
        },
        {
          "internalType": "int64[][]",
          "name": "data",
          "type": "int64[][]"
        }
      ],
      "name": "predictLogisticRegressionOnchainModel",
      "outputs": [
        {
          "internalType": "int64[]",
          "name": "",
          "type": "int64[]"
        }
      ],
      "stateMutability": "view",
      "type": "function"
    },
    {
      "inputs": [
        {
          "internalType": "int64[][]",
          "name": "data",
          "type": "int64[][]"
        },
        {
          "internalType": "bytes",
          "name": "model",
          "type": "bytes"
        }
      ],
      "name": "predictRandomForestClassificationOffChainModel",
      "outputs": [
        {
          "internalType": "int64[]",
          "name": "",
          "type": "int64[]"
        }
      ],
      "stateMutability": "view",
      "type": "function"
    },
    {
      "inputs": [
        {
          "internalType": "string",
          "name": "_modelName",
          "type": "string"
        },
        {
          "internalType": "int64[][]",
          "name": "data",
          "type": "int64[][]"
        }
      ],
      "name": "predictRandomForestClassificationOnchainModel",
      "outputs": [
        {
          "internalType": "int64[]",
          "name": "",
          "type": "int64[]"
        }
      ],
      "stateMutability": "view",
      "type": "function"
    },
    {
      "inputs": [
        {
          "internalType": "int64[][]",
          "name": "data",
          "type": "int64[][]"
        },
        {
          "internalType": "bytes",
          "name": "model",
          "type": "bytes"
        }
      ],
      "name": "predictRandomForestRegressionOffChainModel",
      "outputs": [
        {
          "internalType": "int64[]",
          "name": "",
          "type": "int64[]"
        }
      ],
      "stateMutability": "view",
      "type": "function"
    },
    {
      "inputs": [
        {
          "internalType": "string",
          "name": "_modelName",
          "type": "string"
        },
        {
          "internalType": "int64[][]",
          "name": "data",
          "type": "int64[][]"
        }
      ],
      "name": "predictRandomForestRegressionOnchainModel",
      "outputs": [
        {
          "internalType": "int64[]",
          "name": "",
          "type": "int64[]"
        }
      ],
      "stateMutability": "view",
      "type": "function"
    },
    {
      "inputs": [
        {
          "internalType": "bytes",
          "name": "cid",
          "type": "bytes"
        },
        {
          "internalType": "int64[]",
          "name": "train_indices",
          "type": "int64[]"
        },
        {
          "internalType": "uint32",
          "name": "label_index",
          "type": "uint32"
        },
        {
          "internalType": "string",
          "name": "modelName",
          "type": "string"
        }
      ],
      "name": "trainDecisionTreeClassificationCidData",
      "outputs": [],
      "stateMutability": "nonpayable",
      "type": "function"
    },
    {
      "inputs": [
        {
          "internalType": "int64[][]",
          "name": "data",
          "type": "int64[][]"
        },
        {
          "internalType": "int64[]",
          "name": "labels",
          "type": "int64[]"
        },
        {
          "internalType": "string",
          "name": "modelName",
          "type": "string"
        }
      ],
      "name": "trainDecisionTreeClassificationOffChainData",
      "outputs": [],
      "stateMutability": "nonpayable",
      "type": "function"
    },
    {
      "inputs": [
        {
          "internalType": "string",
          "name": "_schemaName",
          "type": "string"
        },
        {
          "internalType": "int64[]",
          "name": "labels",
          "type": "int64[]"
        },
        {
          "internalType": "string",
          "name": "modelName",
          "type": "string"
        }
      ],
      "name": "trainDecisionTreeClassificationOnChainData",
      "outputs": [],
      "stateMutability": "nonpayable",
      "type": "function"
    },
    {
      "inputs": [
        {
          "internalType": "bytes",
          "name": "cid",
          "type": "bytes"
        },
        {
          "internalType": "int64[]",
          "name": "train_indices",
          "type": "int64[]"
        },
        {
          "internalType": "uint32",
          "name": "label_index",
          "type": "uint32"
        },
        {
          "internalType": "string",
          "name": "modelName",
          "type": "string"
        }
      ],
      "name": "trainDecisionTreeRegressionCidData",
      "outputs": [],
      "stateMutability": "nonpayable",
      "type": "function"
    },
    {
      "inputs": [
        {
          "internalType": "int64[][]",
          "name": "data",
          "type": "int64[][]"
        },
        {
          "internalType": "int64[]",
          "name": "labels",
          "type": "int64[]"
        },
        {
          "internalType": "string",
          "name": "modelName",
          "type": "string"
        }
      ],
      "name": "trainDecisionTreeRegressionOffChainData",
      "outputs": [],
      "stateMutability": "nonpayable",
      "type": "function"
    },
    {
      "inputs": [
        {
          "internalType": "string",
          "name": "_schemaName",
          "type": "string"
        },
        {
          "internalType": "int64[]",
          "name": "labels",
          "type": "int64[]"
        },
        {
          "internalType": "string",
          "name": "modelName",
          "type": "string"
        }
      ],
      "name": "trainDecisionTreeRegressionOnChainData",
      "outputs": [],
      "stateMutability": "nonpayable",
      "type": "function"
    },
    {
      "inputs": [
        {
          "internalType": "bytes",
          "name": "cid",
          "type": "bytes"
        },
        {
          "internalType": "int64[]",
          "name": "train_indices",
          "type": "int64[]"
        },
        {
          "internalType": "uint32",
          "name": "label_index",
          "type": "uint32"
        },
        {
          "internalType": "string",
          "name": "modelName",
          "type": "string"
        }
      ],
      "name": "trainKNNClassificationCidData",
      "outputs": [],
      "stateMutability": "nonpayable",
      "type": "function"
    },
    {
      "inputs": [
        {
          "internalType": "int64[][]",
          "name": "data",
          "type": "int64[][]"
        },
        {
          "internalType": "int64[]",
          "name": "labels",
          "type": "int64[]"
        },
        {
          "internalType": "string",
          "name": "modelName",
          "type": "string"
        }
      ],
      "name": "trainKNNClassificationOffChainData",
      "outputs": [],
      "stateMutability": "nonpayable",
      "type": "function"
    },
    {
      "inputs": [
        {
          "internalType": "string",
          "name": "_schemaName",
          "type": "string"
        },
        {
          "internalType": "int64[]",
          "name": "labels",
          "type": "int64[]"
        },
        {
          "internalType": "string",
          "name": "modelName",
          "type": "string"
        }
      ],
      "name": "trainKNNClassificationOnChainData",
      "outputs": [],
      "stateMutability": "nonpayable",
      "type": "function"
    },
    {
      "inputs": [
        {
          "internalType": "bytes",
          "name": "cid",
          "type": "bytes"
        },
        {
          "internalType": "int64[]",
          "name": "train_indices",
          "type": "int64[]"
        },
        {
          "internalType": "uint32",
          "name": "label_index",
          "type": "uint32"
        },
        {
          "internalType": "string",
          "name": "modelName",
          "type": "string"
        }
      ],
      "name": "trainKNNRegressionCidData",
      "outputs": [],
      "stateMutability": "nonpayable",
      "type": "function"
    },
    {
      "inputs": [
        {
          "internalType": "int64[][]",
          "name": "data",
          "type": "int64[][]"
        },
        {
          "internalType": "int64[]",
          "name": "labels",
          "type": "int64[]"
        },
        {
          "internalType": "string",
          "name": "modelName",
          "type": "string"
        }
      ],
      "name": "trainKNNRegressionOffChainData",
      "outputs": [],
      "stateMutability": "nonpayable",
      "type": "function"
    },
    {
      "inputs": [
        {
          "internalType": "string",
          "name": "_schemaName",
          "type": "string"
        },
        {
          "internalType": "int64[]",
          "name": "labels",
          "type": "int64[]"
        },
        {
          "internalType": "string",
          "name": "modelName",
          "type": "string"
        }
      ],
      "name": "trainKNNRegressionOnChainData",
      "outputs": [],
      "stateMutability": "nonpayable",
      "type": "function"
    },
    {
      "inputs": [
        {
          "internalType": "bytes",
          "name": "cid",
          "type": "bytes"
        },
        {
          "internalType": "int64[]",
          "name": "train_indices",
          "type": "int64[]"
        },
        {
          "internalType": "uint32",
          "name": "label_index",
          "type": "uint32"
        },
        {
          "internalType": "string",
          "name": "modelName",
          "type": "string"
        }
      ],
      "name": "trainLinearRegressionCidData",
      "outputs": [],
      "stateMutability": "nonpayable",
      "type": "function"
    },
    {
      "inputs": [
        {
          "internalType": "int64[][]",
          "name": "data",
          "type": "int64[][]"
        },
        {
          "internalType": "int64[]",
          "name": "labels",
          "type": "int64[]"
        },
        {
          "internalType": "string",
          "name": "modelName",
          "type": "string"
        }
      ],
      "name": "trainLinearRegressionOffChainData",
      "outputs": [],
      "stateMutability": "nonpayable",
      "type": "function"
    },
    {
      "inputs": [
        {
          "internalType": "string",
          "name": "_schemaName",
          "type": "string"
        },
        {
          "internalType": "int64[]",
          "name": "labels",
          "type": "int64[]"
        },
        {
          "internalType": "string",
          "name": "modelName",
          "type": "string"
        }
      ],
      "name": "trainLinearRegressionOnChainData",
      "outputs": [],
      "stateMutability": "nonpayable",
      "type": "function"
    },
    {
      "inputs": [
        {
          "internalType": "bytes",
          "name": "cid",
          "type": "bytes"
        },
        {
          "internalType": "int64[]",
          "name": "train_indices",
          "type": "int64[]"
        },
        {
          "internalType": "uint32",
          "name": "label_index",
          "type": "uint32"
        },
        {
          "internalType": "string",
          "name": "modelName",
          "type": "string"
        }
      ],
      "name": "trainLogisticRegressionCidData",
      "outputs": [],
      "stateMutability": "nonpayable",
      "type": "function"
    },
    {
      "inputs": [
        {
          "internalType": "int64[][]",
          "name": "data",
          "type": "int64[][]"
        },
        {
          "internalType": "int64[]",
          "name": "labels",
          "type": "int64[]"
        },
        {
          "internalType": "string",
          "name": "modelName",
          "type": "string"
        }
      ],
      "name": "trainLogisticRegressionOffChainData",
      "outputs": [],
      "stateMutability": "nonpayable",
      "type": "function"
    },
    {
      "inputs": [
        {
          "internalType": "string",
          "name": "_schemaName",
          "type": "string"
        },
        {
          "internalType": "int64[]",
          "name": "labels",
          "type": "int64[]"
        },
        {
          "internalType": "string",
          "name": "modelName",
          "type": "string"
        }
      ],
      "name": "trainLogisticRegressionOnChainData",
      "outputs": [],
      "stateMutability": "nonpayable",
      "type": "function"
    },
    {
      "inputs": [
        {
          "internalType": "bytes",
          "name": "cid",
          "type": "bytes"
        },
        {
          "internalType": "int64[]",
          "name": "train_indices",
          "type": "int64[]"
        },
        {
          "internalType": "uint32",
          "name": "label_index",
          "type": "uint32"
        },
        {
          "internalType": "string",
          "name": "modelName",
          "type": "string"
        }
      ],
      "name": "trainRandomForestClassificationCidData",
      "outputs": [],
      "stateMutability": "nonpayable",
      "type": "function"
    },
    {
      "inputs": [
        {
          "internalType": "int64[][]",
          "name": "data",
          "type": "int64[][]"
        },
        {
          "internalType": "int64[]",
          "name": "labels",
          "type": "int64[]"
        },
        {
          "internalType": "string",
          "name": "modelName",
          "type": "string"
        }
      ],
      "name": "trainRandomForestClassificationOffChainData",
      "outputs": [],
      "stateMutability": "nonpayable",
      "type": "function"
    },
    {
      "inputs": [
        {
          "internalType": "string",
          "name": "_schemaName",
          "type": "string"
        },
        {
          "internalType": "int64[]",
          "name": "labels",
          "type": "int64[]"
        },
        {
          "internalType": "string",
          "name": "modelName",
          "type": "string"
        }
      ],
      "name": "trainRandomForestClassificationOnChainData",
      "outputs": [],
      "stateMutability": "nonpayable",
      "type": "function"
    },
    {
      "inputs": [
        {
          "internalType": "bytes",
          "name": "cid",
          "type": "bytes"
        },
        {
          "internalType": "int64[]",
          "name": "train_indices",
          "type": "int64[]"
        },
        {
          "internalType": "uint32",
          "name": "label_index",
          "type": "uint32"
        },
        {
          "internalType": "string",
          "name": "modelName",
          "type": "string"
        }
      ],
      "name": "trainRandomForestRegressionCidData",
      "outputs": [],
      "stateMutability": "nonpayable",
      "type": "function"
    },
    {
      "inputs": [
        {
          "internalType": "int64[][]",
          "name": "data",
          "type": "int64[][]"
        },
        {
          "internalType": "int64[]",
          "name": "labels",
          "type": "int64[]"
        },
        {
          "internalType": "string",
          "name": "modelName",
          "type": "string"
        }
      ],
      "name": "trainRandomForestRegressionOffChainData",
      "outputs": [],
      "stateMutability": "nonpayable",
      "type": "function"
    },
    {
      "inputs": [
        {
          "internalType": "string",
          "name": "_schemaName",
          "type": "string"
        },
        {
          "internalType": "int64[]",
          "name": "labels",
          "type": "int64[]"
        },
        {
          "internalType": "string",
          "name": "modelName",
          "type": "string"
        }
      ],
      "name": "trainRandomForestRegressionOnChainData",
      "outputs": [],
      "stateMutability": "nonpayable",
      "type": "function"
    }
  ],
  "bytecode": "0x60806040523480156200001157600080fd5b506040516200566238038062005662833981810160405281019062000037919062000130565b816000800160006101000a81548173ffffffffffffffffffffffffffffffffffffffff021916908373ffffffffffffffffffffffffffffffffffffffff16021790555080600160000160006101000a81548173ffffffffffffffffffffffffffffffffffffffff021916908373ffffffffffffffffffffffffffffffffffffffff160217905550505062000177565b600080fd5b600073ffffffffffffffffffffffffffffffffffffffff82169050919050565b6000620000f882620000cb565b9050919050565b6200010a81620000eb565b81146200011657600080fd5b50565b6000815190506200012a81620000ff565b92915050565b600080604083850312156200014a5762000149620000c6565b5b60006200015a8582860162000119565b92505060206200016d8582860162000119565b9150509250929050565b6154db80620001876000396000f3fe6080604052600436106102725760003560e01c80639cbcfd331161014f578063d3aafd4c116100c1578063f03650361161007a578063f0365036146109c5578063f345f02714610a02578063f42a3c6014610a3f578063f7ba7d6b14610a7c578063fab5740414610aa5578063fed47ba014610ae257610272565b8063d3aafd4c14610893578063d686d3f8146108d0578063d69fcb271461090d578063dabcea2114610936578063dd796d251461095f578063e3d310901461099c57610272565b8063bf11f28d11610113578063bf11f28d14610761578063c0ffbf451461078a578063c269c73d146107b3578063c2fdeb3e146107f0578063c50006a91461082d578063c9b0563f1461086a57610272565b80639cbcfd33146106945780639efd5670146106bd578063a4463d8b146106e6578063a5bce5691461070f578063ba2f03ec1461073857610272565b806365606ea6116101e85780637a496f41116101ac5780637a496f41146105745780637cd14aac1461059d5780638fb06e8b146105c8578063924b34cf146106055780639c0d3b24146106425780639ca5194f1461066b57610272565b806365606ea61461046b578063659bf592146104945780636ba55a5c146104d15780637148ac871461050e57806377886e781461053757610272565b80632bc7c11c1161023a5780632bc7c11c1461036e5780633216019c1461039757806354a64ba7146103d457806354cf747d146103fd57806356b508491461041957806363c2778d1461044257610272565b80630f0e50971461027757806316fff3db146102a05780631be0d1b2146102c9578063269b0a71146102f45780632ba3079114610331575b600080fd5b34801561028357600080fd5b5061029e60048036038101906102999190613ab5565b610b0b565b005b3480156102ac57600080fd5b506102c760048036038101906102c29190613c39565b610b7a565b005b3480156102d557600080fd5b506102de610ba6565b6040516102eb9190613d35565b60405180910390f35b34801561030057600080fd5b5061031b60048036038101906103169190613e31565b610bd2565b6040516103289190613f67565b60405180910390f35b34801561033d57600080fd5b5061035860048036038101906103539190613f89565b610c05565b6040516103659190614093565b60405180910390f35b34801561037a57600080fd5b50610395600480360381019061039091906140b5565b610c1b565b005b3480156103a357600080fd5b506103be60048036038101906103b9919061415c565b610c45565b6040516103cb9190613f67565b60405180910390f35b3480156103e057600080fd5b506103fb60048036038101906103f69190613ab5565b610c5f565b005b610417600480360381019061041291906142aa565b610cce565b005b34801561042557600080fd5b50610440600480360381019061043b91906140b5565b610d56565b005b34801561044e57600080fd5b5061046960048036038101906104649190613c39565b610d80565b005b34801561047757600080fd5b50610492600480360381019061048d91906140b5565b610dac565b005b3480156104a057600080fd5b506104bb60048036038101906104b6919061415c565b610dd6565b6040516104c89190613f67565b60405180910390f35b3480156104dd57600080fd5b506104f860048036038101906104f3919061415c565b610df0565b6040516105059190613f67565b60405180910390f35b34801561051a57600080fd5b5061053560048036038101906105309190613c39565b610e0a565b005b34801561054357600080fd5b5061055e60048036038101906105599190613e31565b610e36565b60405161056b9190613f67565b60405180910390f35b34801561058057600080fd5b5061059b60048036038101906105969190613c39565b610e69565b005b3480156105a957600080fd5b506105b2610e95565b6040516105bf9190613d35565b60405180910390f35b3480156105d457600080fd5b506105ef60048036038101906105ea919061415c565b610ec1565b6040516105fc9190613f67565b60405180910390f35b34801561061157600080fd5b5061062c6004803603810190610627919061415c565b610edb565b6040516106399190613f67565b60405180910390f35b34801561064e57600080fd5b5061066960048036038101906106649190613c39565b610ef5565b005b34801561067757600080fd5b50610692600480360381019061068d91906140b5565b610f21565b005b3480156106a057600080fd5b506106bb60048036038101906106b69190613ab5565b610f4b565b005b3480156106c957600080fd5b506106e460048036038101906106df9190613ab5565b610fba565b005b3480156106f257600080fd5b5061070d60048036038101906107089190613c39565b611029565b005b34801561071b57600080fd5b5061073660048036038101906107319190613ab5565b611055565b005b34801561074457600080fd5b5061075f600480360381019061075a9190613ab5565b6110c4565b005b34801561076d57600080fd5b50610788600480360381019061078391906140b5565b611133565b005b34801561079657600080fd5b506107b160048036038101906107ac9190613ab5565b61115d565b005b3480156107bf57600080fd5b506107da60048036038101906107d5919061415c565b6111cc565b6040516107e79190613f67565b60405180910390f35b3480156107fc57600080fd5b5061081760048036038101906108129190613e31565b6111e6565b6040516108249190613f67565b60405180910390f35b34801561083957600080fd5b50610854600480360381019061084f9190613e31565b611219565b6040516108619190613f67565b60405180910390f35b34801561087657600080fd5b50610891600480360381019061088c9190613c39565b61124c565b005b34801561089f57600080fd5b506108ba60048036038101906108b5919061415c565b611278565b6040516108c79190613f67565b60405180910390f35b3480156108dc57600080fd5b506108f760048036038101906108f29190613e31565b611292565b6040516109049190613f67565b60405180910390f35b34801561091957600080fd5b50610934600480360381019061092f91906140b5565b6112c5565b005b34801561094257600080fd5b5061095d600480360381019061095891906140b5565b6112ef565b005b34801561096b57600080fd5b5061098660048036038101906109819190613e31565b611319565b6040516109939190613f67565b60405180910390f35b3480156109a857600080fd5b506109c360048036038101906109be91906140b5565b61134c565b005b3480156109d157600080fd5b506109ec60048036038101906109e79190613e31565b611376565b6040516109f99190613f67565b60405180910390f35b348015610a0e57600080fd5b50610a296004803603810190610a24919061415c565b6113a9565b604051610a369190613f67565b60405180910390f35b348015610a4b57600080fd5b50610a666004803603810190610a619190613e31565b6113c3565b604051610a739190613f67565b60405180910390f35b348015610a8857600080fd5b50610aa36004803603810190610a9e9190613ab5565b6113f6565b005b348015610ab157600080fd5b50610acc6004803603810190610ac7919061436d565b611465565b604051610ad99190614093565b60405180910390f35b348015610aee57600080fd5b50610b096004803603810190610b049190613c39565b611482565b005b600083604051602001610b1e91906143fd565b6040516020818303038152906040528051906020012090506000610b4c8260006114ae90919063ffffffff16565b90506000610b5a828661155b565b9050610b72818560016115d39092919063ffffffff16565b505050505050565b6000610b87858585611669565b9050610b9f818360016115d39092919063ffffffff16565b5050505050565b60018060000160009054906101000a900473ffffffffffffffffffffffffffffffffffffffff16905081565b60606000610bea8460016116e390919063ffffffff16565b90506000610bf88483611790565b9050809250505092915050565b6060610c12848484611816565b90509392505050565b6000610c2784846118a4565b9050610c3f818360016115d39092919063ffffffff16565b50505050565b60606000610c53848461191c565b90508091505092915050565b600083604051602001610c7291906143fd565b6040516020818303038152906040528051906020012090506000610ca08260006114ae90919063ffffffff16565b90506000610cae82866119a2565b9050610cc6818560016115d39092919063ffffffff16565b505050505050565b600086604051602001610ce191906143fd565b6040516020818303038152906040528051906020012090506001610d0f8260006114ae90919063ffffffff16565b511015610d3157610d30818787876000611a1a90949392919063ffffffff16565b5b610d4d81878786866000611ab69095949392919063ffffffff16565b50505050505050565b6000610d628484611b55565b9050610d7a818360016115d39092919063ffffffff16565b50505050565b6000610d8d858585611bcd565b9050610da5818360016115d39092919063ffffffff16565b5050505050565b6000610db88484611c47565b9050610dd0818360016115d39092919063ffffffff16565b50505050565b60606000610de48484611cbf565b90508091505092915050565b60606000610dfe8484611d45565b90508091505092915050565b6000610e17858585611dcb565b9050610e2f818360016115d39092919063ffffffff16565b5050505050565b60606000610e4e8460016116e390919063ffffffff16565b90506000610e5c8483611e45565b9050809250505092915050565b6000610e76858585611ecb565b9050610e8e818360016115d39092919063ffffffff16565b5050505050565b60008060000160009054906101000a900473ffffffffffffffffffffffffffffffffffffffff16905081565b60606000610ecf8484611790565b90508091505092915050565b60606000610ee98484611f45565b90508091505092915050565b6000610f02858585611fcb565b9050610f1a818360016115d39092919063ffffffff16565b5050505050565b6000610f2d8484612045565b9050610f45818360016115d39092919063ffffffff16565b50505050565b600083604051602001610f5e91906143fd565b6040516020818303038152906040528051906020012090506000610f8c8260006114ae90919063ffffffff16565b90506000610f9a82866118a4565b9050610fb2818560016115d39092919063ffffffff16565b505050505050565b600083604051602001610fcd91906143fd565b6040516020818303038152906040528051906020012090506000610ffb8260006114ae90919063ffffffff16565b90506000611009828661155b565b9050611021818560016115d39092919063ffffffff16565b505050505050565b60006110368585856120bd565b905061104e818360016115d39092919063ffffffff16565b5050505050565b60008360405160200161106891906143fd565b60405160208183030381529060405280519060200120905060006110968260006114ae90919063ffffffff16565b905060006110a48286611b55565b90506110bc818560016115d39092919063ffffffff16565b505050505050565b6000836040516020016110d791906143fd565b60405160208183030381529060405280519060200120905060006111058260006114ae90919063ffffffff16565b905060006111138286612137565b905061112b818560016115d39092919063ffffffff16565b505050505050565b600061113f84846119a2565b9050611157818360016115d39092919063ffffffff16565b50505050565b60008360405160200161117091906143fd565b604051602081830303815290604052805190602001209050600061119e8260006114ae90919063ffffffff16565b905060006111ac8286612045565b90506111c4818560016115d39092919063ffffffff16565b505050505050565b606060006111da84846121af565b90508091505092915050565b606060006111fe8460016116e390919063ffffffff16565b9050600061120c848361191c565b9050809250505092915050565b606060006112318460016116e390919063ffffffff16565b9050600061123f8483611cbf565b9050809250505092915050565b6000611259858585612235565b9050611271818360016115d39092919063ffffffff16565b5050505050565b606060006112868484611e45565b90508091505092915050565b606060006112aa8460016116e390919063ffffffff16565b905060006112b884836122af565b9050809250505092915050565b60006112d1848461155b565b90506112e9818360016115d39092919063ffffffff16565b50505050565b60006112fb8484612335565b9050611313818360016115d39092919063ffffffff16565b50505050565b606060006113318460016116e390919063ffffffff16565b9050600061133f8483611f45565b9050809250505092915050565b60006113588484612137565b9050611370818360016115d39092919063ffffffff16565b50505050565b6060600061138e8460016116e390919063ffffffff16565b9050600061139c8483611d45565b9050809250505092915050565b606060006113b784846122af565b90508091505092915050565b606060006113db8460016116e390919063ffffffff16565b905060006113e984836121af565b9050809250505092915050565b60008360405160200161140991906143fd565b60405160208183030381529060405280519060200120905060006114378260006114ae90919063ffffffff16565b905060006114458286612335565b905061145d818560016115d39092919063ffffffff16565b505050505050565b606061147b8260016116e390919063ffffffff16565b9050919050565b600061148f8585856123ad565b90506114a7818360016115d39092919063ffffffff16565b5050505050565b60608260000160009054906101000a900473ffffffffffffffffffffffffffffffffffffffff1673ffffffffffffffffffffffffffffffffffffffff1663165a055c836040518263ffffffff1660e01b815260040161150d919061442d565b600060405180830381865afa15801561152a573d6000803e3d6000fd5b505050506040513d6000823e3d601f19601f8201168201806040525081019061155391906145a9565b905092915050565b606060006115698484612427565b905060008061158060316339249c956051866125ac565b91509150600082146115c7576040517f08c379a00000000000000000000000000000000000000000000000000000000081526004016115be9061464f565b60405180910390fd5b80935050505092915050565b8260000160009054906101000a900473ffffffffffffffffffffffffffffffffffffffff1673ffffffffffffffffffffffffffffffffffffffff1663cab3f93f83836040518363ffffffff1660e01b81526004016116329291906146a8565b600060405180830381600087803b15801561164c57600080fd5b505af1158015611660573d6000803e3d6000fd5b50505050505050565b60606000611678858585611816565b905060008061168f60316339249c956051866125ac565b91509150600082146116d6576040517f08c379a00000000000000000000000000000000000000000000000000000000081526004016116cd9061464f565b60405180910390fd5b8093505050509392505050565b60608260000160009054906101000a900473ffffffffffffffffffffffffffffffffffffffff1673ffffffffffffffffffffffffffffffffffffffff1663fab57404836040518263ffffffff1660e01b815260040161174291906146df565b600060405180830381865afa15801561175f573d6000803e3d6000fd5b505050506040513d6000823e3d601f19601f820116820180604052508101906117889190614771565b905092915050565b6060600061179e84846125e1565b90506000806117b5603163e8decf356051866125ac565b91509150600082146117fc576040517f08c379a00000000000000000000000000000000000000000000000000000000081526004016117f39061464f565b60405180910390fd5b600061180782612791565b90508094505050505092915050565b6060600060405180602001604052808681525090506000611838828686612854565b905060008061184f603163310b06ff6051866125ac565b9150915060008214611896576040517f08c379a000000000000000000000000000000000000000000000000000000000815260040161188d9061464f565b60405180910390fd5b809450505050509392505050565b606060006118b28484612427565b90506000806118c96031637e46f38d6051866125ac565b9150915060008214611910576040517f08c379a00000000000000000000000000000000000000000000000000000000081526004016119079061464f565b60405180910390fd5b80935050505092915050565b6060600061192a84846125e1565b9050600080611941603163df67f0bf6051866125ac565b9150915060008214611988576040517f08c379a000000000000000000000000000000000000000000000000000000000815260040161197f9061464f565b60405180910390fd5b600061199382612791565b90508094505050505092915050565b606060006119b08484612427565b90506000806119c76031637ca76d806051866125ac565b9150915060008214611a0e576040517f08c379a0000000000000000000000000000000000000000000000000000000008152600401611a059061464f565b60405180910390fd5b80935050505092915050565b8460000160009054906101000a900473ffffffffffffffffffffffffffffffffffffffff1673ffffffffffffffffffffffffffffffffffffffff16638343d5e6858585856040518563ffffffff1660e01b8152600401611a7d94939291906148ac565b600060405180830381600087803b158015611a9757600080fd5b505af1158015611aab573d6000803e3d6000fd5b505050505050505050565b8560000160009054906101000a900473ffffffffffffffffffffffffffffffffffffffff1673ffffffffffffffffffffffffffffffffffffffff1663c7235c8986868686866040518663ffffffff1660e01b8152600401611b1b959493929190614aae565b600060405180830381600087803b158015611b3557600080fd5b505af1158015611b49573d6000803e3d6000fd5b50505050505050505050565b60606000611b638484612427565b9050600080611b7a60316332ba64716051866125ac565b9150915060008214611bc1576040517f08c379a0000000000000000000000000000000000000000000000000000000008152600401611bb89061464f565b60405180910390fd5b80935050505092915050565b60606000611bdc858585611816565b9050600080611bf3603163cc1bf2ec6051866125ac565b9150915060008214611c3a576040517f08c379a0000000000000000000000000000000000000000000000000000000008152600401611c319061464f565b60405180910390fd5b8093505050509392505050565b60606000611c558484612427565b9050600080611c6c60316324787e646051866125ac565b9150915060008214611cb3576040517f08c379a0000000000000000000000000000000000000000000000000000000008152600401611caa9061464f565b60405180910390fd5b80935050505092915050565b60606000611ccd84846125e1565b9050600080611ce4603163737afaed6051866125ac565b9150915060008214611d2b576040517f08c379a0000000000000000000000000000000000000000000000000000000008152600401611d229061464f565b60405180910390fd5b6000611d3682612791565b90508094505050505092915050565b60606000611d5384846125e1565b9050600080611d6a603163ca857b2a6051866125ac565b9150915060008214611db1576040517f08c379a0000000000000000000000000000000000000000000000000000000008152600401611da89061464f565b60405180910390fd5b6000611dbc82612791565b90508094505050505092915050565b60606000611dda858585611816565b9050600080611df160316332ba64716051866125ac565b9150915060008214611e38576040517f08c379a0000000000000000000000000000000000000000000000000000000008152600401611e2f9061464f565b60405180910390fd5b8093505050509392505050565b60606000611e5384846125e1565b9050600080611e6a603163b99ff2196051866125ac565b9150915060008214611eb1576040517f08c379a0000000000000000000000000000000000000000000000000000000008152600401611ea89061464f565b60405180910390fd5b6000611ebc82612791565b90508094505050505092915050565b60606000611eda858585611816565b9050600080611ef1603163faf1f8d86051866125ac565b9150915060008214611f38576040517f08c379a0000000000000000000000000000000000000000000000000000000008152600401611f2f9061464f565b60405180910390fd5b8093505050509392505050565b60606000611f5384846125e1565b9050600080611f6a6031637fa5da6a6051866125ac565b9150915060008214611fb1576040517f08c379a0000000000000000000000000000000000000000000000000000000008152600401611fa89061464f565b60405180910390fd5b6000611fbc82612791565b90508094505050505092915050565b60606000611fda858585611816565b9050600080611ff16031637ca76d806051866125ac565b9150915060008214612038576040517f08c379a000000000000000000000000000000000000000000000000000000000815260040161202f9061464f565b60405180910390fd5b8093505050509392505050565b606060006120538484612427565b905060008061206a603163cc1bf2ec6051866125ac565b91509150600082146120b1576040517f08c379a00000000000000000000000000000000000000000000000000000000081526004016120a89061464f565b60405180910390fd5b80935050505092915050565b606060006120cc858585611816565b90506000806120e36031637e46f38d6051866125ac565b915091506000821461212a576040517f08c379a00000000000000000000000000000000000000000000000000000000081526004016121219061464f565b60405180910390fd5b8093505050509392505050565b606060006121458484612427565b905060008061215c603163622699166051866125ac565b91509150600082146121a3576040517f08c379a000000000000000000000000000000000000000000000000000000000815260040161219a9061464f565b60405180910390fd5b80935050505092915050565b606060006121bd84846125e1565b90506000806121d4603163c817fb206051866125ac565b915091506000821461221b576040517f08c379a00000000000000000000000000000000000000000000000000000000081526004016122129061464f565b60405180910390fd5b600061222682612791565b90508094505050505092915050565b60606000612244858585611816565b905060008061225b60316324787e646051866125ac565b91509150600082146122a2576040517f08c379a00000000000000000000000000000000000000000000000000000000081526004016122999061464f565b60405180910390fd5b8093505050509392505050565b606060006122bd84846125e1565b90506000806122d4603163e0403b8e6051866125ac565b915091506000821461231b576040517f08c379a00000000000000000000000000000000000000000000000000000000081526004016123129061464f565b60405180910390fd5b600061232682612791565b90508094505050505092915050565b606060006123438484612427565b905060008061235a603163faf1f8d86051866125ac565b91509150600082146123a1576040517f08c379a00000000000000000000000000000000000000000000000000000000081526004016123989061464f565b60405180910390fd5b80935050505092915050565b606060006123bc858585611816565b90506000806123d3603163622699166051866125ac565b915091506000821461241a576040517f08c379a00000000000000000000000000000000000000000000000000000000081526004016124119061464f565b60405180910390fd5b8093505050509392505050565b60606000612436610100612917565b905061244c60028261293e90919063ffffffff16565b61246084518261293e90919063ffffffff16565b60005b84518167ffffffffffffffff16101561253e576124a58560008151811061248d5761248c614af7565b5b6020026020010151518361293e90919063ffffffff16565b60005b856000815181106124bc576124bb614af7565b5b60200260200101515181101561252a5761251d868367ffffffffffffffff16815181106124ec576124eb614af7565b5b6020026020010151828151811061250657612505614af7565b5b60200260200101518461294e90919063ffffffff16565b80806001019150506124a8565b50808061253690614b69565b915050612463565b5061255383518261293e90919063ffffffff16565b60005b83518110156125995761258c84828151811061257557612574614af7565b5b60200260200101518361294e90919063ffffffff16565b8080600101915050612556565b506125a3816129a6565b91505092915050565b600060606138166138166129ff90508091506125d288888888600060018863ffffffff16565b93509350505094509492505050565b606060006125ee83612b2a565b905060006125fd610100612917565b905061261360028261293e90919063ffffffff16565b61262785518261293e90919063ffffffff16565b60005b85518167ffffffffffffffff1610156127055761266c8660008151811061265457612653614af7565b5b6020026020010151518361293e90919063ffffffff16565b60005b8660008151811061268357612682614af7565b5b6020026020010151518110156126f1576126e4878367ffffffffffffffff16815181106126b3576126b2614af7565b5b602002602001015182815181106126cd576126cc614af7565b5b60200260200101518461294e90919063ffffffff16565b808060010191505061266f565b5080806126fd90614b69565b91505061262a565b5061271a82518261293e90919063ffffffff16565b60005b82518167ffffffffffffffff16101561277d5761276a838267ffffffffffffffff16815181106127505761274f614af7565b5b602002602001015160ff1683612bed90919063ffffffff16565b808061277590614b69565b91505061271d565b50612787816129a6565b9250505092915050565b60606000806127a1846000612bfd565b9150915060008267ffffffffffffffff8111156127c1576127c0613889565b5b6040519080825280602002602001820160405280156127ef5781602001602082028036833780820191505090505b50905060005b838110156128485760008061280a8886612c7e565b915091508184848151811061282257612821614af7565b5b602002602001019060070b908160070b81525050809450505080806001019150506127f5565b50809350505050919050565b60606000612863610100612917565b905061287960038261293e90919063ffffffff16565b612890856000015182612d1090919063ffffffff16565b6128a484518261293e90919063ffffffff16565b60005b84518110156128ea576128dd8582815181106128c6576128c5614af7565b5b60200260200101518361294e90919063ffffffff16565b80806001019150506128a7565b506129048363ffffffff1682612bed90919063ffffffff16565b61290d816129a6565b9150509392505050565b61291f613820565b61292d816000015183612d82565b506000816020018181525050919050565b61294a82600483612dfb565b5050565b60008160070b1261296a5761296582600083612e0b565b6129a2565b6129a1826001837fffffffffffffffffffffffffffffffffffffffffffffffffffffffffffffffff61299c9190614b99565b612e0b565b5b5050565b606060008260200151146129ef576040517f08c379a00000000000000000000000000000000000000000000000000000000081526004016129e690614c45565b60405180910390fd5b8160000151600001519050919050565b60006060612a2173fe0000000000000000000000000000000000000585612fb4565b60008073fe0000000000000000000000000000000000000573ffffffffffffffffffffffffffffffffffffffff16898787612a5d576000612a60565b60015b8b8b8f604051602001612a7896959493929190614cc8565b604051602081830303815290604052604051612a949190614d6c565b600060405180830381855af49150503d8060008114612acf576040519150601f19603f3d011682016040523d82523d6000602084013e612ad4565b606091505b509150915081612b10576040517f8a7db5bf00000000000000000000000000000000000000000000000000000000815260040160405180910390fd5b612b198161304a565b935093505050965096945050505050565b6060600080612b3a846000612bfd565b9150915060008267ffffffffffffffff811115612b5a57612b59613889565b5b604051908082528060200260200182016040528015612b885781602001602082028036833780820191505090505b50905060005b83811015612be157600080612ba38886613191565b9150915081848481518110612bbb57612bba614af7565b5b602002602001019060ff16908160ff168152505080945050508080600101915050612b8e565b50809350505050919050565b612bf982600083612e0b565b5050565b600080600080612c0d8686613212565b8167ffffffffffffffff169150809750819350829450505050600460ff168260ff1614612c6f576040517f08c379a0000000000000000000000000000000000000000000000000000000008152600401612c6690614dcf565b60405180910390fd5b80859350935050509250929050565b600080600080612c8e8686613212565b8167ffffffffffffffff169150809750819350829450505050600160ff168260ff161480612cc25750600060ff168260ff16145b612d01576040517f08c379a0000000000000000000000000000000000000000000000000000000008152600401612cf890614e61565b60405180910390fd5b80859350935050509250929050565b612d3260186005600660ff16901b17836000015161340490919063ffffffff16565b50612d4b602a836000015161340490919063ffffffff16565b50612d7e81604051602001612d609190614e88565b6040516020818303038152906040528361346e90919063ffffffff16565b5050565b612d8a613840565b6000602083612d999190614edd565b14612dc557602082612dab9190614edd565b6020612db79190614f0e565b82612dc29190614f42565b91505b818360200181815250506040518084526000815282810160200181811015612dec57600080fd5b80604052505082905092915050565b612e06838383612e0b565b505050565b60178167ffffffffffffffff1611612e4657612e408160058460ff16901b60ff1617846000015161340490919063ffffffff16565b50612faf565b60ff8167ffffffffffffffff1611612ea457612e79601860058460ff16901b17846000015161340490919063ffffffff16565b50612e9e8167ffffffffffffffff16600185600001516134979092919063ffffffff16565b50612fae565b61ffff8167ffffffffffffffff1611612f0357612ed8601960058460ff16901b17846000015161340490919063ffffffff16565b50612efd8167ffffffffffffffff16600285600001516134979092919063ffffffff16565b50612fad565b63ffffffff8167ffffffffffffffff1611612f6457612f39601a60058460ff16901b17846000015161340490919063ffffffff16565b50612f5e8167ffffffffffffffff16600485600001516134979092919063ffffffff16565b50612fac565b612f85601b60058460ff16901b17846000015161340490919063ffffffff16565b50612faa8167ffffffffffffffff16600885600001516134979092919063ffffffff16565b505b5b5b5b505050565b6000479050818110156130005780826040517f8f0f4206000000000000000000000000000000000000000000000000000000008152600401612ff7929190614f76565b60405180910390fd5b600061300b84613524565b905080613044576040517f64d954b000000000000000000000000000000000000000000000000000000000815260040160405180910390fd5b50505050565b600060606000806000858060200190518101906130679190615001565b925092509250600067ffffffffffffffff168267ffffffffffffffff16036130c95760008151146130c4576040517f0e74990700000000000000000000000000000000000000000000000000000000815260040160405180910390fd5b613183565b605167ffffffffffffffff168267ffffffffffffffff1614806131005750607167ffffffffffffffff168267ffffffffffffffff16145b15613145576000815103613140576040517f0e74990700000000000000000000000000000000000000000000000000000000815260040160405180910390fd5b613182565b816040517ff1f6bced0000000000000000000000000000000000000000000000000000000081526004016131799190615070565b60405180910390fd5b5b828194509450505050915091565b6000806000806131a18686613212565b8167ffffffffffffffff169150809750819350829450505050600060ff168260ff1614613203576040517f08c379a00000000000000000000000000000000000000000000000000000000081526004016131fa906150fd565b60405180910390fd5b80859350935050509250929050565b600080600080613222868661353a565b90506001856132319190614f42565b94506000600560e0831660ff16901c90506000601f83169050601c8160ff1610613290576040517f08c379a00000000000000000000000000000000000000000000000000000000081526004016132879061518f565b60405180910390fd5b60188160ff1610156132b3578181888160ff1691509550955095505050506133fd565b60188160ff160361333a5760006132ca898961353a565b90506001886132d99190614f42565b975060188160ff161015613322576040517f08c379a0000000000000000000000000000000000000000000000000000000008152600401613319906151fb565b60405180910390fd5b8281898160ff169150965096509650505050506133fd565b60198160ff160361337b57600061335189896135b5565b90506002886133609190614f42565b97508281898161ffff169150965096509650505050506133fd565b601a8160ff16036133be576000613392898961361f565b90506004886133a19190614f42565b97508281898163ffffffff169150965096509650505050506133fd565b601b8160ff16146133d2576133d161521b565b5b60006133de8989613689565b90506008886133ed9190614f42565b9750828189965096509650505050505b9250925092565b61340c613840565b6000836000015151905060006001826134259190614f42565b9050846020015182106134495761344885600283613443919061524a565b6136f3565b5b84516020838201018581538151831115613461578282525b5050849250505092915050565b61347b8260028351612e0b565b61349281836000015161371790919063ffffffff16565b505050565b61349f613840565b60008460000151519050600081846134b79190614f42565b905085602001518111156134dc576134db866002836134d6919061524a565b6136f3565b5b60006001856101006134ee91906153bf565b6134f89190614f0e565b905086518281018783198251161781528151841115613515578382525b50508693505050509392505050565b600080823f90506000801b811415915050919050565b60006001826135499190614f42565b8351101561358c576040517f08c379a000000000000000000000000000000000000000000000000000000000815260040161358390615456565b60405180910390fd5b82828151811061359f5761359e614af7565b5b602001015160f81c60f81b60f81c905092915050565b60006002826135c49190614f42565b83511015613607576040517f08c379a00000000000000000000000000000000000000000000000000000000081526004016135fe90615456565b60405180910390fd5b60008260200184015190508060f01c91505092915050565b600060048261362e9190614f42565b83511015613671576040517f08c379a000000000000000000000000000000000000000000000000000000000815260040161366890615456565b60405180910390fd5b60008260200184015190508060e01c91505092915050565b60006008826136989190614f42565b835110156136db576040517f08c379a00000000000000000000000000000000000000000000000000000000081526004016136d290615456565b60405180910390fd5b60008260200184015190508060c01c91505092915050565b6000826000015190506137068383612d82565b506137118382613717565b50505050565b61371f613840565b61372b83838451613733565b905092915050565b61373b613840565b825182111561374957600080fd5b60008460000151519050600083826137619190614f42565b905085602001518111156137865761378586600283613780919061524a565b6136f3565b5b600080875180518560208301019350808511156137a1578482525b60208901925050505b602086106137e857805182526020826137c39190614f42565b91506020816137d29190614f42565b90506020866137e19190614f0e565b95506137aa565b60006001876020036101000a0390508019825116818451168181178552505050879450505050509392505050565b61381e615476565b565b6040518060400160405280613833613840565b8152602001600081525090565b604051806040016040528060608152602001600081525090565b6000604051905090565b600080fd5b600080fd5b600080fd5b600080fd5b6000601f19601f8301169050919050565b7f4e487b7100000000000000000000000000000000000000000000000000000000600052604160045260246000fd5b6138c182613878565b810181811067ffffffffffffffff821117156138e0576138df613889565b5b80604052505050565b60006138f361385a565b90506138ff82826138b8565b919050565b600067ffffffffffffffff82111561391f5761391e613889565b5b61392882613878565b9050602081019050919050565b82818337600083830152505050565b600061395761395284613904565b6138e9565b90508281526020810184848401111561397357613972613873565b5b61397e848285613935565b509392505050565b600082601f83011261399b5761399a61386e565b5b81356139ab848260208601613944565b91505092915050565b600067ffffffffffffffff8211156139cf576139ce613889565b5b602082029050602081019050919050565b600080fd5b60008160070b9050919050565b6139fb816139e5565b8114613a0657600080fd5b50565b600081359050613a18816139f2565b92915050565b6000613a31613a2c846139b4565b6138e9565b90508083825260208201905060208402830185811115613a5457613a536139e0565b5b835b81811015613a7d5780613a698882613a09565b845260208401935050602081019050613a56565b5050509392505050565b600082601f830112613a9c57613a9b61386e565b5b8135613aac848260208601613a1e565b91505092915050565b600080600060608486031215613ace57613acd613864565b5b600084013567ffffffffffffffff811115613aec57613aeb613869565b5b613af886828701613986565b935050602084013567ffffffffffffffff811115613b1957613b18613869565b5b613b2586828701613a87565b925050604084013567ffffffffffffffff811115613b4657613b45613869565b5b613b5286828701613986565b9150509250925092565b600067ffffffffffffffff821115613b7757613b76613889565b5b613b8082613878565b9050602081019050919050565b6000613ba0613b9b84613b5c565b6138e9565b905082815260208101848484011115613bbc57613bbb613873565b5b613bc7848285613935565b509392505050565b600082601f830112613be457613be361386e565b5b8135613bf4848260208601613b8d565b91505092915050565b600063ffffffff82169050919050565b613c1681613bfd565b8114613c2157600080fd5b50565b600081359050613c3381613c0d565b92915050565b60008060008060808587031215613c5357613c52613864565b5b600085013567ffffffffffffffff811115613c7157613c70613869565b5b613c7d87828801613bcf565b945050602085013567ffffffffffffffff811115613c9e57613c9d613869565b5b613caa87828801613a87565b9350506040613cbb87828801613c24565b925050606085013567ffffffffffffffff811115613cdc57613cdb613869565b5b613ce887828801613986565b91505092959194509250565b600073ffffffffffffffffffffffffffffffffffffffff82169050919050565b6000613d1f82613cf4565b9050919050565b613d2f81613d14565b82525050565b6000602082019050613d4a6000830184613d26565b92915050565b600067ffffffffffffffff821115613d6b57613d6a613889565b5b602082029050602081019050919050565b6000613d8f613d8a84613d50565b6138e9565b90508083825260208201905060208402830185811115613db257613db16139e0565b5b835b81811015613df957803567ffffffffffffffff811115613dd757613dd661386e565b5b808601613de48982613a87565b85526020850194505050602081019050613db4565b5050509392505050565b600082601f830112613e1857613e1761386e565b5b8135613e28848260208601613d7c565b91505092915050565b60008060408385031215613e4857613e47613864565b5b600083013567ffffffffffffffff811115613e6657613e65613869565b5b613e7285828601613986565b925050602083013567ffffffffffffffff811115613e9357613e92613869565b5b613e9f85828601613e03565b9150509250929050565b600081519050919050565b600082825260208201905092915050565b6000819050602082019050919050565b613ede816139e5565b82525050565b6000613ef08383613ed5565b60208301905092915050565b6000602082019050919050565b6000613f1482613ea9565b613f1e8185613eb4565b9350613f2983613ec5565b8060005b83811015613f5a578151613f418882613ee4565b9750613f4c83613efc565b925050600181019050613f2d565b5085935050505092915050565b60006020820190508181036000830152613f818184613f09565b905092915050565b600080600060608486031215613fa257613fa1613864565b5b600084013567ffffffffffffffff811115613fc057613fbf613869565b5b613fcc86828701613bcf565b935050602084013567ffffffffffffffff811115613fed57613fec613869565b5b613ff986828701613a87565b925050604061400a86828701613c24565b9150509250925092565b600081519050919050565b600082825260208201905092915050565b60005b8381101561404e578082015181840152602081019050614033565b60008484015250505050565b600061406582614014565b61406f818561401f565b935061407f818560208601614030565b61408881613878565b840191505092915050565b600060208201905081810360008301526140ad818461405a565b905092915050565b6000806000606084860312156140ce576140cd613864565b5b600084013567ffffffffffffffff8111156140ec576140eb613869565b5b6140f886828701613e03565b935050602084013567ffffffffffffffff81111561411957614118613869565b5b61412586828701613a87565b925050604084013567ffffffffffffffff81111561414657614145613869565b5b61415286828701613986565b9150509250925092565b6000806040838503121561417357614172613864565b5b600083013567ffffffffffffffff81111561419157614190613869565b5b61419d85828601613e03565b925050602083013567ffffffffffffffff8111156141be576141bd613869565b5b6141ca85828601613bcf565b9150509250929050565b600080fd5b60008083601f8401126141ef576141ee61386e565b5b8235905067ffffffffffffffff81111561420c5761420b6141d4565b5b602083019150836020820283011115614228576142276139e0565b5b9250929050565b6007811061423c57600080fd5b50565b60008135905061424e8161422f565b92915050565b60008083601f84011261426a5761426961386e565b5b8235905067ffffffffffffffff811115614287576142866141d4565b5b6020830191508360208202830111156142a3576142a26139e0565b5b9250929050565b600080600080600080608087890312156142c7576142c6613864565b5b600087013567ffffffffffffffff8111156142e5576142e4613869565b5b6142f189828a01613986565b965050602087013567ffffffffffffffff81111561431257614311613869565b5b61431e89828a016141d9565b9550955050604061433189828a0161423f565b935050606087013567ffffffffffffffff81111561435257614351613869565b5b61435e89828a01614254565b92509250509295509295509295565b60006020828403121561438357614382613864565b5b600082013567ffffffffffffffff8111156143a1576143a0613869565b5b6143ad84828501613986565b91505092915050565b600081519050919050565b600081905092915050565b60006143d7826143b6565b6143e181856143c1565b93506143f1818560208601614030565b80840191505092915050565b600061440982846143cc565b915081905092915050565b6000819050919050565b61442781614414565b82525050565b6000602082019050614442600083018461441e565b92915050565b600081519050614457816139f2565b92915050565b600061447061446b846139b4565b6138e9565b90508083825260208201905060208402830185811115614493576144926139e0565b5b835b818110156144bc57806144a88882614448565b845260208401935050602081019050614495565b5050509392505050565b600082601f8301126144db576144da61386e565b5b81516144eb84826020860161445d565b91505092915050565b600061450761450284613d50565b6138e9565b9050808382526020820190506020840283018581111561452a576145296139e0565b5b835b8181101561457157805167ffffffffffffffff81111561454f5761454e61386e565b5b80860161455c89826144c6565b8552602085019450505060208101905061452c565b5050509392505050565b600082601f8301126145905761458f61386e565b5b81516145a08482602086016144f4565b91505092915050565b6000602082840312156145bf576145be613864565b5b600082015167ffffffffffffffff8111156145dd576145dc613869565b5b6145e98482850161457b565b91505092915050565b600082825260208201905092915050565b7f4d616368696e65206c6561726e696e67206163746f72206661696c6564000000600082015250565b6000614639601d836145f2565b915061464482614603565b602082019050919050565b600060208201905081810360008301526146688161462c565b9050919050565b600061467a826143b6565b61468481856145f2565b9350614694818560208601614030565b61469d81613878565b840191505092915050565b600060408201905081810360008301526146c2818561405a565b905081810360208301526146d6818461466f565b90509392505050565b600060208201905081810360008301526146f9818461466f565b905092915050565b600061471461470f84613b5c565b6138e9565b9050828152602081018484840111156147305761472f613873565b5b61473b848285614030565b509392505050565b600082601f8301126147585761475761386e565b5b8151614768848260208601614701565b91505092915050565b60006020828403121561478757614786613864565b5b600082015167ffffffffffffffff8111156147a5576147a4613869565b5b6147b184828501614743565b91505092915050565b600082825260208201905092915050565b600080fd5b82818337505050565b60006147e583856147ba565b93507f07ffffffffffffffffffffffffffffffffffffffffffffffffffffffffffffff831115614818576148176147cb565b5b6020830292506148298385846147d0565b82840190509392505050565b7f4e487b7100000000000000000000000000000000000000000000000000000000600052602160045260246000fd5b6007811061487557614874614835565b5b50565b600081905061488682614864565b919050565b600061489682614878565b9050919050565b6148a68161488b565b82525050565b60006060820190506148c1600083018761441e565b81810360208301526148d48185876147d9565b90506148e3604083018461489d565b95945050505050565b600082825260208201905092915050565b6000819050919050565b600082825260208201905092915050565b6000819050919050565b60006149316020840184613a09565b905092915050565b6000602082019050919050565b60006149528385614907565b935061495d82614918565b8060005b85811015614996576149738284614922565b61497d8882613ee4565b975061498883614939565b925050600181019050614961565b5085925050509392505050565b60006149b0848484614946565b90509392505050565b600080fd5b600080fd5b600080fd5b600080833560016020038436030381126149e5576149e46149c3565b5b83810192508235915060208301925067ffffffffffffffff821115614a0d57614a0c6149b9565b5b602082023603831315614a2357614a226149be565b5b509250929050565b6000602082019050919050565b6000614a4483856148ec565b935083602084028501614a56846148fd565b8060005b87811015614a9c578484038952614a7182846149c8565b614a7c8682846149a3565b9550614a8784614a2b565b935060208b019a505050600181019050614a5a565b50829750879450505050509392505050565b6000606082019050614ac3600083018861441e565b8181036020830152614ad68186886147d9565b90508181036040830152614aeb818486614a38565b90509695505050505050565b7f4e487b7100000000000000000000000000000000000000000000000000000000600052603260045260246000fd5b7f4e487b7100000000000000000000000000000000000000000000000000000000600052601160045260246000fd5b600067ffffffffffffffff82169050919050565b6000614b7482614b55565b915067ffffffffffffffff8203614b8e57614b8d614b26565b5b600182019050919050565b6000614ba4826139e5565b9150614baf836139e5565b92508282039050677fffffffffffffff81137fffffffffffffffffffffffffffffffffffffffffffffffff800000000000000082121715614bf357614bf2614b26565b5b92915050565b7f496e76616c69642043424f520000000000000000000000000000000000000000600082015250565b6000614c2f600c836145f2565b9150614c3a82614bf9565b602082019050919050565b60006020820190508181036000830152614c5e81614c22565b9050919050565b614c6e81614b55565b82525050565b6000819050919050565b614c8781614c74565b82525050565b6000819050919050565b6000614cb2614cad614ca884614b55565b614c8d565b614b55565b9050919050565b614cc281614c97565b82525050565b600060c082019050614cdd6000830189614c65565b614cea6020830188614c7e565b614cf76040830187614c65565b614d046060830186614c65565b8181036080830152614d16818561405a565b9050614d2560a0830184614cb9565b979650505050505050565b600081905092915050565b6000614d4682614014565b614d508185614d30565b9350614d60818560208601614030565b80840191505092915050565b6000614d788284614d3b565b915081905092915050565b7f696e76616c6964206d616a20286578706563746564204d616a41727261792900600082015250565b6000614db9601f836145f2565b9150614dc482614d83565b602082019050919050565b60006020820190508181036000830152614de881614dac565b9050919050565b7f696e76616c6964206d616a20286578706563746564204d616a5369676e65644960008201527f6e74206f72204d616a556e7369676e6564496e74290000000000000000000000602082015250565b6000614e4b6035836145f2565b9150614e5682614def565b604082019050919050565b60006020820190508181036000830152614e7a81614e3e565b9050919050565b6000815250565b6000614e9382614e81565b600182019150614ea38284614d3b565b915081905092915050565b7f4e487b7100000000000000000000000000000000000000000000000000000000600052601260045260246000fd5b6000614ee882614c74565b9150614ef383614c74565b925082614f0357614f02614eae565b5b828206905092915050565b6000614f1982614c74565b9150614f2483614c74565b9250828203905081811115614f3c57614f3b614b26565b5b92915050565b6000614f4d82614c74565b9150614f5883614c74565b9250828201905080821115614f7057614f6f614b26565b5b92915050565b6000604082019050614f8b6000830185614c7e565b614f986020830184614c7e565b9392505050565b6000819050919050565b614fb281614f9f565b8114614fbd57600080fd5b50565b600081519050614fcf81614fa9565b92915050565b614fde81614b55565b8114614fe957600080fd5b50565b600081519050614ffb81614fd5565b92915050565b60008060006060848603121561501a57615019613864565b5b600061502886828701614fc0565b935050602061503986828701614fec565b925050604084015167ffffffffffffffff81111561505a57615059613869565b5b61506686828701614743565b9150509250925092565b60006020820190506150856000830184614c65565b92915050565b7f696e76616c6964206d616a20286578706563746564204d616a556e7369676e6560008201527f64496e7429000000000000000000000000000000000000000000000000000000602082015250565b60006150e76025836145f2565b91506150f28261508b565b604082019050919050565b60006020820190508181036000830152615116816150da565b9050919050565b7f63616e6e6f742068616e646c652068656164657273207769746820657874726160008201527f203e203237000000000000000000000000000000000000000000000000000000602082015250565b60006151796025836145f2565b91506151848261511d565b604082019050919050565b600060208201905081810360008301526151a88161516c565b9050919050565b7f696e76616c69642063626f720000000000000000000000000000000000000000600082015250565b60006151e5600c836145f2565b91506151f0826151af565b602082019050919050565b60006020820190508181036000830152615214816151d8565b9050919050565b7f4e487b7100000000000000000000000000000000000000000000000000000000600052600160045260246000fd5b600061525582614c74565b915061526083614c74565b925082820261526e81614c74565b9150828204841483151761528557615284614b26565b5b5092915050565b60008160011c9050919050565b6000808291508390505b60018511156152e3578086048111156152bf576152be614b26565b5b60018516156152ce5780820291505b80810290506152dc8561528c565b94506152a3565b94509492505050565b6000826152fc57600190506153b8565b8161530a57600090506153b8565b8160018114615320576002811461532a57615359565b60019150506153b8565b60ff84111561533c5761533b614b26565b5b8360020a91508482111561535357615352614b26565b5b506153b8565b5060208310610133831016604e8410600b841016171561538e5782820a90508381111561538957615388614b26565b5b6153b8565b61539b8484846001615299565b925090508184048111156153b2576153b1614b26565b5b81810290505b9392505050565b60006153ca82614c74565b91506153d583614c74565b92506154027fffffffffffffffffffffffffffffffffffffffffffffffffffffffffffffffff84846152ec565b905092915050565b7f736c6963696e67206f7574206f662072616e6765000000000000000000000000600082015250565b60006154406014836145f2565b915061544b8261540a565b602082019050919050565b6000602082019050818103600083015261546f81615433565b9050919050565b7f4e487b7100000000000000000000000000000000000000000000000000000000600052605160045260246000fdfea264697066735822122020bfd16cb7144dab79e79af53a911990636183f8bd12dd5b29d3d87a0e9a634264736f6c63430008180033",
  "linkReferences": {},
  "deployedLinkReferences": {}
}