{
  "_format": "hh-sol-artifact-1",
  "contractName": "ML",
  "sourceName": "contracts/ML.sol",
  "abi": [
    {
      "inputs": [
        {
          "internalType": "address",
          "name": "_datastorage",
          "type": "address"
        },
        {
          "internalType": "address",
          "name": "_modelstorage",
          "type": "address"
        }
      ],
      "stateMutability": "nonpayable",
      "type": "constructor"
    },
    {
      "inputs": [],
      "name": "ActorNotFound",
      "type": "error"
    },
    {
      "inputs": [],
      "name": "FailToCallActor",
      "type": "error"
    },
    {
      "inputs": [
        {
          "internalType": "uint64",
          "name": "",
          "type": "uint64"
        }
      ],
      "name": "InvalidCodec",
      "type": "error"
    },
    {
      "inputs": [],
      "name": "InvalidResponseLength",
      "type": "error"
    },
    {
      "inputs": [
        {
          "internalType": "uint256",
          "name": "balance",
          "type": "uint256"
        },
        {
          "internalType": "uint256",
          "name": "value",
          "type": "uint256"
        }
      ],
      "name": "NotEnoughBalance",
      "type": "error"
    },
    {
      "inputs": [
        {
          "internalType": "string",
          "name": "_schemaName",
          "type": "string"
        },
        {
          "internalType": "bytes32[]",
          "name": "columns",
          "type": "bytes32[]"
        },
        {
          "internalType": "enum IDataStorage.Category",
          "name": "category",
          "type": "uint8"
        },
        {
          "internalType": "int64[][]",
          "name": "data",
          "type": "int64[][]"
        }
      ],
      "name": "addOnChainData",
      "outputs": [],
      "stateMutability": "payable",
      "type": "function"
    },
    {
      "inputs": [],
      "name": "datastorage",
      "outputs": [
        {
          "internalType": "address payable",
          "name": "dataStorageAddress",
          "type": "address"
        }
      ],
      "stateMutability": "view",
      "type": "function"
    },
    {
      "inputs": [
        {
          "internalType": "string",
          "name": "_modelName",
          "type": "string"
        }
      ],
      "name": "getModel",
      "outputs": [
        {
          "internalType": "bytes",
          "name": "",
          "type": "bytes"
        }
      ],
      "stateMutability": "view",
      "type": "function"
    },
    {
      "inputs": [],
      "name": "modelstorage",
      "outputs": [
        {
          "internalType": "address payable",
          "name": "modelStorageAddress",
          "type": "address"
        }
      ],
      "stateMutability": "view",
      "type": "function"
    },
    {
      "inputs": [
        {
          "internalType": "int64[][]",
          "name": "data",
          "type": "int64[][]"
        },
        {
          "internalType": "bytes",
          "name": "model",
          "type": "bytes"
        }
      ],
      "name": "predictDecisionTreeClassificationOffChainModel",
      "outputs": [
        {
          "internalType": "int64[]",
          "name": "",
          "type": "int64[]"
        }
      ],
      "stateMutability": "nonpayable",
      "type": "function"
    },
    {
      "inputs": [
        {
          "internalType": "string",
          "name": "_modelName",
          "type": "string"
        },
        {
          "internalType": "int64[][]",
          "name": "data",
          "type": "int64[][]"
        }
      ],
      "name": "predictDecisionTreeClassificationOnchainModel",
      "outputs": [
        {
          "internalType": "int64[]",
          "name": "",
          "type": "int64[]"
        }
      ],
      "stateMutability": "nonpayable",
      "type": "function"
    },
    {
      "inputs": [
        {
          "internalType": "int64[][]",
          "name": "data",
          "type": "int64[][]"
        },
        {
          "internalType": "bytes",
          "name": "model",
          "type": "bytes"
        }
      ],
      "name": "predictDecisionTreeRegressionOffChainModel",
      "outputs": [
        {
          "internalType": "int64[]",
          "name": "",
          "type": "int64[]"
        }
      ],
      "stateMutability": "nonpayable",
      "type": "function"
    },
    {
      "inputs": [
        {
          "internalType": "string",
          "name": "_modelName",
          "type": "string"
        },
        {
          "internalType": "int64[][]",
          "name": "data",
          "type": "int64[][]"
        }
      ],
      "name": "predictDecisionTreeRegressionOnchainModel",
      "outputs": [
        {
          "internalType": "int64[]",
          "name": "",
          "type": "int64[]"
        }
      ],
      "stateMutability": "nonpayable",
      "type": "function"
    },
    {
      "inputs": [
        {
          "internalType": "int64[][]",
          "name": "data",
          "type": "int64[][]"
        },
        {
          "internalType": "bytes",
          "name": "model",
          "type": "bytes"
        }
      ],
      "name": "predictKNNClassificationOffChainModel",
      "outputs": [
        {
          "internalType": "int64[]",
          "name": "",
          "type": "int64[]"
        }
      ],
      "stateMutability": "nonpayable",
      "type": "function"
    },
    {
      "inputs": [
        {
          "internalType": "string",
          "name": "_modelName",
          "type": "string"
        },
        {
          "internalType": "int64[][]",
          "name": "data",
          "type": "int64[][]"
        }
      ],
      "name": "predictKNNClassificationOnchainModel",
      "outputs": [
        {
          "internalType": "int64[]",
          "name": "",
          "type": "int64[]"
        }
      ],
      "stateMutability": "nonpayable",
      "type": "function"
    },
    {
      "inputs": [
        {
          "internalType": "int64[][]",
          "name": "data",
          "type": "int64[][]"
        },
        {
          "internalType": "bytes",
          "name": "model",
          "type": "bytes"
        }
      ],
      "name": "predictKNNRegressionOffChainModel",
      "outputs": [
        {
          "internalType": "int64[]",
          "name": "",
          "type": "int64[]"
        }
      ],
      "stateMutability": "nonpayable",
      "type": "function"
    },
    {
      "inputs": [
        {
          "internalType": "string",
          "name": "_modelName",
          "type": "string"
        },
        {
          "internalType": "int64[][]",
          "name": "data",
          "type": "int64[][]"
        }
      ],
      "name": "predictKNNRegressionOnchainModel",
      "outputs": [
        {
          "internalType": "int64[]",
          "name": "",
          "type": "int64[]"
        }
      ],
      "stateMutability": "nonpayable",
      "type": "function"
    },
    {
      "inputs": [
        {
          "internalType": "int64[][]",
          "name": "data",
          "type": "int64[][]"
        },
        {
          "internalType": "bytes",
          "name": "model",
          "type": "bytes"
        }
      ],
      "name": "predictLinearRegressionOffChainModel",
      "outputs": [
        {
          "internalType": "int64[]",
          "name": "",
          "type": "int64[]"
        }
      ],
      "stateMutability": "nonpayable",
      "type": "function"
    },
    {
      "inputs": [
        {
          "internalType": "string",
          "name": "_modelName",
          "type": "string"
        },
        {
          "internalType": "int64[][]",
          "name": "data",
          "type": "int64[][]"
        }
      ],
      "name": "predictLinearRegressionOnchainModel",
      "outputs": [
        {
          "internalType": "int64[]",
          "name": "",
          "type": "int64[]"
        }
      ],
      "stateMutability": "nonpayable",
      "type": "function"
    },
    {
      "inputs": [
        {
          "internalType": "int64[][]",
          "name": "data",
          "type": "int64[][]"
        },
        {
          "internalType": "bytes",
          "name": "model",
          "type": "bytes"
        }
      ],
      "name": "predictLogisticRegressionOffChainModel",
      "outputs": [
        {
          "internalType": "int64[]",
          "name": "",
          "type": "int64[]"
        }
      ],
      "stateMutability": "nonpayable",
      "type": "function"
    },
    {
      "inputs": [
        {
          "internalType": "string",
          "name": "_modelName",
          "type": "string"
        },
        {
          "internalType": "int64[][]",
          "name": "data",
          "type": "int64[][]"
        }
      ],
      "name": "predictLogisticRegressionOnchainModel",
      "outputs": [
        {
          "internalType": "int64[]",
          "name": "",
          "type": "int64[]"
        }
      ],
      "stateMutability": "nonpayable",
      "type": "function"
    },
    {
      "inputs": [
        {
          "internalType": "int64[][]",
          "name": "data",
          "type": "int64[][]"
        },
        {
          "internalType": "bytes",
          "name": "model",
          "type": "bytes"
        }
      ],
      "name": "predictRandomForestClassificationOffChainModel",
      "outputs": [
        {
          "internalType": "int64[]",
          "name": "",
          "type": "int64[]"
        }
      ],
      "stateMutability": "nonpayable",
      "type": "function"
    },
    {
      "inputs": [
        {
          "internalType": "string",
          "name": "_modelName",
          "type": "string"
        },
        {
          "internalType": "int64[][]",
          "name": "data",
          "type": "int64[][]"
        }
      ],
      "name": "predictRandomForestClassificationOnchainModel",
      "outputs": [
        {
          "internalType": "int64[]",
          "name": "",
          "type": "int64[]"
        }
      ],
      "stateMutability": "nonpayable",
      "type": "function"
    },
    {
      "inputs": [
        {
          "internalType": "int64[][]",
          "name": "data",
          "type": "int64[][]"
        },
        {
          "internalType": "bytes",
          "name": "model",
          "type": "bytes"
        }
      ],
      "name": "predictRandomForestRegressionOffChainModel",
      "outputs": [
        {
          "internalType": "int64[]",
          "name": "",
          "type": "int64[]"
        }
      ],
      "stateMutability": "nonpayable",
      "type": "function"
    },
    {
      "inputs": [
        {
          "internalType": "string",
          "name": "_modelName",
          "type": "string"
        },
        {
          "internalType": "int64[][]",
          "name": "data",
          "type": "int64[][]"
        }
      ],
      "name": "predictRandomForestRegressionOnchainModel",
      "outputs": [
        {
          "internalType": "int64[]",
          "name": "",
          "type": "int64[]"
        }
      ],
      "stateMutability": "nonpayable",
      "type": "function"
    },
    {
      "inputs": [
        {
          "internalType": "int64[][]",
          "name": "data",
          "type": "int64[][]"
        },
        {
          "internalType": "int64[]",
          "name": "labels",
          "type": "int64[]"
        },
        {
          "internalType": "string",
          "name": "modelName",
          "type": "string"
        }
      ],
      "name": "trainDecisionTreeClassificationOffChainData",
      "outputs": [],
      "stateMutability": "nonpayable",
      "type": "function"
    },
    {
      "inputs": [
        {
          "internalType": "string",
          "name": "_schemaName",
          "type": "string"
        },
        {
          "internalType": "int64[]",
          "name": "labels",
          "type": "int64[]"
        },
        {
          "internalType": "string",
          "name": "modelName",
          "type": "string"
        }
      ],
      "name": "trainDecisionTreeClassificationOnChainData",
      "outputs": [],
      "stateMutability": "nonpayable",
      "type": "function"
    },
    {
      "inputs": [
        {
          "internalType": "int64[][]",
          "name": "data",
          "type": "int64[][]"
        },
        {
          "internalType": "int64[]",
          "name": "labels",
          "type": "int64[]"
        },
        {
          "internalType": "string",
          "name": "modelName",
          "type": "string"
        }
      ],
      "name": "trainDecisionTreeRegressionOffChainData",
      "outputs": [],
      "stateMutability": "nonpayable",
      "type": "function"
    },
    {
      "inputs": [
        {
          "internalType": "string",
          "name": "_schemaName",
          "type": "string"
        },
        {
          "internalType": "int64[]",
          "name": "labels",
          "type": "int64[]"
        },
        {
          "internalType": "string",
          "name": "modelName",
          "type": "string"
        }
      ],
      "name": "trainDecisionTreeRegressionOnChainData",
      "outputs": [],
      "stateMutability": "nonpayable",
      "type": "function"
    },
    {
      "inputs": [
        {
          "internalType": "int64[][]",
          "name": "data",
          "type": "int64[][]"
        },
        {
          "internalType": "int64[]",
          "name": "labels",
          "type": "int64[]"
        },
        {
          "internalType": "string",
          "name": "modelName",
          "type": "string"
        }
      ],
      "name": "trainKNNClassificationOffChainData",
      "outputs": [],
      "stateMutability": "nonpayable",
      "type": "function"
    },
    {
      "inputs": [
        {
          "internalType": "string",
          "name": "_schemaName",
          "type": "string"
        },
        {
          "internalType": "int64[]",
          "name": "labels",
          "type": "int64[]"
        },
        {
          "internalType": "string",
          "name": "modelName",
          "type": "string"
        }
      ],
      "name": "trainKNNClassificationOnChainData",
      "outputs": [],
      "stateMutability": "nonpayable",
      "type": "function"
    },
    {
      "inputs": [
        {
          "internalType": "int64[][]",
          "name": "data",
          "type": "int64[][]"
        },
        {
          "internalType": "int64[]",
          "name": "labels",
          "type": "int64[]"
        },
        {
          "internalType": "string",
          "name": "modelName",
          "type": "string"
        }
      ],
      "name": "trainKNNRegressionOffChainData",
      "outputs": [],
      "stateMutability": "nonpayable",
      "type": "function"
    },
    {
      "inputs": [
        {
          "internalType": "string",
          "name": "_schemaName",
          "type": "string"
        },
        {
          "internalType": "int64[]",
          "name": "labels",
          "type": "int64[]"
        },
        {
          "internalType": "string",
          "name": "modelName",
          "type": "string"
        }
      ],
      "name": "trainKNNRegressionOnChainData",
      "outputs": [],
      "stateMutability": "nonpayable",
      "type": "function"
    },
    {
      "inputs": [
        {
          "internalType": "int64[][]",
          "name": "data",
          "type": "int64[][]"
        },
        {
          "internalType": "int64[]",
          "name": "labels",
          "type": "int64[]"
        },
        {
          "internalType": "string",
          "name": "modelName",
          "type": "string"
        }
      ],
      "name": "trainLinearRegressionOffChainData",
      "outputs": [],
      "stateMutability": "nonpayable",
      "type": "function"
    },
    {
      "inputs": [
        {
          "internalType": "string",
          "name": "_schemaName",
          "type": "string"
        },
        {
          "internalType": "int64[]",
          "name": "labels",
          "type": "int64[]"
        },
        {
          "internalType": "string",
          "name": "modelName",
          "type": "string"
        }
      ],
      "name": "trainLinearRegressionOnChainData",
      "outputs": [],
      "stateMutability": "nonpayable",
      "type": "function"
    },
    {
      "inputs": [
        {
          "internalType": "int64[][]",
          "name": "data",
          "type": "int64[][]"
        },
        {
          "internalType": "int64[]",
          "name": "labels",
          "type": "int64[]"
        },
        {
          "internalType": "string",
          "name": "modelName",
          "type": "string"
        }
      ],
      "name": "trainLogisticRegressionOffChainData",
      "outputs": [],
      "stateMutability": "nonpayable",
      "type": "function"
    },
    {
      "inputs": [
        {
          "internalType": "string",
          "name": "_schemaName",
          "type": "string"
        },
        {
          "internalType": "int64[]",
          "name": "labels",
          "type": "int64[]"
        },
        {
          "internalType": "string",
          "name": "modelName",
          "type": "string"
        }
      ],
      "name": "trainLogisticRegressionOnChainData",
      "outputs": [],
      "stateMutability": "nonpayable",
      "type": "function"
    },
    {
      "inputs": [
        {
          "internalType": "int64[][]",
          "name": "data",
          "type": "int64[][]"
        },
        {
          "internalType": "int64[]",
          "name": "labels",
          "type": "int64[]"
        },
        {
          "internalType": "string",
          "name": "modelName",
          "type": "string"
        }
      ],
      "name": "trainRandomForestClassificationOffChainData",
      "outputs": [],
      "stateMutability": "nonpayable",
      "type": "function"
    },
    {
      "inputs": [
        {
          "internalType": "string",
          "name": "_schemaName",
          "type": "string"
        },
        {
          "internalType": "int64[]",
          "name": "labels",
          "type": "int64[]"
        },
        {
          "internalType": "string",
          "name": "modelName",
          "type": "string"
        }
      ],
      "name": "trainRandomForestClassificationOnChainData",
      "outputs": [],
      "stateMutability": "nonpayable",
      "type": "function"
    },
    {
      "inputs": [
        {
          "internalType": "int64[][]",
          "name": "data",
          "type": "int64[][]"
        },
        {
          "internalType": "int64[]",
          "name": "labels",
          "type": "int64[]"
        },
        {
          "internalType": "string",
          "name": "modelName",
          "type": "string"
        }
      ],
      "name": "trainRandomForestRegressionOffChainData",
      "outputs": [],
      "stateMutability": "nonpayable",
      "type": "function"
    },
    {
      "inputs": [
        {
          "internalType": "string",
          "name": "_schemaName",
          "type": "string"
        },
        {
          "internalType": "int64[]",
          "name": "labels",
          "type": "int64[]"
        },
        {
          "internalType": "string",
          "name": "modelName",
          "type": "string"
        }
      ],
      "name": "trainRandomForestRegressionOnChainData",
      "outputs": [],
      "stateMutability": "nonpayable",
      "type": "function"
    }
  ],
  "bytecode": "0x60806040523480156200001157600080fd5b5060405162004b5b38038062004b5b833981810160405281019062000037919062000130565b816000800160006101000a81548173ffffffffffffffffffffffffffffffffffffffff021916908373ffffffffffffffffffffffffffffffffffffffff16021790555080600160000160006101000a81548173ffffffffffffffffffffffffffffffffffffffff021916908373ffffffffffffffffffffffffffffffffffffffff160217905550505062000177565b600080fd5b600073ffffffffffffffffffffffffffffffffffffffff82169050919050565b6000620000f882620000cb565b9050919050565b6200010a81620000eb565b81146200011657600080fd5b50565b6000815190506200012a81620000ff565b92915050565b600080604083850312156200014a5762000149620000c6565b5b60006200015a8582860162000119565b92505060206200016d8582860162000119565b9150509250929050565b6149d480620001876000396000f3fe60806040526004361061020f5760003560e01c8063a5bce56911610118578063d69fcb27116100a0578063f03650361161006f578063f036503614610806578063f345f02714610843578063f42a3c6014610880578063f7ba7d6b146108bd578063fab57404146108e65761020f565b8063d69fcb271461074e578063dabcea2114610777578063dd796d25146107a0578063e3d31090146107dd5761020f565b8063c269c73d116100e7578063c269c73d1461061d578063c2fdeb3e1461065a578063c50006a914610697578063d3aafd4c146106d4578063d686d3f8146107115761020f565b8063a5bce56914610579578063ba2f03ec146105a2578063bf11f28d146105cb578063c0ffbf45146105f45761020f565b8063659bf5921161019b5780638fb06e8b1161016a5780638fb06e8b14610484578063924b34cf146104c15780639ca5194f146104fe5780639cbcfd33146105275780639efd5670146105505761020f565b8063659bf592146103a25780636ba55a5c146103df57806377886e781461041c5780637cd14aac146104595761020f565b80633216019c116101e25780633216019c146102ce57806354a64ba71461030b57806354cf747d1461033457806356b508491461035057806365606ea6146103795761020f565b80630f0e5097146102145780631be0d1b21461023d578063269b0a71146102685780632bc7c11c146102a5575b600080fd5b34801561022057600080fd5b5061023b6004803603810190610236919061318c565b610923565b005b34801561024957600080fd5b50610252610992565b60405161025f9190613274565b60405180910390f35b34801561027457600080fd5b5061028f600480360381019061028a9190613370565b6109be565b60405161029c91906134a6565b60405180910390f35b3480156102b157600080fd5b506102cc60048036038101906102c791906134c8565b6109f1565b005b3480156102da57600080fd5b506102f560048036038101906102f09190613610565b610a1b565b60405161030291906134a6565b60405180910390f35b34801561031757600080fd5b50610332600480360381019061032d919061318c565b610a35565b005b61034e6004803603810190610349919061375e565b610aa4565b005b34801561035c57600080fd5b50610377600480360381019061037291906134c8565b610b2c565b005b34801561038557600080fd5b506103a0600480360381019061039b91906134c8565b610b56565b005b3480156103ae57600080fd5b506103c960048036038101906103c49190613610565b610b80565b6040516103d691906134a6565b60405180910390f35b3480156103eb57600080fd5b5061040660048036038101906104019190613610565b610b9a565b60405161041391906134a6565b60405180910390f35b34801561042857600080fd5b50610443600480360381019061043e9190613370565b610bb4565b60405161045091906134a6565b60405180910390f35b34801561046557600080fd5b5061046e610be7565b60405161047b9190613274565b60405180910390f35b34801561049057600080fd5b506104ab60048036038101906104a69190613610565b610c13565b6040516104b891906134a6565b60405180910390f35b3480156104cd57600080fd5b506104e860048036038101906104e39190613610565b610c2d565b6040516104f591906134a6565b60405180910390f35b34801561050a57600080fd5b50610525600480360381019061052091906134c8565b610c47565b005b34801561053357600080fd5b5061054e6004803603810190610549919061318c565b610c71565b005b34801561055c57600080fd5b506105776004803603810190610572919061318c565b610ce0565b005b34801561058557600080fd5b506105a0600480360381019061059b919061318c565b610d4f565b005b3480156105ae57600080fd5b506105c960048036038101906105c4919061318c565b610dbe565b005b3480156105d757600080fd5b506105f260048036038101906105ed91906134c8565b610e2d565b005b34801561060057600080fd5b5061061b6004803603810190610616919061318c565b610e57565b005b34801561062957600080fd5b50610644600480360381019061063f9190613610565b610ec6565b60405161065191906134a6565b60405180910390f35b34801561066657600080fd5b50610681600480360381019061067c9190613370565b610ee0565b60405161068e91906134a6565b60405180910390f35b3480156106a357600080fd5b506106be60048036038101906106b99190613370565b610f13565b6040516106cb91906134a6565b60405180910390f35b3480156106e057600080fd5b506106fb60048036038101906106f69190613610565b610f46565b60405161070891906134a6565b60405180910390f35b34801561071d57600080fd5b5061073860048036038101906107339190613370565b610f60565b60405161074591906134a6565b60405180910390f35b34801561075a57600080fd5b50610775600480360381019061077091906134c8565b610f93565b005b34801561078357600080fd5b5061079e600480360381019061079991906134c8565b610fbd565b005b3480156107ac57600080fd5b506107c760048036038101906107c29190613370565b610fe7565b6040516107d491906134a6565b60405180910390f35b3480156107e957600080fd5b5061080460048036038101906107ff91906134c8565b61101a565b005b34801561081257600080fd5b5061082d60048036038101906108289190613370565b611044565b60405161083a91906134a6565b60405180910390f35b34801561084f57600080fd5b5061086a60048036038101906108659190613610565b611077565b60405161087791906134a6565b60405180910390f35b34801561088c57600080fd5b506108a760048036038101906108a29190613370565b611091565b6040516108b491906134a6565b60405180910390f35b3480156108c957600080fd5b506108e460048036038101906108df919061318c565b6110c4565b005b3480156108f257600080fd5b5061090d60048036038101906109089190613821565b611133565b60405161091a91906138e9565b60405180910390f35b6000836040516020016109369190613952565b604051602081830303815290604052805190602001209050600061096482600061115090919063ffffffff16565b9050600061097282866111fd565b905061098a818560016112789092919063ffffffff16565b505050505050565b60018060000160009054906101000a900473ffffffffffffffffffffffffffffffffffffffff16905081565b606060006109d684600161130e90919063ffffffff16565b905060006109e484836113bb565b9050809250505092915050565b60006109fd8484611444565b9050610a15818360016112789092919063ffffffff16565b50505050565b60606000610a2984846114bf565b90508091505092915050565b600083604051602001610a489190613952565b6040516020818303038152906040528051906020012090506000610a7682600061115090919063ffffffff16565b90506000610a848286611548565b9050610a9c818560016112789092919063ffffffff16565b505050505050565b600086604051602001610ab79190613952565b6040516020818303038152906040528051906020012090506001610ae582600061115090919063ffffffff16565b511015610b0757610b068187878760006115c390949392919063ffffffff16565b5b610b238187878686600061165f9095949392919063ffffffff16565b50505050505050565b6000610b3884846116fe565b9050610b50818360016112789092919063ffffffff16565b50505050565b6000610b628484611779565b9050610b7a818360016112789092919063ffffffff16565b50505050565b60606000610b8e84846117f4565b90508091505092915050565b60606000610ba8848461187d565b90508091505092915050565b60606000610bcc84600161130e90919063ffffffff16565b90506000610bda8483611906565b9050809250505092915050565b60008060000160009054906101000a900473ffffffffffffffffffffffffffffffffffffffff16905081565b60606000610c2184846113bb565b90508091505092915050565b60606000610c3b848461198f565b90508091505092915050565b6000610c538484611a18565b9050610c6b818360016112789092919063ffffffff16565b50505050565b600083604051602001610c849190613952565b6040516020818303038152906040528051906020012090506000610cb282600061115090919063ffffffff16565b90506000610cc08286611444565b9050610cd8818560016112789092919063ffffffff16565b505050505050565b600083604051602001610cf39190613952565b6040516020818303038152906040528051906020012090506000610d2182600061115090919063ffffffff16565b90506000610d2f82866111fd565b9050610d47818560016112789092919063ffffffff16565b505050505050565b600083604051602001610d629190613952565b6040516020818303038152906040528051906020012090506000610d9082600061115090919063ffffffff16565b90506000610d9e82866116fe565b9050610db6818560016112789092919063ffffffff16565b505050505050565b600083604051602001610dd19190613952565b6040516020818303038152906040528051906020012090506000610dff82600061115090919063ffffffff16565b90506000610e0d8286611a93565b9050610e25818560016112789092919063ffffffff16565b505050505050565b6000610e398484611548565b9050610e51818360016112789092919063ffffffff16565b50505050565b600083604051602001610e6a9190613952565b6040516020818303038152906040528051906020012090506000610e9882600061115090919063ffffffff16565b90506000610ea68286611a18565b9050610ebe818560016112789092919063ffffffff16565b505050505050565b60606000610ed48484611b0e565b90508091505092915050565b60606000610ef884600161130e90919063ffffffff16565b90506000610f0684836114bf565b9050809250505092915050565b60606000610f2b84600161130e90919063ffffffff16565b90506000610f3984836117f4565b9050809250505092915050565b60606000610f548484611906565b90508091505092915050565b60606000610f7884600161130e90919063ffffffff16565b90506000610f868483611b97565b9050809250505092915050565b6000610f9f84846111fd565b9050610fb7818360016112789092919063ffffffff16565b50505050565b6000610fc98484611c20565b9050610fe1818360016112789092919063ffffffff16565b50505050565b60606000610fff84600161130e90919063ffffffff16565b9050600061100d848361198f565b9050809250505092915050565b60006110268484611a93565b905061103e818360016112789092919063ffffffff16565b50505050565b6060600061105c84600161130e90919063ffffffff16565b9050600061106a848361187d565b9050809250505092915050565b606060006110858484611b97565b90508091505092915050565b606060006110a984600161130e90919063ffffffff16565b905060006110b78483611b0e565b9050809250505092915050565b6000836040516020016110d79190613952565b604051602081830303815290604052805190602001209050600061110582600061115090919063ffffffff16565b905060006111138286611c20565b905061112b818560016112789092919063ffffffff16565b505050505050565b606061114982600161130e90919063ffffffff16565b9050919050565b60608260000160009054906101000a900473ffffffffffffffffffffffffffffffffffffffff1673ffffffffffffffffffffffffffffffffffffffff1663165a055c836040518263ffffffff1660e01b81526004016111af9190613982565b600060405180830381865afa1580156111cc573d6000803e3d6000fd5b505050506040513d6000823e3d601f19601f820116820180604052508101906111f59190613afe565b905092915050565b6060600061120b8484611c9b565b905060008061122560316339249c95605186600080611e20565b915091506000821461126c576040517f08c379a000000000000000000000000000000000000000000000000000000000815260040161126390613ba4565b60405180910390fd5b80935050505092915050565b8260000160009054906101000a900473ffffffffffffffffffffffffffffffffffffffff1673ffffffffffffffffffffffffffffffffffffffff1663cab3f93f83836040518363ffffffff1660e01b81526004016112d7929190613bfd565b600060405180830381600087803b1580156112f157600080fd5b505af1158015611305573d6000803e3d6000fd5b50505050505050565b60608260000160009054906101000a900473ffffffffffffffffffffffffffffffffffffffff1673ffffffffffffffffffffffffffffffffffffffff1663fab57404836040518263ffffffff1660e01b815260040161136d9190613c34565b600060405180830381865afa15801561138a573d6000803e3d6000fd5b505050506040513d6000823e3d601f19601f820116820180604052508101906113b39190613cc6565b905092915050565b606060006113c98484611f4b565b90506000806113e3603163e8decf35605186600080611e20565b915091506000821461142a576040517f08c379a000000000000000000000000000000000000000000000000000000000815260040161142190613ba4565b60405180910390fd5b6000611435826120fb565b90508094505050505092915050565b606060006114528484611c9b565b905060008061146c6031637e46f38d605186600080611e20565b91509150600082146114b3576040517f08c379a00000000000000000000000000000000000000000000000000000000081526004016114aa90613ba4565b60405180910390fd5b80935050505092915050565b606060006114cd8484611f4b565b90506000806114e7603163df67f0bf605186600080611e20565b915091506000821461152e576040517f08c379a000000000000000000000000000000000000000000000000000000000815260040161152590613ba4565b60405180910390fd5b6000611539826120fb565b90508094505050505092915050565b606060006115568484611c9b565b90506000806115706031637ca76d80605186600080611e20565b91509150600082146115b7576040517f08c379a00000000000000000000000000000000000000000000000000000000081526004016115ae90613ba4565b60405180910390fd5b80935050505092915050565b8460000160009054906101000a900473ffffffffffffffffffffffffffffffffffffffff1673ffffffffffffffffffffffffffffffffffffffff16638343d5e6858585856040518563ffffffff1660e01b81526004016116269493929190613e01565b600060405180830381600087803b15801561164057600080fd5b505af1158015611654573d6000803e3d6000fd5b505050505050505050565b8560000160009054906101000a900473ffffffffffffffffffffffffffffffffffffffff1673ffffffffffffffffffffffffffffffffffffffff1663c7235c8986868686866040518663ffffffff1660e01b81526004016116c4959493929190614003565b600060405180830381600087803b1580156116de57600080fd5b505af11580156116f2573d6000803e3d6000fd5b50505050505050505050565b6060600061170c8484611c9b565b905060008061172660316332ba6471605186600080611e20565b915091506000821461176d576040517f08c379a000000000000000000000000000000000000000000000000000000000815260040161176490613ba4565b60405180910390fd5b80935050505092915050565b606060006117878484611c9b565b90506000806117a160316324787e64605186600080611e20565b91509150600082146117e8576040517f08c379a00000000000000000000000000000000000000000000000000000000081526004016117df90613ba4565b60405180910390fd5b80935050505092915050565b606060006118028484611f4b565b905060008061181c603163737afaed605186600080611e20565b9150915060008214611863576040517f08c379a000000000000000000000000000000000000000000000000000000000815260040161185a90613ba4565b60405180910390fd5b600061186e826120fb565b90508094505050505092915050565b6060600061188b8484611f4b565b90506000806118a5603163ca857b2a605186600080611e20565b91509150600082146118ec576040517f08c379a00000000000000000000000000000000000000000000000000000000081526004016118e390613ba4565b60405180910390fd5b60006118f7826120fb565b90508094505050505092915050565b606060006119148484611f4b565b905060008061192e603163b99ff219605186600080611e20565b9150915060008214611975576040517f08c379a000000000000000000000000000000000000000000000000000000000815260040161196c90613ba4565b60405180910390fd5b6000611980826120fb565b90508094505050505092915050565b6060600061199d8484611f4b565b90506000806119b76031637fa5da6a605186600080611e20565b91509150600082146119fe576040517f08c379a00000000000000000000000000000000000000000000000000000000081526004016119f590613ba4565b60405180910390fd5b6000611a09826120fb565b90508094505050505092915050565b60606000611a268484611c9b565b9050600080611a40603163cc1bf2ec605186600080611e20565b9150915060008214611a87576040517f08c379a0000000000000000000000000000000000000000000000000000000008152600401611a7e90613ba4565b60405180910390fd5b80935050505092915050565b60606000611aa18484611c9b565b9050600080611abb60316362269916605186600080611e20565b9150915060008214611b02576040517f08c379a0000000000000000000000000000000000000000000000000000000008152600401611af990613ba4565b60405180910390fd5b80935050505092915050565b60606000611b1c8484611f4b565b9050600080611b36603163c817fb20605186600080611e20565b9150915060008214611b7d576040517f08c379a0000000000000000000000000000000000000000000000000000000008152600401611b7490613ba4565b60405180910390fd5b6000611b88826120fb565b90508094505050505092915050565b60606000611ba58484611f4b565b9050600080611bbf603163e0403b8e605186600080611e20565b9150915060008214611c06576040517f08c379a0000000000000000000000000000000000000000000000000000000008152600401611bfd90613ba4565b60405180910390fd5b6000611c11826120fb565b90508094505050505092915050565b60606000611c2e8484611c9b565b9050600080611c48603163faf1f8d8605186600080611e20565b9150915060008214611c8f576040517f08c379a0000000000000000000000000000000000000000000000000000000008152600401611c8690613ba4565b60405180910390fd5b80935050505092915050565b60606000611caa6101006121be565b9050611cc06002826121e590919063ffffffff16565b611cd48451826121e590919063ffffffff16565b60005b84518167ffffffffffffffff161015611db257611d1985600081518110611d0157611d0061404c565b5b602002602001015151836121e590919063ffffffff16565b60005b85600081518110611d3057611d2f61404c565b5b602002602001015151811015611d9e57611d91868367ffffffffffffffff1681518110611d6057611d5f61404c565b5b60200260200101518281518110611d7a57611d7961404c565b5b6020026020010151846121f590919063ffffffff16565b8080600101915050611d1c565b508080611daa906140be565b915050611cd7565b50611dc78351826121e590919063ffffffff16565b60005b8351811015611e0d57611e00848281518110611de957611de861404c565b5b6020026020010151836121f590919063ffffffff16565b8080600101915050611dca565b50611e178161224d565b91505092915050565b60006060611e4273fe00000000000000000000000000000000000005856122a6565b60008073fe0000000000000000000000000000000000000573ffffffffffffffffffffffffffffffffffffffff16898787611e7e576000611e81565b60015b8b8b8f604051602001611e9996959493929190614151565b604051602081830303815290604052604051611eb591906141f5565b600060405180830381855af49150503d8060008114611ef0576040519150601f19603f3d011682016040523d82523d6000602084013e611ef5565b606091505b509150915081611f31576040517f8a7db5bf00000000000000000000000000000000000000000000000000000000815260040160405180910390fd5b611f3a8161233c565b935093505050965096945050505050565b60606000611f5883612483565b90506000611f676101006121be565b9050611f7d6002826121e590919063ffffffff16565b611f918551826121e590919063ffffffff16565b60005b85518167ffffffffffffffff16101561206f57611fd686600081518110611fbe57611fbd61404c565b5b602002602001015151836121e590919063ffffffff16565b60005b86600081518110611fed57611fec61404c565b5b60200260200101515181101561205b5761204e878367ffffffffffffffff168151811061201d5761201c61404c565b5b602002602001015182815181106120375761203661404c565b5b6020026020010151846121f590919063ffffffff16565b8080600101915050611fd9565b508080612067906140be565b915050611f94565b506120848251826121e590919063ffffffff16565b60005b82518167ffffffffffffffff1610156120e7576120d4838267ffffffffffffffff16815181106120ba576120b961404c565b5b602002602001015160ff168361254690919063ffffffff16565b80806120df906140be565b915050612087565b506120f18161224d565b9250505092915050565b606060008061210b846000612556565b9150915060008267ffffffffffffffff81111561212b5761212a612f60565b5b6040519080825280602002602001820160405280156121595781602001602082028036833780820191505090505b50905060005b838110156121b25760008061217488866125d7565b915091508184848151811061218c5761218b61404c565b5b602002602001019060070b908160070b815250508094505050808060010191505061215f565b50809350505050919050565b6121c6612ef7565b6121d4816000015183612669565b506000816020018181525050919050565b6121f1826004836126e2565b5050565b60008160070b126122115761220c826000836126f2565b612249565b612248826001837fffffffffffffffffffffffffffffffffffffffffffffffffffffffffffffffff612243919061420c565b6126f2565b5b5050565b60606000826020015114612296576040517f08c379a000000000000000000000000000000000000000000000000000000000815260040161228d906142b8565b60405180910390fd5b8160000151600001519050919050565b6000479050818110156122f25780826040517f8f0f42060000000000000000000000000000000000000000000000000000000081526004016122e99291906142d8565b60405180910390fd5b60006122fd8461289b565b905080612336576040517f64d954b000000000000000000000000000000000000000000000000000000000815260040160405180910390fd5b50505050565b600060606000806000858060200190518101906123599190614363565b925092509250600067ffffffffffffffff168267ffffffffffffffff16036123bb5760008151146123b6576040517f0e74990700000000000000000000000000000000000000000000000000000000815260040160405180910390fd5b612475565b605167ffffffffffffffff168267ffffffffffffffff1614806123f25750607167ffffffffffffffff168267ffffffffffffffff16145b15612437576000815103612432576040517f0e74990700000000000000000000000000000000000000000000000000000000815260040160405180910390fd5b612474565b816040517ff1f6bced00000000000000000000000000000000000000000000000000000000815260040161246b91906143d2565b60405180910390fd5b5b828194509450505050915091565b6060600080612493846000612556565b9150915060008267ffffffffffffffff8111156124b3576124b2612f60565b5b6040519080825280602002602001820160405280156124e15781602001602082028036833780820191505090505b50905060005b8381101561253a576000806124fc88866128b1565b91509150818484815181106125145761251361404c565b5b602002602001019060ff16908160ff1681525050809450505080806001019150506124e7565b50809350505050919050565b612552826000836126f2565b5050565b6000806000806125668686612932565b8167ffffffffffffffff169150809750819350829450505050600460ff168260ff16146125c8576040517f08c379a00000000000000000000000000000000000000000000000000000000081526004016125bf90614439565b60405180910390fd5b80859350935050509250929050565b6000806000806125e78686612932565b8167ffffffffffffffff169150809750819350829450505050600160ff168260ff16148061261b5750600060ff168260ff16145b61265a576040517f08c379a0000000000000000000000000000000000000000000000000000000008152600401612651906144cb565b60405180910390fd5b80859350935050509250929050565b612671612f17565b6000602083612680919061451a565b146126ac57602082612692919061451a565b602061269e919061454b565b826126a9919061457f565b91505b8183602001818152505060405180845260008152828101602001818110156126d357600080fd5b80604052505082905092915050565b6126ed8383836126f2565b505050565b60178167ffffffffffffffff161161272d576127278160058460ff16901b60ff16178460000151612b2490919063ffffffff16565b50612896565b60ff8167ffffffffffffffff161161278b57612760601860058460ff16901b178460000151612b2490919063ffffffff16565b506127858167ffffffffffffffff1660018560000151612b8e9092919063ffffffff16565b50612895565b61ffff8167ffffffffffffffff16116127ea576127bf601960058460ff16901b178460000151612b2490919063ffffffff16565b506127e48167ffffffffffffffff1660028560000151612b8e9092919063ffffffff16565b50612894565b63ffffffff8167ffffffffffffffff161161284b57612820601a60058460ff16901b178460000151612b2490919063ffffffff16565b506128458167ffffffffffffffff1660048560000151612b8e9092919063ffffffff16565b50612893565b61286c601b60058460ff16901b178460000151612b2490919063ffffffff16565b506128918167ffffffffffffffff1660088560000151612b8e9092919063ffffffff16565b505b5b5b5b505050565b600080823f90506000801b811415915050919050565b6000806000806128c18686612932565b8167ffffffffffffffff169150809750819350829450505050600060ff168260ff1614612923576040517f08c379a000000000000000000000000000000000000000000000000000000000815260040161291a90614625565b60405180910390fd5b80859350935050509250929050565b6000806000806129428686612c1b565b9050600185612951919061457f565b94506000600560e0831660ff16901c90506000601f83169050601c8160ff16106129b0576040517f08c379a00000000000000000000000000000000000000000000000000000000081526004016129a7906146b7565b60405180910390fd5b60188160ff1610156129d3578181888160ff169150955095509550505050612b1d565b60188160ff1603612a5a5760006129ea8989612c1b565b90506001886129f9919061457f565b975060188160ff161015612a42576040517f08c379a0000000000000000000000000000000000000000000000000000000008152600401612a3990614723565b60405180910390fd5b8281898160ff16915096509650965050505050612b1d565b60198160ff1603612a9b576000612a718989612c96565b9050600288612a80919061457f565b97508281898161ffff16915096509650965050505050612b1d565b601a8160ff1603612ade576000612ab28989612d00565b9050600488612ac1919061457f565b97508281898163ffffffff16915096509650965050505050612b1d565b601b8160ff1614612af257612af1614743565b5b6000612afe8989612d6a565b9050600888612b0d919061457f565b9750828189965096509650505050505b9250925092565b612b2c612f17565b600083600001515190506000600182612b45919061457f565b905084602001518210612b6957612b6885600283612b639190614772565b612dd4565b5b84516020838201018581538151831115612b81578282525b5050849250505092915050565b612b96612f17565b6000846000015151905060008184612bae919061457f565b90508560200151811115612bd357612bd286600283612bcd9190614772565b612dd4565b5b6000600185610100612be591906148e7565b612bef919061454b565b905086518281018783198251161781528151841115612c0c578382525b50508693505050509392505050565b6000600182612c2a919061457f565b83511015612c6d576040517f08c379a0000000000000000000000000000000000000000000000000000000008152600401612c649061497e565b60405180910390fd5b828281518110612c8057612c7f61404c565b5b602001015160f81c60f81b60f81c905092915050565b6000600282612ca5919061457f565b83511015612ce8576040517f08c379a0000000000000000000000000000000000000000000000000000000008152600401612cdf9061497e565b60405180910390fd5b60008260200184015190508060f01c91505092915050565b6000600482612d0f919061457f565b83511015612d52576040517f08c379a0000000000000000000000000000000000000000000000000000000008152600401612d499061497e565b60405180910390fd5b60008260200184015190508060e01c91505092915050565b6000600882612d79919061457f565b83511015612dbc576040517f08c379a0000000000000000000000000000000000000000000000000000000008152600401612db39061497e565b60405180910390fd5b60008260200184015190508060c01c91505092915050565b600082600001519050612de78383612669565b50612df28382612df8565b50505050565b612e00612f17565b612e0c83838451612e14565b905092915050565b612e1c612f17565b8251821115612e2a57600080fd5b6000846000015151905060008382612e42919061457f565b90508560200151811115612e6757612e6686600283612e619190614772565b612dd4565b5b60008087518051856020830101935080851115612e82578482525b60208901925050505b60208610612ec95780518252602082612ea4919061457f565b9150602081612eb3919061457f565b9050602086612ec2919061454b565b9550612e8b565b60006001876020036101000a0390508019825116818451168181178552505050879450505050509392505050565b6040518060400160405280612f0a612f17565b8152602001600081525090565b604051806040016040528060608152602001600081525090565b6000604051905090565b600080fd5b600080fd5b600080fd5b600080fd5b6000601f19601f8301169050919050565b7f4e487b7100000000000000000000000000000000000000000000000000000000600052604160045260246000fd5b612f9882612f4f565b810181811067ffffffffffffffff82111715612fb757612fb6612f60565b5b80604052505050565b6000612fca612f31565b9050612fd68282612f8f565b919050565b600067ffffffffffffffff821115612ff657612ff5612f60565b5b612fff82612f4f565b9050602081019050919050565b82818337600083830152505050565b600061302e61302984612fdb565b612fc0565b90508281526020810184848401111561304a57613049612f4a565b5b61305584828561300c565b509392505050565b600082601f83011261307257613071612f45565b5b813561308284826020860161301b565b91505092915050565b600067ffffffffffffffff8211156130a6576130a5612f60565b5b602082029050602081019050919050565b600080fd5b60008160070b9050919050565b6130d2816130bc565b81146130dd57600080fd5b50565b6000813590506130ef816130c9565b92915050565b60006131086131038461308b565b612fc0565b9050808382526020820190506020840283018581111561312b5761312a6130b7565b5b835b81811015613154578061314088826130e0565b84526020840193505060208101905061312d565b5050509392505050565b600082601f83011261317357613172612f45565b5b81356131838482602086016130f5565b91505092915050565b6000806000606084860312156131a5576131a4612f3b565b5b600084013567ffffffffffffffff8111156131c3576131c2612f40565b5b6131cf8682870161305d565b935050602084013567ffffffffffffffff8111156131f0576131ef612f40565b5b6131fc8682870161315e565b925050604084013567ffffffffffffffff81111561321d5761321c612f40565b5b6132298682870161305d565b9150509250925092565b600073ffffffffffffffffffffffffffffffffffffffff82169050919050565b600061325e82613233565b9050919050565b61326e81613253565b82525050565b60006020820190506132896000830184613265565b92915050565b600067ffffffffffffffff8211156132aa576132a9612f60565b5b602082029050602081019050919050565b60006132ce6132c98461328f565b612fc0565b905080838252602082019050602084028301858111156132f1576132f06130b7565b5b835b8181101561333857803567ffffffffffffffff81111561331657613315612f45565b5b808601613323898261315e565b855260208501945050506020810190506132f3565b5050509392505050565b600082601f83011261335757613356612f45565b5b81356133678482602086016132bb565b91505092915050565b6000806040838503121561338757613386612f3b565b5b600083013567ffffffffffffffff8111156133a5576133a4612f40565b5b6133b18582860161305d565b925050602083013567ffffffffffffffff8111156133d2576133d1612f40565b5b6133de85828601613342565b9150509250929050565b600081519050919050565b600082825260208201905092915050565b6000819050602082019050919050565b61341d816130bc565b82525050565b600061342f8383613414565b60208301905092915050565b6000602082019050919050565b6000613453826133e8565b61345d81856133f3565b935061346883613404565b8060005b838110156134995781516134808882613423565b975061348b8361343b565b92505060018101905061346c565b5085935050505092915050565b600060208201905081810360008301526134c08184613448565b905092915050565b6000806000606084860312156134e1576134e0612f3b565b5b600084013567ffffffffffffffff8111156134ff576134fe612f40565b5b61350b86828701613342565b935050602084013567ffffffffffffffff81111561352c5761352b612f40565b5b6135388682870161315e565b925050604084013567ffffffffffffffff81111561355957613558612f40565b5b6135658682870161305d565b9150509250925092565b600067ffffffffffffffff82111561358a57613589612f60565b5b61359382612f4f565b9050602081019050919050565b60006135b36135ae8461356f565b612fc0565b9050828152602081018484840111156135cf576135ce612f4a565b5b6135da84828561300c565b509392505050565b600082601f8301126135f7576135f6612f45565b5b81356136078482602086016135a0565b91505092915050565b6000806040838503121561362757613626612f3b565b5b600083013567ffffffffffffffff81111561364557613644612f40565b5b61365185828601613342565b925050602083013567ffffffffffffffff81111561367257613671612f40565b5b61367e858286016135e2565b9150509250929050565b600080fd5b60008083601f8401126136a3576136a2612f45565b5b8235905067ffffffffffffffff8111156136c0576136bf613688565b5b6020830191508360208202830111156136dc576136db6130b7565b5b9250929050565b600781106136f057600080fd5b50565b600081359050613702816136e3565b92915050565b60008083601f84011261371e5761371d612f45565b5b8235905067ffffffffffffffff81111561373b5761373a613688565b5b602083019150836020820283011115613757576137566130b7565b5b9250929050565b6000806000806000806080878903121561377b5761377a612f3b565b5b600087013567ffffffffffffffff81111561379957613798612f40565b5b6137a589828a0161305d565b965050602087013567ffffffffffffffff8111156137c6576137c5612f40565b5b6137d289828a0161368d565b955095505060406137e589828a016136f3565b935050606087013567ffffffffffffffff81111561380657613805612f40565b5b61381289828a01613708565b92509250509295509295509295565b60006020828403121561383757613836612f3b565b5b600082013567ffffffffffffffff81111561385557613854612f40565b5b6138618482850161305d565b91505092915050565b600081519050919050565b600082825260208201905092915050565b60005b838110156138a4578082015181840152602081019050613889565b60008484015250505050565b60006138bb8261386a565b6138c58185613875565b93506138d5818560208601613886565b6138de81612f4f565b840191505092915050565b6000602082019050818103600083015261390381846138b0565b905092915050565b600081519050919050565b600081905092915050565b600061392c8261390b565b6139368185613916565b9350613946818560208601613886565b80840191505092915050565b600061395e8284613921565b915081905092915050565b6000819050919050565b61397c81613969565b82525050565b60006020820190506139976000830184613973565b92915050565b6000815190506139ac816130c9565b92915050565b60006139c56139c08461308b565b612fc0565b905080838252602082019050602084028301858111156139e8576139e76130b7565b5b835b81811015613a1157806139fd888261399d565b8452602084019350506020810190506139ea565b5050509392505050565b600082601f830112613a3057613a2f612f45565b5b8151613a408482602086016139b2565b91505092915050565b6000613a5c613a578461328f565b612fc0565b90508083825260208201905060208402830185811115613a7f57613a7e6130b7565b5b835b81811015613ac657805167ffffffffffffffff811115613aa457613aa3612f45565b5b808601613ab18982613a1b565b85526020850194505050602081019050613a81565b5050509392505050565b600082601f830112613ae557613ae4612f45565b5b8151613af5848260208601613a49565b91505092915050565b600060208284031215613b1457613b13612f3b565b5b600082015167ffffffffffffffff811115613b3257613b31612f40565b5b613b3e84828501613ad0565b91505092915050565b600082825260208201905092915050565b7f4d616368696e65206c6561726e696e67206163746f72206661696c6564000000600082015250565b6000613b8e601d83613b47565b9150613b9982613b58565b602082019050919050565b60006020820190508181036000830152613bbd81613b81565b9050919050565b6000613bcf8261390b565b613bd98185613b47565b9350613be9818560208601613886565b613bf281612f4f565b840191505092915050565b60006040820190508181036000830152613c1781856138b0565b90508181036020830152613c2b8184613bc4565b90509392505050565b60006020820190508181036000830152613c4e8184613bc4565b905092915050565b6000613c69613c648461356f565b612fc0565b905082815260208101848484011115613c8557613c84612f4a565b5b613c90848285613886565b509392505050565b600082601f830112613cad57613cac612f45565b5b8151613cbd848260208601613c56565b91505092915050565b600060208284031215613cdc57613cdb612f3b565b5b600082015167ffffffffffffffff811115613cfa57613cf9612f40565b5b613d0684828501613c98565b91505092915050565b600082825260208201905092915050565b600080fd5b82818337505050565b6000613d3a8385613d0f565b93507f07ffffffffffffffffffffffffffffffffffffffffffffffffffffffffffffff831115613d6d57613d6c613d20565b5b602083029250613d7e838584613d25565b82840190509392505050565b7f4e487b7100000000000000000000000000000000000000000000000000000000600052602160045260246000fd5b60078110613dca57613dc9613d8a565b5b50565b6000819050613ddb82613db9565b919050565b6000613deb82613dcd565b9050919050565b613dfb81613de0565b82525050565b6000606082019050613e166000830187613973565b8181036020830152613e29818587613d2e565b9050613e386040830184613df2565b95945050505050565b600082825260208201905092915050565b6000819050919050565b600082825260208201905092915050565b6000819050919050565b6000613e8660208401846130e0565b905092915050565b6000602082019050919050565b6000613ea78385613e5c565b9350613eb282613e6d565b8060005b85811015613eeb57613ec88284613e77565b613ed28882613423565b9750613edd83613e8e565b925050600181019050613eb6565b5085925050509392505050565b6000613f05848484613e9b565b90509392505050565b600080fd5b600080fd5b600080fd5b60008083356001602003843603038112613f3a57613f39613f18565b5b83810192508235915060208301925067ffffffffffffffff821115613f6257613f61613f0e565b5b602082023603831315613f7857613f77613f13565b5b509250929050565b6000602082019050919050565b6000613f998385613e41565b935083602084028501613fab84613e52565b8060005b87811015613ff1578484038952613fc68284613f1d565b613fd1868284613ef8565b9550613fdc84613f80565b935060208b019a505050600181019050613faf565b50829750879450505050509392505050565b60006060820190506140186000830188613973565b818103602083015261402b818688613d2e565b90508181036040830152614040818486613f8d565b90509695505050505050565b7f4e487b7100000000000000000000000000000000000000000000000000000000600052603260045260246000fd5b7f4e487b7100000000000000000000000000000000000000000000000000000000600052601160045260246000fd5b600067ffffffffffffffff82169050919050565b60006140c9826140aa565b915067ffffffffffffffff82036140e3576140e261407b565b5b600182019050919050565b6140f7816140aa565b82525050565b6000819050919050565b614110816140fd565b82525050565b6000819050919050565b600061413b614136614131846140aa565b614116565b6140aa565b9050919050565b61414b81614120565b82525050565b600060c08201905061416660008301896140ee565b6141736020830188614107565b61418060408301876140ee565b61418d60608301866140ee565b818103608083015261419f81856138b0565b90506141ae60a0830184614142565b979650505050505050565b600081905092915050565b60006141cf8261386a565b6141d981856141b9565b93506141e9818560208601613886565b80840191505092915050565b600061420182846141c4565b915081905092915050565b6000614217826130bc565b9150614222836130bc565b92508282039050677fffffffffffffff81137fffffffffffffffffffffffffffffffffffffffffffffffff8000000000000000821217156142665761426561407b565b5b92915050565b7f496e76616c69642043424f520000000000000000000000000000000000000000600082015250565b60006142a2600c83613b47565b91506142ad8261426c565b602082019050919050565b600060208201905081810360008301526142d181614295565b9050919050565b60006040820190506142ed6000830185614107565b6142fa6020830184614107565b9392505050565b6000819050919050565b61431481614301565b811461431f57600080fd5b50565b6000815190506143318161430b565b92915050565b614340816140aa565b811461434b57600080fd5b50565b60008151905061435d81614337565b92915050565b60008060006060848603121561437c5761437b612f3b565b5b600061438a86828701614322565b935050602061439b8682870161434e565b925050604084015167ffffffffffffffff8111156143bc576143bb612f40565b5b6143c886828701613c98565b9150509250925092565b60006020820190506143e760008301846140ee565b92915050565b7f696e76616c6964206d616a20286578706563746564204d616a41727261792900600082015250565b6000614423601f83613b47565b915061442e826143ed565b602082019050919050565b6000602082019050818103600083015261445281614416565b9050919050565b7f696e76616c6964206d616a20286578706563746564204d616a5369676e65644960008201527f6e74206f72204d616a556e7369676e6564496e74290000000000000000000000602082015250565b60006144b5603583613b47565b91506144c082614459565b604082019050919050565b600060208201905081810360008301526144e4816144a8565b9050919050565b7f4e487b7100000000000000000000000000000000000000000000000000000000600052601260045260246000fd5b6000614525826140fd565b9150614530836140fd565b9250826145405761453f6144eb565b5b828206905092915050565b6000614556826140fd565b9150614561836140fd565b92508282039050818111156145795761457861407b565b5b92915050565b600061458a826140fd565b9150614595836140fd565b92508282019050808211156145ad576145ac61407b565b5b92915050565b7f696e76616c6964206d616a20286578706563746564204d616a556e7369676e6560008201527f64496e7429000000000000000000000000000000000000000000000000000000602082015250565b600061460f602583613b47565b915061461a826145b3565b604082019050919050565b6000602082019050818103600083015261463e81614602565b9050919050565b7f63616e6e6f742068616e646c652068656164657273207769746820657874726160008201527f203e203237000000000000000000000000000000000000000000000000000000602082015250565b60006146a1602583613b47565b91506146ac82614645565b604082019050919050565b600060208201905081810360008301526146d081614694565b9050919050565b7f696e76616c69642063626f720000000000000000000000000000000000000000600082015250565b600061470d600c83613b47565b9150614718826146d7565b602082019050919050565b6000602082019050818103600083015261473c81614700565b9050919050565b7f4e487b7100000000000000000000000000000000000000000000000000000000600052600160045260246000fd5b600061477d826140fd565b9150614788836140fd565b9250828202614796816140fd565b915082820484148315176147ad576147ac61407b565b5b5092915050565b60008160011c9050919050565b6000808291508390505b600185111561480b578086048111156147e7576147e661407b565b5b60018516156147f65780820291505b8081029050614804856147b4565b94506147cb565b94509492505050565b60008261482457600190506148e0565b8161483257600090506148e0565b8160018114614848576002811461485257614881565b60019150506148e0565b60ff8411156148645761486361407b565b5b8360020a91508482111561487b5761487a61407b565b5b506148e0565b5060208310610133831016604e8410600b84101617156148b65782820a9050838111156148b1576148b061407b565b5b6148e0565b6148c384848460016147c1565b925090508184048111156148da576148d961407b565b5b81810290505b9392505050565b60006148f2826140fd565b91506148fd836140fd565b925061492a7fffffffffffffffffffffffffffffffffffffffffffffffffffffffffffffffff8484614814565b905092915050565b7f736c6963696e67206f7574206f662072616e6765000000000000000000000000600082015250565b6000614968601483613b47565b915061497382614932565b602082019050919050565b600060208201905081810360008301526149978161495b565b905091905056fea26469706673582212203de56c4090aef04460e1bb42b1220092b87075eeb78a8790b6544f8245c1755964736f6c63430008180033",
  "linkReferences": {},
  "deployedLinkReferences": {}
}