{
  "_format": "hh-sol-artifact-1",
  "contractName": "ML",
  "sourceName": "contracts/ML.sol",
  "abi": [
    {
      "inputs": [
        {
          "internalType": "address",
          "name": "_datastorage",
          "type": "address"
        },
        {
          "internalType": "address",
          "name": "_modelstorage",
          "type": "address"
        }
      ],
      "stateMutability": "nonpayable",
      "type": "constructor"
    },
    {
      "inputs": [],
      "name": "ActorNotFound",
      "type": "error"
    },
    {
      "inputs": [],
      "name": "FailToCallActor",
      "type": "error"
    },
    {
      "inputs": [
        {
          "internalType": "uint64",
          "name": "",
          "type": "uint64"
        }
      ],
      "name": "InvalidCodec",
      "type": "error"
    },
    {
      "inputs": [],
      "name": "InvalidResponseLength",
      "type": "error"
    },
    {
      "inputs": [
        {
          "internalType": "uint256",
          "name": "balance",
          "type": "uint256"
        },
        {
          "internalType": "uint256",
          "name": "value",
          "type": "uint256"
        }
      ],
      "name": "NotEnoughBalance",
      "type": "error"
    },
    {
      "inputs": [
        {
          "internalType": "string",
          "name": "_schemaName",
          "type": "string"
        },
        {
          "internalType": "bytes32[]",
          "name": "columns",
          "type": "bytes32[]"
        },
        {
          "internalType": "enum IDataStorage.Category",
          "name": "category",
          "type": "uint8"
        },
        {
          "internalType": "int64[][]",
          "name": "data",
          "type": "int64[][]"
        }
      ],
      "name": "addOnChainData",
      "outputs": [],
      "stateMutability": "payable",
      "type": "function"
    },
    {
      "inputs": [],
      "name": "datastorage",
      "outputs": [
        {
          "internalType": "address payable",
          "name": "dataStorageAddress",
          "type": "address"
        }
      ],
      "stateMutability": "view",
      "type": "function"
    },
    {
      "inputs": [
        {
          "internalType": "bytes",
          "name": "cid",
          "type": "bytes"
        }
      ],
      "name": "extractCidData",
      "outputs": [
        {
          "internalType": "int64[][]",
          "name": "",
          "type": "int64[][]"
        }
      ],
      "stateMutability": "nonpayable",
      "type": "function"
    },
    {
      "inputs": [
        {
          "internalType": "string",
          "name": "_modelName",
          "type": "string"
        }
      ],
      "name": "getModel",
      "outputs": [
        {
          "internalType": "bytes",
          "name": "",
          "type": "bytes"
        }
      ],
      "stateMutability": "view",
      "type": "function"
    },
    {
      "inputs": [],
      "name": "modelstorage",
      "outputs": [
        {
          "internalType": "address payable",
          "name": "modelStorageAddress",
          "type": "address"
        }
      ],
      "stateMutability": "view",
      "type": "function"
    },
    {
      "inputs": [
        {
          "internalType": "int64[][]",
          "name": "data",
          "type": "int64[][]"
        },
        {
          "internalType": "bytes",
          "name": "model",
          "type": "bytes"
        }
      ],
      "name": "predictDecisionTreeClassificationOffChainModel",
      "outputs": [
        {
          "internalType": "int64[]",
          "name": "",
          "type": "int64[]"
        }
      ],
      "stateMutability": "nonpayable",
      "type": "function"
    },
    {
      "inputs": [
        {
          "internalType": "string",
          "name": "_modelName",
          "type": "string"
        },
        {
          "internalType": "int64[][]",
          "name": "data",
          "type": "int64[][]"
        }
      ],
      "name": "predictDecisionTreeClassificationOnchainModel",
      "outputs": [
        {
          "internalType": "int64[]",
          "name": "",
          "type": "int64[]"
        }
      ],
      "stateMutability": "nonpayable",
      "type": "function"
    },
    {
      "inputs": [
        {
          "internalType": "int64[][]",
          "name": "data",
          "type": "int64[][]"
        },
        {
          "internalType": "bytes",
          "name": "model",
          "type": "bytes"
        }
      ],
      "name": "predictDecisionTreeRegressionOffChainModel",
      "outputs": [
        {
          "internalType": "int64[]",
          "name": "",
          "type": "int64[]"
        }
      ],
      "stateMutability": "nonpayable",
      "type": "function"
    },
    {
      "inputs": [
        {
          "internalType": "string",
          "name": "_modelName",
          "type": "string"
        },
        {
          "internalType": "int64[][]",
          "name": "data",
          "type": "int64[][]"
        }
      ],
      "name": "predictDecisionTreeRegressionOnchainModel",
      "outputs": [
        {
          "internalType": "int64[]",
          "name": "",
          "type": "int64[]"
        }
      ],
      "stateMutability": "nonpayable",
      "type": "function"
    },
    {
      "inputs": [
        {
          "internalType": "int64[][]",
          "name": "data",
          "type": "int64[][]"
        },
        {
          "internalType": "bytes",
          "name": "model",
          "type": "bytes"
        }
      ],
      "name": "predictKNNClassificationOffChainModel",
      "outputs": [
        {
          "internalType": "int64[]",
          "name": "",
          "type": "int64[]"
        }
      ],
      "stateMutability": "nonpayable",
      "type": "function"
    },
    {
      "inputs": [
        {
          "internalType": "string",
          "name": "_modelName",
          "type": "string"
        },
        {
          "internalType": "int64[][]",
          "name": "data",
          "type": "int64[][]"
        }
      ],
      "name": "predictKNNClassificationOnchainModel",
      "outputs": [
        {
          "internalType": "int64[]",
          "name": "",
          "type": "int64[]"
        }
      ],
      "stateMutability": "nonpayable",
      "type": "function"
    },
    {
      "inputs": [
        {
          "internalType": "int64[][]",
          "name": "data",
          "type": "int64[][]"
        },
        {
          "internalType": "bytes",
          "name": "model",
          "type": "bytes"
        }
      ],
      "name": "predictKNNRegressionOffChainModel",
      "outputs": [
        {
          "internalType": "int64[]",
          "name": "",
          "type": "int64[]"
        }
      ],
      "stateMutability": "nonpayable",
      "type": "function"
    },
    {
      "inputs": [
        {
          "internalType": "string",
          "name": "_modelName",
          "type": "string"
        },
        {
          "internalType": "int64[][]",
          "name": "data",
          "type": "int64[][]"
        }
      ],
      "name": "predictKNNRegressionOnchainModel",
      "outputs": [
        {
          "internalType": "int64[]",
          "name": "",
          "type": "int64[]"
        }
      ],
      "stateMutability": "nonpayable",
      "type": "function"
    },
    {
      "inputs": [
        {
          "internalType": "int64[][]",
          "name": "data",
          "type": "int64[][]"
        },
        {
          "internalType": "bytes",
          "name": "model",
          "type": "bytes"
        }
      ],
      "name": "predictLinearRegressionOffChainModel",
      "outputs": [
        {
          "internalType": "int64[]",
          "name": "",
          "type": "int64[]"
        }
      ],
      "stateMutability": "nonpayable",
      "type": "function"
    },
    {
      "inputs": [
        {
          "internalType": "string",
          "name": "_modelName",
          "type": "string"
        },
        {
          "internalType": "int64[][]",
          "name": "data",
          "type": "int64[][]"
        }
      ],
      "name": "predictLinearRegressionOnchainModel",
      "outputs": [
        {
          "internalType": "int64[]",
          "name": "",
          "type": "int64[]"
        }
      ],
      "stateMutability": "nonpayable",
      "type": "function"
    },
    {
      "inputs": [
        {
          "internalType": "int64[][]",
          "name": "data",
          "type": "int64[][]"
        },
        {
          "internalType": "bytes",
          "name": "model",
          "type": "bytes"
        }
      ],
      "name": "predictLogisticRegressionOffChainModel",
      "outputs": [
        {
          "internalType": "int64[]",
          "name": "",
          "type": "int64[]"
        }
      ],
      "stateMutability": "nonpayable",
      "type": "function"
    },
    {
      "inputs": [
        {
          "internalType": "string",
          "name": "_modelName",
          "type": "string"
        },
        {
          "internalType": "int64[][]",
          "name": "data",
          "type": "int64[][]"
        }
      ],
      "name": "predictLogisticRegressionOnchainModel",
      "outputs": [
        {
          "internalType": "int64[]",
          "name": "",
          "type": "int64[]"
        }
      ],
      "stateMutability": "nonpayable",
      "type": "function"
    },
    {
      "inputs": [
        {
          "internalType": "int64[][]",
          "name": "data",
          "type": "int64[][]"
        },
        {
          "internalType": "bytes",
          "name": "model",
          "type": "bytes"
        }
      ],
      "name": "predictRandomForestClassificationOffChainModel",
      "outputs": [
        {
          "internalType": "int64[]",
          "name": "",
          "type": "int64[]"
        }
      ],
      "stateMutability": "nonpayable",
      "type": "function"
    },
    {
      "inputs": [
        {
          "internalType": "string",
          "name": "_modelName",
          "type": "string"
        },
        {
          "internalType": "int64[][]",
          "name": "data",
          "type": "int64[][]"
        }
      ],
      "name": "predictRandomForestClassificationOnchainModel",
      "outputs": [
        {
          "internalType": "int64[]",
          "name": "",
          "type": "int64[]"
        }
      ],
      "stateMutability": "nonpayable",
      "type": "function"
    },
    {
      "inputs": [
        {
          "internalType": "int64[][]",
          "name": "data",
          "type": "int64[][]"
        },
        {
          "internalType": "bytes",
          "name": "model",
          "type": "bytes"
        }
      ],
      "name": "predictRandomForestRegressionOffChainModel",
      "outputs": [
        {
          "internalType": "int64[]",
          "name": "",
          "type": "int64[]"
        }
      ],
      "stateMutability": "nonpayable",
      "type": "function"
    },
    {
      "inputs": [
        {
          "internalType": "string",
          "name": "_modelName",
          "type": "string"
        },
        {
          "internalType": "int64[][]",
          "name": "data",
          "type": "int64[][]"
        }
      ],
      "name": "predictRandomForestRegressionOnchainModel",
      "outputs": [
        {
          "internalType": "int64[]",
          "name": "",
          "type": "int64[]"
        }
      ],
      "stateMutability": "nonpayable",
      "type": "function"
    },
    {
      "inputs": [
        {
          "internalType": "int64[][]",
          "name": "data",
          "type": "int64[][]"
        },
        {
          "internalType": "int64[]",
          "name": "labels",
          "type": "int64[]"
        },
        {
          "internalType": "string",
          "name": "modelName",
          "type": "string"
        }
      ],
      "name": "trainDecisionTreeClassificationOffChainData",
      "outputs": [],
      "stateMutability": "nonpayable",
      "type": "function"
    },
    {
      "inputs": [
        {
          "internalType": "string",
          "name": "_schemaName",
          "type": "string"
        },
        {
          "internalType": "int64[]",
          "name": "labels",
          "type": "int64[]"
        },
        {
          "internalType": "string",
          "name": "modelName",
          "type": "string"
        }
      ],
      "name": "trainDecisionTreeClassificationOnChainData",
      "outputs": [],
      "stateMutability": "nonpayable",
      "type": "function"
    },
    {
      "inputs": [
        {
          "internalType": "int64[][]",
          "name": "data",
          "type": "int64[][]"
        },
        {
          "internalType": "int64[]",
          "name": "labels",
          "type": "int64[]"
        },
        {
          "internalType": "string",
          "name": "modelName",
          "type": "string"
        }
      ],
      "name": "trainDecisionTreeRegressionOffChainData",
      "outputs": [],
      "stateMutability": "nonpayable",
      "type": "function"
    },
    {
      "inputs": [
        {
          "internalType": "string",
          "name": "_schemaName",
          "type": "string"
        },
        {
          "internalType": "int64[]",
          "name": "labels",
          "type": "int64[]"
        },
        {
          "internalType": "string",
          "name": "modelName",
          "type": "string"
        }
      ],
      "name": "trainDecisionTreeRegressionOnChainData",
      "outputs": [],
      "stateMutability": "nonpayable",
      "type": "function"
    },
    {
      "inputs": [
        {
          "internalType": "int64[][]",
          "name": "data",
          "type": "int64[][]"
        },
        {
          "internalType": "int64[]",
          "name": "labels",
          "type": "int64[]"
        },
        {
          "internalType": "string",
          "name": "modelName",
          "type": "string"
        }
      ],
      "name": "trainKNNClassificationOffChainData",
      "outputs": [],
      "stateMutability": "nonpayable",
      "type": "function"
    },
    {
      "inputs": [
        {
          "internalType": "string",
          "name": "_schemaName",
          "type": "string"
        },
        {
          "internalType": "int64[]",
          "name": "labels",
          "type": "int64[]"
        },
        {
          "internalType": "string",
          "name": "modelName",
          "type": "string"
        }
      ],
      "name": "trainKNNClassificationOnChainData",
      "outputs": [],
      "stateMutability": "nonpayable",
      "type": "function"
    },
    {
      "inputs": [
        {
          "internalType": "int64[][]",
          "name": "data",
          "type": "int64[][]"
        },
        {
          "internalType": "int64[]",
          "name": "labels",
          "type": "int64[]"
        },
        {
          "internalType": "string",
          "name": "modelName",
          "type": "string"
        }
      ],
      "name": "trainKNNRegressionOffChainData",
      "outputs": [],
      "stateMutability": "nonpayable",
      "type": "function"
    },
    {
      "inputs": [
        {
          "internalType": "string",
          "name": "_schemaName",
          "type": "string"
        },
        {
          "internalType": "int64[]",
          "name": "labels",
          "type": "int64[]"
        },
        {
          "internalType": "string",
          "name": "modelName",
          "type": "string"
        }
      ],
      "name": "trainKNNRegressionOnChainData",
      "outputs": [],
      "stateMutability": "nonpayable",
      "type": "function"
    },
    {
      "inputs": [
        {
          "internalType": "int64[][]",
          "name": "data",
          "type": "int64[][]"
        },
        {
          "internalType": "int64[]",
          "name": "labels",
          "type": "int64[]"
        },
        {
          "internalType": "string",
          "name": "modelName",
          "type": "string"
        }
      ],
      "name": "trainLinearRegressionOffChainData",
      "outputs": [],
      "stateMutability": "nonpayable",
      "type": "function"
    },
    {
      "inputs": [
        {
          "internalType": "string",
          "name": "_schemaName",
          "type": "string"
        },
        {
          "internalType": "int64[]",
          "name": "labels",
          "type": "int64[]"
        },
        {
          "internalType": "string",
          "name": "modelName",
          "type": "string"
        }
      ],
      "name": "trainLinearRegressionOnChainData",
      "outputs": [],
      "stateMutability": "nonpayable",
      "type": "function"
    },
    {
      "inputs": [
        {
          "internalType": "int64[][]",
          "name": "data",
          "type": "int64[][]"
        },
        {
          "internalType": "int64[]",
          "name": "labels",
          "type": "int64[]"
        },
        {
          "internalType": "string",
          "name": "modelName",
          "type": "string"
        }
      ],
      "name": "trainLogisticRegressionOffChainData",
      "outputs": [],
      "stateMutability": "nonpayable",
      "type": "function"
    },
    {
      "inputs": [
        {
          "internalType": "string",
          "name": "_schemaName",
          "type": "string"
        },
        {
          "internalType": "int64[]",
          "name": "labels",
          "type": "int64[]"
        },
        {
          "internalType": "string",
          "name": "modelName",
          "type": "string"
        }
      ],
      "name": "trainLogisticRegressionOnChainData",
      "outputs": [],
      "stateMutability": "nonpayable",
      "type": "function"
    },
    {
      "inputs": [
        {
          "internalType": "int64[][]",
          "name": "data",
          "type": "int64[][]"
        },
        {
          "internalType": "int64[]",
          "name": "labels",
          "type": "int64[]"
        },
        {
          "internalType": "string",
          "name": "modelName",
          "type": "string"
        }
      ],
      "name": "trainRandomForestClassificationOffChainData",
      "outputs": [],
      "stateMutability": "nonpayable",
      "type": "function"
    },
    {
      "inputs": [
        {
          "internalType": "string",
          "name": "_schemaName",
          "type": "string"
        },
        {
          "internalType": "int64[]",
          "name": "labels",
          "type": "int64[]"
        },
        {
          "internalType": "string",
          "name": "modelName",
          "type": "string"
        }
      ],
      "name": "trainRandomForestClassificationOnChainData",
      "outputs": [],
      "stateMutability": "nonpayable",
      "type": "function"
    },
    {
      "inputs": [
        {
          "internalType": "int64[][]",
          "name": "data",
          "type": "int64[][]"
        },
        {
          "internalType": "int64[]",
          "name": "labels",
          "type": "int64[]"
        },
        {
          "internalType": "string",
          "name": "modelName",
          "type": "string"
        }
      ],
      "name": "trainRandomForestRegressionOffChainData",
      "outputs": [],
      "stateMutability": "nonpayable",
      "type": "function"
    },
    {
      "inputs": [
        {
          "internalType": "string",
          "name": "_schemaName",
          "type": "string"
        },
        {
          "internalType": "int64[]",
          "name": "labels",
          "type": "int64[]"
        },
        {
          "internalType": "string",
          "name": "modelName",
          "type": "string"
        }
      ],
      "name": "trainRandomForestRegressionOnChainData",
      "outputs": [],
      "stateMutability": "nonpayable",
      "type": "function"
    }
  ],
  "bytecode": "0x60806040523480156200001157600080fd5b506040516200505738038062005057833981810160405281019062000037919062000130565b816000800160006101000a81548173ffffffffffffffffffffffffffffffffffffffff021916908373ffffffffffffffffffffffffffffffffffffffff16021790555080600160000160006101000a81548173ffffffffffffffffffffffffffffffffffffffff021916908373ffffffffffffffffffffffffffffffffffffffff160217905550505062000177565b600080fd5b600073ffffffffffffffffffffffffffffffffffffffff82169050919050565b6000620000f882620000cb565b9050919050565b6200010a81620000eb565b81146200011657600080fd5b50565b6000815190506200012a81620000ff565b92915050565b600080604083850312156200014a5762000149620000c6565b5b60006200015a8582860162000119565b92505060206200016d8582860162000119565b9150509250929050565b614ed080620001876000396000f3fe60806040526004361061021a5760003560e01c80639efd567011610123578063d686d3f8116100ab578063f03650361161006f578063f03650361461084e578063f345f0271461088b578063f42a3c60146108c8578063f7ba7d6b14610905578063fab574041461092e5761021a565b8063d686d3f814610759578063d69fcb2714610796578063dabcea21146107bf578063dd796d25146107e8578063e3d31090146108255761021a565b8063c0ffbf45116100f2578063c0ffbf451461063c578063c269c73d14610665578063c2fdeb3e146106a2578063c50006a9146106df578063d3aafd4c1461071c5761021a565b80639efd567014610598578063a5bce569146105c1578063ba2f03ec146105ea578063bf11f28d146106135761021a565b806365606ea6116101a65780637cd14aac116101755780637cd14aac146104a15780638fb06e8b146104cc578063924b34cf146105095780639ca5194f146105465780639cbcfd331461056f5761021a565b806365606ea6146103c1578063659bf592146103ea5780636ba55a5c1461042757806377886e78146104645761021a565b80633216019c116101ed5780633216019c146102d95780634d0b21161461031657806354a64ba71461035357806354cf747d1461037c57806356b50849146103985761021a565b80630f0e50971461021f5780631be0d1b214610248578063269b0a71146102735780632bc7c11c146102b0575b600080fd5b34801561022b57600080fd5b50610246600480360381019061024191906134e1565b61096b565b005b34801561025457600080fd5b5061025d6109da565b60405161026a91906135c9565b60405180910390f35b34801561027f57600080fd5b5061029a600480360381019061029591906136c5565b610a06565b6040516102a791906137fb565b60405180910390f35b3480156102bc57600080fd5b506102d760048036038101906102d2919061381d565b610a39565b005b3480156102e557600080fd5b5061030060048036038101906102fb9190613965565b610a63565b60405161030d91906137fb565b60405180910390f35b34801561032257600080fd5b5061033d600480360381019061033891906139dd565b610a7d565b60405161034a9190613b57565b60405180910390f35b34801561035f57600080fd5b5061037a600480360381019061037591906134e1565b610a8f565b005b61039660048036038101906103919190613c4f565b610afe565b005b3480156103a457600080fd5b506103bf60048036038101906103ba919061381d565b610b86565b005b3480156103cd57600080fd5b506103e860048036038101906103e3919061381d565b610bb0565b005b3480156103f657600080fd5b50610411600480360381019061040c9190613965565b610bda565b60405161041e91906137fb565b60405180910390f35b34801561043357600080fd5b5061044e60048036038101906104499190613965565b610bf4565b60405161045b91906137fb565b60405180910390f35b34801561047057600080fd5b5061048b600480360381019061048691906136c5565b610c0e565b60405161049891906137fb565b60405180910390f35b3480156104ad57600080fd5b506104b6610c41565b6040516104c391906135c9565b60405180910390f35b3480156104d857600080fd5b506104f360048036038101906104ee9190613965565b610c6d565b60405161050091906137fb565b60405180910390f35b34801561051557600080fd5b50610530600480360381019061052b9190613965565b610c87565b60405161053d91906137fb565b60405180910390f35b34801561055257600080fd5b5061056d6004803603810190610568919061381d565b610ca1565b005b34801561057b57600080fd5b50610596600480360381019061059191906134e1565b610ccb565b005b3480156105a457600080fd5b506105bf60048036038101906105ba91906134e1565b610d3a565b005b3480156105cd57600080fd5b506105e860048036038101906105e391906134e1565b610da9565b005b3480156105f657600080fd5b50610611600480360381019061060c91906134e1565b610e18565b005b34801561061f57600080fd5b5061063a6004803603810190610635919061381d565b610e87565b005b34801561064857600080fd5b50610663600480360381019061065e91906134e1565b610eb1565b005b34801561067157600080fd5b5061068c60048036038101906106879190613965565b610f20565b60405161069991906137fb565b60405180910390f35b3480156106ae57600080fd5b506106c960048036038101906106c491906136c5565b610f3a565b6040516106d691906137fb565b60405180910390f35b3480156106eb57600080fd5b50610706600480360381019061070191906136c5565b610f6d565b60405161071391906137fb565b60405180910390f35b34801561072857600080fd5b50610743600480360381019061073e9190613965565b610fa0565b60405161075091906137fb565b60405180910390f35b34801561076557600080fd5b50610780600480360381019061077b91906136c5565b610fba565b60405161078d91906137fb565b60405180910390f35b3480156107a257600080fd5b506107bd60048036038101906107b8919061381d565b610fed565b005b3480156107cb57600080fd5b506107e660048036038101906107e1919061381d565b611017565b005b3480156107f457600080fd5b5061080f600480360381019061080a91906136c5565b611041565b60405161081c91906137fb565b60405180910390f35b34801561083157600080fd5b5061084c6004803603810190610847919061381d565b611074565b005b34801561085a57600080fd5b50610875600480360381019061087091906136c5565b61109e565b60405161088291906137fb565b60405180910390f35b34801561089757600080fd5b506108b260048036038101906108ad9190613965565b6110d1565b6040516108bf91906137fb565b60405180910390f35b3480156108d457600080fd5b506108ef60048036038101906108ea91906136c5565b6110eb565b6040516108fc91906137fb565b60405180910390f35b34801561091157600080fd5b5061092c600480360381019061092791906134e1565b61111e565b005b34801561093a57600080fd5b5061095560048036038101906109509190613d12565b61118d565b6040516109629190613dda565b60405180910390f35b60008360405160200161097e9190613e43565b60405160208183030381529060405280519060200120905060006109ac8260006111aa90919063ffffffff16565b905060006109ba8286611257565b90506109d2818560016112d29092919063ffffffff16565b505050505050565b60018060000160009054906101000a900473ffffffffffffffffffffffffffffffffffffffff16905081565b60606000610a1e84600161136890919063ffffffff16565b90506000610a2c8483611415565b9050809250505092915050565b6000610a45848461149e565b9050610a5d818360016112d29092919063ffffffff16565b50505050565b60606000610a718484611519565b90508091505092915050565b6060610a88826115a2565b9050919050565b600083604051602001610aa29190613e43565b6040516020818303038152906040528051906020012090506000610ad08260006111aa90919063ffffffff16565b90506000610ade828661163d565b9050610af6818560016112d29092919063ffffffff16565b505050505050565b600086604051602001610b119190613e43565b6040516020818303038152906040528051906020012090506001610b3f8260006111aa90919063ffffffff16565b511015610b6157610b608187878760006116b890949392919063ffffffff16565b5b610b7d818787868660006117549095949392919063ffffffff16565b50505050505050565b6000610b9284846117f3565b9050610baa818360016112d29092919063ffffffff16565b50505050565b6000610bbc848461186e565b9050610bd4818360016112d29092919063ffffffff16565b50505050565b60606000610be884846118e9565b90508091505092915050565b60606000610c028484611972565b90508091505092915050565b60606000610c2684600161136890919063ffffffff16565b90506000610c3484836119fb565b9050809250505092915050565b60008060000160009054906101000a900473ffffffffffffffffffffffffffffffffffffffff16905081565b60606000610c7b8484611415565b90508091505092915050565b60606000610c958484611a84565b90508091505092915050565b6000610cad8484611b0d565b9050610cc5818360016112d29092919063ffffffff16565b50505050565b600083604051602001610cde9190613e43565b6040516020818303038152906040528051906020012090506000610d0c8260006111aa90919063ffffffff16565b90506000610d1a828661149e565b9050610d32818560016112d29092919063ffffffff16565b505050505050565b600083604051602001610d4d9190613e43565b6040516020818303038152906040528051906020012090506000610d7b8260006111aa90919063ffffffff16565b90506000610d898286611257565b9050610da1818560016112d29092919063ffffffff16565b505050505050565b600083604051602001610dbc9190613e43565b6040516020818303038152906040528051906020012090506000610dea8260006111aa90919063ffffffff16565b90506000610df882866117f3565b9050610e10818560016112d29092919063ffffffff16565b505050505050565b600083604051602001610e2b9190613e43565b6040516020818303038152906040528051906020012090506000610e598260006111aa90919063ffffffff16565b90506000610e678286611b88565b9050610e7f818560016112d29092919063ffffffff16565b505050505050565b6000610e93848461163d565b9050610eab818360016112d29092919063ffffffff16565b50505050565b600083604051602001610ec49190613e43565b6040516020818303038152906040528051906020012090506000610ef28260006111aa90919063ffffffff16565b90506000610f008286611b0d565b9050610f18818560016112d29092919063ffffffff16565b505050505050565b60606000610f2e8484611c03565b90508091505092915050565b60606000610f5284600161136890919063ffffffff16565b90506000610f608483611519565b9050809250505092915050565b60606000610f8584600161136890919063ffffffff16565b90506000610f9384836118e9565b9050809250505092915050565b60606000610fae84846119fb565b90508091505092915050565b60606000610fd284600161136890919063ffffffff16565b90506000610fe08483611c8c565b9050809250505092915050565b6000610ff98484611257565b9050611011818360016112d29092919063ffffffff16565b50505050565b60006110238484611d15565b905061103b818360016112d29092919063ffffffff16565b50505050565b6060600061105984600161136890919063ffffffff16565b905060006110678483611a84565b9050809250505092915050565b60006110808484611b88565b9050611098818360016112d29092919063ffffffff16565b50505050565b606060006110b684600161136890919063ffffffff16565b905060006110c48483611972565b9050809250505092915050565b606060006110df8484611c8c565b90508091505092915050565b6060600061110384600161136890919063ffffffff16565b905060006111118483611c03565b9050809250505092915050565b6000836040516020016111319190613e43565b604051602081830303815290604052805190602001209050600061115f8260006111aa90919063ffffffff16565b9050600061116d8286611d15565b9050611185818560016112d29092919063ffffffff16565b505050505050565b60606111a382600161136890919063ffffffff16565b9050919050565b60608260000160009054906101000a900473ffffffffffffffffffffffffffffffffffffffff1673ffffffffffffffffffffffffffffffffffffffff1663165a055c836040518263ffffffff1660e01b81526004016112099190613e73565b600060405180830381865afa158015611226573d6000803e3d6000fd5b505050506040513d6000823e3d601f19601f8201168201806040525081019061124f9190613fef565b905092915050565b606060006112658484611d90565b905060008061127f60316339249c95605186600080611f15565b91509150600082146112c6576040517f08c379a00000000000000000000000000000000000000000000000000000000081526004016112bd90614095565b60405180910390fd5b80935050505092915050565b8260000160009054906101000a900473ffffffffffffffffffffffffffffffffffffffff1673ffffffffffffffffffffffffffffffffffffffff1663cab3f93f83836040518363ffffffff1660e01b81526004016113319291906140ee565b600060405180830381600087803b15801561134b57600080fd5b505af115801561135f573d6000803e3d6000fd5b50505050505050565b60608260000160009054906101000a900473ffffffffffffffffffffffffffffffffffffffff1673ffffffffffffffffffffffffffffffffffffffff1663fab57404836040518263ffffffff1660e01b81526004016113c79190614125565b600060405180830381865afa1580156113e4573d6000803e3d6000fd5b505050506040513d6000823e3d601f19601f8201168201806040525081019061140d91906141b7565b905092915050565b606060006114238484612040565b905060008061143d603163e8decf35605186600080611f15565b9150915060008214611484576040517f08c379a000000000000000000000000000000000000000000000000000000000815260040161147b90614095565b60405180910390fd5b600061148f826121f0565b90508094505050505092915050565b606060006114ac8484611d90565b90506000806114c66031637e46f38d605186600080611f15565b915091506000821461150d576040517f08c379a000000000000000000000000000000000000000000000000000000000815260040161150490614095565b60405180910390fd5b80935050505092915050565b606060006115278484612040565b9050600080611541603163df67f0bf605186600080611f15565b9150915060008214611588576040517f08c379a000000000000000000000000000000000000000000000000000000000815260040161157f90614095565b60405180910390fd5b6000611593826121f0565b90508094505050505092915050565b60606000604051806020016040528084815250905060006115c2826122b3565b90506000806115dc603163310b06ff605186600080611f15565b9150915060008214611623576040517f08c379a000000000000000000000000000000000000000000000000000000000815260040161161a90614095565b60405180910390fd5b600061162e82612300565b90508095505050505050919050565b6060600061164b8484611d90565b90506000806116656031637ca76d80605186600080611f15565b91509150600082146116ac576040517f08c379a00000000000000000000000000000000000000000000000000000000081526004016116a390614095565b60405180910390fd5b80935050505092915050565b8460000160009054906101000a900473ffffffffffffffffffffffffffffffffffffffff1673ffffffffffffffffffffffffffffffffffffffff16638343d5e6858585856040518563ffffffff1660e01b815260040161171b94939291906142f2565b600060405180830381600087803b15801561173557600080fd5b505af1158015611749573d6000803e3d6000fd5b505050505050505050565b8560000160009054906101000a900473ffffffffffffffffffffffffffffffffffffffff1673ffffffffffffffffffffffffffffffffffffffff1663c7235c8986868686866040518663ffffffff1660e01b81526004016117b99594939291906144d2565b600060405180830381600087803b1580156117d357600080fd5b505af11580156117e7573d6000803e3d6000fd5b50505050505050505050565b606060006118018484611d90565b905060008061181b60316332ba6471605186600080611f15565b9150915060008214611862576040517f08c379a000000000000000000000000000000000000000000000000000000000815260040161185990614095565b60405180910390fd5b80935050505092915050565b6060600061187c8484611d90565b905060008061189660316324787e64605186600080611f15565b91509150600082146118dd576040517f08c379a00000000000000000000000000000000000000000000000000000000081526004016118d490614095565b60405180910390fd5b80935050505092915050565b606060006118f78484612040565b9050600080611911603163737afaed605186600080611f15565b9150915060008214611958576040517f08c379a000000000000000000000000000000000000000000000000000000000815260040161194f90614095565b60405180910390fd5b6000611963826121f0565b90508094505050505092915050565b606060006119808484612040565b905060008061199a603163ca857b2a605186600080611f15565b91509150600082146119e1576040517f08c379a00000000000000000000000000000000000000000000000000000000081526004016119d890614095565b60405180910390fd5b60006119ec826121f0565b90508094505050505092915050565b60606000611a098484612040565b9050600080611a23603163b99ff219605186600080611f15565b9150915060008214611a6a576040517f08c379a0000000000000000000000000000000000000000000000000000000008152600401611a6190614095565b60405180910390fd5b6000611a75826121f0565b90508094505050505092915050565b60606000611a928484612040565b9050600080611aac6031637fa5da6a605186600080611f15565b9150915060008214611af3576040517f08c379a0000000000000000000000000000000000000000000000000000000008152600401611aea90614095565b60405180910390fd5b6000611afe826121f0565b90508094505050505092915050565b60606000611b1b8484611d90565b9050600080611b35603163cc1bf2ec605186600080611f15565b9150915060008214611b7c576040517f08c379a0000000000000000000000000000000000000000000000000000000008152600401611b7390614095565b60405180910390fd5b80935050505092915050565b60606000611b968484611d90565b9050600080611bb060316362269916605186600080611f15565b9150915060008214611bf7576040517f08c379a0000000000000000000000000000000000000000000000000000000008152600401611bee90614095565b60405180910390fd5b80935050505092915050565b60606000611c118484612040565b9050600080611c2b603163c817fb20605186600080611f15565b9150915060008214611c72576040517f08c379a0000000000000000000000000000000000000000000000000000000008152600401611c6990614095565b60405180910390fd5b6000611c7d826121f0565b90508094505050505092915050565b60606000611c9a8484612040565b9050600080611cb4603163e0403b8e605186600080611f15565b9150915060008214611cfb576040517f08c379a0000000000000000000000000000000000000000000000000000000008152600401611cf290614095565b60405180910390fd5b6000611d06826121f0565b90508094505050505092915050565b60606000611d238484611d90565b9050600080611d3d603163faf1f8d8605186600080611f15565b9150915060008214611d84576040517f08c379a0000000000000000000000000000000000000000000000000000000008152600401611d7b90614095565b60405180910390fd5b80935050505092915050565b60606000611d9f610100612478565b9050611db560028261249f90919063ffffffff16565b611dc984518261249f90919063ffffffff16565b60005b84518167ffffffffffffffff161015611ea757611e0e85600081518110611df657611df561451b565b5b6020026020010151518361249f90919063ffffffff16565b60005b85600081518110611e2557611e2461451b565b5b602002602001015151811015611e9357611e86868367ffffffffffffffff1681518110611e5557611e5461451b565b5b60200260200101518281518110611e6f57611e6e61451b565b5b6020026020010151846124af90919063ffffffff16565b8080600101915050611e11565b508080611e9f9061458d565b915050611dcc565b50611ebc83518261249f90919063ffffffff16565b60005b8351811015611f0257611ef5848281518110611ede57611edd61451b565b5b6020026020010151836124af90919063ffffffff16565b8080600101915050611ebf565b50611f0c81612507565b91505092915050565b60006060611f3773fe0000000000000000000000000000000000000585612560565b60008073fe0000000000000000000000000000000000000573ffffffffffffffffffffffffffffffffffffffff16898787611f73576000611f76565b60015b8b8b8f604051602001611f8e96959493929190614620565b604051602081830303815290604052604051611faa91906146c4565b600060405180830381855af49150503d8060008114611fe5576040519150601f19603f3d011682016040523d82523d6000602084013e611fea565b606091505b509150915081612026576040517f8a7db5bf00000000000000000000000000000000000000000000000000000000815260040160405180910390fd5b61202f816125f6565b935093505050965096945050505050565b6060600061204d8361273d565b9050600061205c610100612478565b905061207260028261249f90919063ffffffff16565b61208685518261249f90919063ffffffff16565b60005b85518167ffffffffffffffff161015612164576120cb866000815181106120b3576120b261451b565b5b6020026020010151518361249f90919063ffffffff16565b60005b866000815181106120e2576120e161451b565b5b60200260200101515181101561215057612143878367ffffffffffffffff16815181106121125761211161451b565b5b6020026020010151828151811061212c5761212b61451b565b5b6020026020010151846124af90919063ffffffff16565b80806001019150506120ce565b50808061215c9061458d565b915050612089565b5061217982518261249f90919063ffffffff16565b60005b82518167ffffffffffffffff1610156121dc576121c9838267ffffffffffffffff16815181106121af576121ae61451b565b5b602002602001015160ff168361280090919063ffffffff16565b80806121d49061458d565b91505061217c565b506121e681612507565b9250505092915050565b6060600080612200846000612810565b9150915060008267ffffffffffffffff8111156122205761221f6132b5565b5b60405190808252806020026020018201604052801561224e5781602001602082028036833780820191505090505b50905060005b838110156122a7576000806122698886612891565b91509150818484815181106122815761228061451b565b5b602002602001019060070b908160070b8152505080945050508080600101915050612254565b50809350505050919050565b606060006122c2610100612478565b90506122d860018261249f90919063ffffffff16565b6122ef83600001518261292390919063ffffffff16565b6122f881612507565b915050919050565b6060600080612310846000612810565b9150915060008267ffffffffffffffff8111156123305761232f6132b5565b5b60405190808252806020026020018201604052801561236357816020015b606081526020019060019003908161234e5790505b50905060005b8381101561246c5760008061237e8886612810565b915091508167ffffffffffffffff81111561239c5761239b6132b5565b5b6040519080825280602002602001820160405280156123ca5781602001602082028036833780820191505090505b508484815181106123de576123dd61451b565b5b602002602001018190525060005b82811015612459576000806124018b85612891565b91509150818787815181106124195761241861451b565b5b602002602001015184815181106124335761243261451b565b5b602002602001019060070b908160070b81525050809350505080806001019150506123ec565b5080945050508080600101915050612369565b50809350505050919050565b61248061324c565b61248e816000015183612995565b506000816020018181525050919050565b6124ab82600483612a0e565b5050565b60008160070b126124cb576124c682600083612a1e565b612503565b612502826001837fffffffffffffffffffffffffffffffffffffffffffffffffffffffffffffffff6124fd91906146db565b612a1e565b5b5050565b60606000826020015114612550576040517f08c379a000000000000000000000000000000000000000000000000000000000815260040161254790614787565b60405180910390fd5b8160000151600001519050919050565b6000479050818110156125ac5780826040517f8f0f42060000000000000000000000000000000000000000000000000000000081526004016125a39291906147a7565b60405180910390fd5b60006125b784612bc7565b9050806125f0576040517f64d954b000000000000000000000000000000000000000000000000000000000815260040160405180910390fd5b50505050565b600060606000806000858060200190518101906126139190614832565b925092509250600067ffffffffffffffff168267ffffffffffffffff1603612675576000815114612670576040517f0e74990700000000000000000000000000000000000000000000000000000000815260040160405180910390fd5b61272f565b605167ffffffffffffffff168267ffffffffffffffff1614806126ac5750607167ffffffffffffffff168267ffffffffffffffff16145b156126f15760008151036126ec576040517f0e74990700000000000000000000000000000000000000000000000000000000815260040160405180910390fd5b61272e565b816040517ff1f6bced00000000000000000000000000000000000000000000000000000000815260040161272591906148a1565b60405180910390fd5b5b828194509450505050915091565b606060008061274d846000612810565b9150915060008267ffffffffffffffff81111561276d5761276c6132b5565b5b60405190808252806020026020018201604052801561279b5781602001602082028036833780820191505090505b50905060005b838110156127f4576000806127b68886612bdd565b91509150818484815181106127ce576127cd61451b565b5b602002602001019060ff16908160ff1681525050809450505080806001019150506127a1565b50809350505050919050565b61280c82600083612a1e565b5050565b6000806000806128208686612c5e565b8167ffffffffffffffff169150809750819350829450505050600460ff168260ff1614612882576040517f08c379a000000000000000000000000000000000000000000000000000000000815260040161287990614908565b60405180910390fd5b80859350935050509250929050565b6000806000806128a18686612c5e565b8167ffffffffffffffff169150809750819350829450505050600160ff168260ff1614806128d55750600060ff168260ff16145b612914576040517f08c379a000000000000000000000000000000000000000000000000000000000815260040161290b9061499a565b60405180910390fd5b80859350935050509250929050565b61294560186005600660ff16901b178360000151612e5090919063ffffffff16565b5061295e602a8360000151612e5090919063ffffffff16565b506129918160405160200161297391906149c1565b60405160208183030381529060405283612eba90919063ffffffff16565b5050565b61299d61326c565b60006020836129ac9190614a16565b146129d8576020826129be9190614a16565b60206129ca9190614a47565b826129d59190614a7b565b91505b8183602001818152505060405180845260008152828101602001818110156129ff57600080fd5b80604052505082905092915050565b612a19838383612a1e565b505050565b60178167ffffffffffffffff1611612a5957612a538160058460ff16901b60ff16178460000151612e5090919063ffffffff16565b50612bc2565b60ff8167ffffffffffffffff1611612ab757612a8c601860058460ff16901b178460000151612e5090919063ffffffff16565b50612ab18167ffffffffffffffff1660018560000151612ee39092919063ffffffff16565b50612bc1565b61ffff8167ffffffffffffffff1611612b1657612aeb601960058460ff16901b178460000151612e5090919063ffffffff16565b50612b108167ffffffffffffffff1660028560000151612ee39092919063ffffffff16565b50612bc0565b63ffffffff8167ffffffffffffffff1611612b7757612b4c601a60058460ff16901b178460000151612e5090919063ffffffff16565b50612b718167ffffffffffffffff1660048560000151612ee39092919063ffffffff16565b50612bbf565b612b98601b60058460ff16901b178460000151612e5090919063ffffffff16565b50612bbd8167ffffffffffffffff1660088560000151612ee39092919063ffffffff16565b505b5b5b5b505050565b600080823f90506000801b811415915050919050565b600080600080612bed8686612c5e565b8167ffffffffffffffff169150809750819350829450505050600060ff168260ff1614612c4f576040517f08c379a0000000000000000000000000000000000000000000000000000000008152600401612c4690614b21565b60405180910390fd5b80859350935050509250929050565b600080600080612c6e8686612f70565b9050600185612c7d9190614a7b565b94506000600560e0831660ff16901c90506000601f83169050601c8160ff1610612cdc576040517f08c379a0000000000000000000000000000000000000000000000000000000008152600401612cd390614bb3565b60405180910390fd5b60188160ff161015612cff578181888160ff169150955095509550505050612e49565b60188160ff1603612d86576000612d168989612f70565b9050600188612d259190614a7b565b975060188160ff161015612d6e576040517f08c379a0000000000000000000000000000000000000000000000000000000008152600401612d6590614c1f565b60405180910390fd5b8281898160ff16915096509650965050505050612e49565b60198160ff1603612dc7576000612d9d8989612feb565b9050600288612dac9190614a7b565b97508281898161ffff16915096509650965050505050612e49565b601a8160ff1603612e0a576000612dde8989613055565b9050600488612ded9190614a7b565b97508281898163ffffffff16915096509650965050505050612e49565b601b8160ff1614612e1e57612e1d614c3f565b5b6000612e2a89896130bf565b9050600888612e399190614a7b565b9750828189965096509650505050505b9250925092565b612e5861326c565b600083600001515190506000600182612e719190614a7b565b905084602001518210612e9557612e9485600283612e8f9190614c6e565b613129565b5b84516020838201018581538151831115612ead578282525b5050849250505092915050565b612ec78260028351612a1e565b612ede81836000015161314d90919063ffffffff16565b505050565b612eeb61326c565b6000846000015151905060008184612f039190614a7b565b90508560200151811115612f2857612f2786600283612f229190614c6e565b613129565b5b6000600185610100612f3a9190614de3565b612f449190614a47565b905086518281018783198251161781528151841115612f61578382525b50508693505050509392505050565b6000600182612f7f9190614a7b565b83511015612fc2576040517f08c379a0000000000000000000000000000000000000000000000000000000008152600401612fb990614e7a565b60405180910390fd5b828281518110612fd557612fd461451b565b5b602001015160f81c60f81b60f81c905092915050565b6000600282612ffa9190614a7b565b8351101561303d576040517f08c379a000000000000000000000000000000000000000000000000000000000815260040161303490614e7a565b60405180910390fd5b60008260200184015190508060f01c91505092915050565b60006004826130649190614a7b565b835110156130a7576040517f08c379a000000000000000000000000000000000000000000000000000000000815260040161309e90614e7a565b60405180910390fd5b60008260200184015190508060e01c91505092915050565b60006008826130ce9190614a7b565b83511015613111576040517f08c379a000000000000000000000000000000000000000000000000000000000815260040161310890614e7a565b60405180910390fd5b60008260200184015190508060c01c91505092915050565b60008260000151905061313c8383612995565b50613147838261314d565b50505050565b61315561326c565b61316183838451613169565b905092915050565b61317161326c565b825182111561317f57600080fd5b60008460000151519050600083826131979190614a7b565b905085602001518111156131bc576131bb866002836131b69190614c6e565b613129565b5b600080875180518560208301019350808511156131d7578482525b60208901925050505b6020861061321e57805182526020826131f99190614a7b565b91506020816132089190614a7b565b90506020866132179190614a47565b95506131e0565b60006001876020036101000a0390508019825116818451168181178552505050879450505050509392505050565b604051806040016040528061325f61326c565b8152602001600081525090565b604051806040016040528060608152602001600081525090565b6000604051905090565b600080fd5b600080fd5b600080fd5b600080fd5b6000601f19601f8301169050919050565b7f4e487b7100000000000000000000000000000000000000000000000000000000600052604160045260246000fd5b6132ed826132a4565b810181811067ffffffffffffffff8211171561330c5761330b6132b5565b5b80604052505050565b600061331f613286565b905061332b82826132e4565b919050565b600067ffffffffffffffff82111561334b5761334a6132b5565b5b613354826132a4565b9050602081019050919050565b82818337600083830152505050565b600061338361337e84613330565b613315565b90508281526020810184848401111561339f5761339e61329f565b5b6133aa848285613361565b509392505050565b600082601f8301126133c7576133c661329a565b5b81356133d7848260208601613370565b91505092915050565b600067ffffffffffffffff8211156133fb576133fa6132b5565b5b602082029050602081019050919050565b600080fd5b60008160070b9050919050565b61342781613411565b811461343257600080fd5b50565b6000813590506134448161341e565b92915050565b600061345d613458846133e0565b613315565b905080838252602082019050602084028301858111156134805761347f61340c565b5b835b818110156134a957806134958882613435565b845260208401935050602081019050613482565b5050509392505050565b600082601f8301126134c8576134c761329a565b5b81356134d884826020860161344a565b91505092915050565b6000806000606084860312156134fa576134f9613290565b5b600084013567ffffffffffffffff81111561351857613517613295565b5b613524868287016133b2565b935050602084013567ffffffffffffffff81111561354557613544613295565b5b613551868287016134b3565b925050604084013567ffffffffffffffff81111561357257613571613295565b5b61357e868287016133b2565b9150509250925092565b600073ffffffffffffffffffffffffffffffffffffffff82169050919050565b60006135b382613588565b9050919050565b6135c3816135a8565b82525050565b60006020820190506135de60008301846135ba565b92915050565b600067ffffffffffffffff8211156135ff576135fe6132b5565b5b602082029050602081019050919050565b600061362361361e846135e4565b613315565b905080838252602082019050602084028301858111156136465761364561340c565b5b835b8181101561368d57803567ffffffffffffffff81111561366b5761366a61329a565b5b80860161367889826134b3565b85526020850194505050602081019050613648565b5050509392505050565b600082601f8301126136ac576136ab61329a565b5b81356136bc848260208601613610565b91505092915050565b600080604083850312156136dc576136db613290565b5b600083013567ffffffffffffffff8111156136fa576136f9613295565b5b613706858286016133b2565b925050602083013567ffffffffffffffff81111561372757613726613295565b5b61373385828601613697565b9150509250929050565b600081519050919050565b600082825260208201905092915050565b6000819050602082019050919050565b61377281613411565b82525050565b60006137848383613769565b60208301905092915050565b6000602082019050919050565b60006137a88261373d565b6137b28185613748565b93506137bd83613759565b8060005b838110156137ee5781516137d58882613778565b97506137e083613790565b9250506001810190506137c1565b5085935050505092915050565b60006020820190508181036000830152613815818461379d565b905092915050565b60008060006060848603121561383657613835613290565b5b600084013567ffffffffffffffff81111561385457613853613295565b5b61386086828701613697565b935050602084013567ffffffffffffffff81111561388157613880613295565b5b61388d868287016134b3565b925050604084013567ffffffffffffffff8111156138ae576138ad613295565b5b6138ba868287016133b2565b9150509250925092565b600067ffffffffffffffff8211156138df576138de6132b5565b5b6138e8826132a4565b9050602081019050919050565b6000613908613903846138c4565b613315565b9050828152602081018484840111156139245761392361329f565b5b61392f848285613361565b509392505050565b600082601f83011261394c5761394b61329a565b5b813561395c8482602086016138f5565b91505092915050565b6000806040838503121561397c5761397b613290565b5b600083013567ffffffffffffffff81111561399a57613999613295565b5b6139a685828601613697565b925050602083013567ffffffffffffffff8111156139c7576139c6613295565b5b6139d385828601613937565b9150509250929050565b6000602082840312156139f3576139f2613290565b5b600082013567ffffffffffffffff811115613a1157613a10613295565b5b613a1d84828501613937565b91505092915050565b600081519050919050565b600082825260208201905092915050565b6000819050602082019050919050565b600082825260208201905092915050565b6000613a6e8261373d565b613a788185613a52565b9350613a8383613759565b8060005b83811015613ab4578151613a9b8882613778565b9750613aa683613790565b925050600181019050613a87565b5085935050505092915050565b6000613acd8383613a63565b905092915050565b6000602082019050919050565b6000613aed82613a26565b613af78185613a31565b935083602082028501613b0985613a42565b8060005b85811015613b455784840389528151613b268582613ac1565b9450613b3183613ad5565b925060208a01995050600181019050613b0d565b50829750879550505050505092915050565b60006020820190508181036000830152613b718184613ae2565b905092915050565b600080fd5b60008083601f840112613b9457613b9361329a565b5b8235905067ffffffffffffffff811115613bb157613bb0613b79565b5b602083019150836020820283011115613bcd57613bcc61340c565b5b9250929050565b60078110613be157600080fd5b50565b600081359050613bf381613bd4565b92915050565b60008083601f840112613c0f57613c0e61329a565b5b8235905067ffffffffffffffff811115613c2c57613c2b613b79565b5b602083019150836020820283011115613c4857613c4761340c565b5b9250929050565b60008060008060008060808789031215613c6c57613c6b613290565b5b600087013567ffffffffffffffff811115613c8a57613c89613295565b5b613c9689828a016133b2565b965050602087013567ffffffffffffffff811115613cb757613cb6613295565b5b613cc389828a01613b7e565b95509550506040613cd689828a01613be4565b935050606087013567ffffffffffffffff811115613cf757613cf6613295565b5b613d0389828a01613bf9565b92509250509295509295509295565b600060208284031215613d2857613d27613290565b5b600082013567ffffffffffffffff811115613d4657613d45613295565b5b613d52848285016133b2565b91505092915050565b600081519050919050565b600082825260208201905092915050565b60005b83811015613d95578082015181840152602081019050613d7a565b60008484015250505050565b6000613dac82613d5b565b613db68185613d66565b9350613dc6818560208601613d77565b613dcf816132a4565b840191505092915050565b60006020820190508181036000830152613df48184613da1565b905092915050565b600081519050919050565b600081905092915050565b6000613e1d82613dfc565b613e278185613e07565b9350613e37818560208601613d77565b80840191505092915050565b6000613e4f8284613e12565b915081905092915050565b6000819050919050565b613e6d81613e5a565b82525050565b6000602082019050613e886000830184613e64565b92915050565b600081519050613e9d8161341e565b92915050565b6000613eb6613eb1846133e0565b613315565b90508083825260208201905060208402830185811115613ed957613ed861340c565b5b835b81811015613f025780613eee8882613e8e565b845260208401935050602081019050613edb565b5050509392505050565b600082601f830112613f2157613f2061329a565b5b8151613f31848260208601613ea3565b91505092915050565b6000613f4d613f48846135e4565b613315565b90508083825260208201905060208402830185811115613f7057613f6f61340c565b5b835b81811015613fb757805167ffffffffffffffff811115613f9557613f9461329a565b5b808601613fa28982613f0c565b85526020850194505050602081019050613f72565b5050509392505050565b600082601f830112613fd657613fd561329a565b5b8151613fe6848260208601613f3a565b91505092915050565b60006020828403121561400557614004613290565b5b600082015167ffffffffffffffff81111561402357614022613295565b5b61402f84828501613fc1565b91505092915050565b600082825260208201905092915050565b7f4d616368696e65206c6561726e696e67206163746f72206661696c6564000000600082015250565b600061407f601d83614038565b915061408a82614049565b602082019050919050565b600060208201905081810360008301526140ae81614072565b9050919050565b60006140c082613dfc565b6140ca8185614038565b93506140da818560208601613d77565b6140e3816132a4565b840191505092915050565b600060408201905081810360008301526141088185613da1565b9050818103602083015261411c81846140b5565b90509392505050565b6000602082019050818103600083015261413f81846140b5565b905092915050565b600061415a614155846138c4565b613315565b9050828152602081018484840111156141765761417561329f565b5b614181848285613d77565b509392505050565b600082601f83011261419e5761419d61329a565b5b81516141ae848260208601614147565b91505092915050565b6000602082840312156141cd576141cc613290565b5b600082015167ffffffffffffffff8111156141eb576141ea613295565b5b6141f784828501614189565b91505092915050565b600082825260208201905092915050565b600080fd5b82818337505050565b600061422b8385614200565b93507f07ffffffffffffffffffffffffffffffffffffffffffffffffffffffffffffff83111561425e5761425d614211565b5b60208302925061426f838584614216565b82840190509392505050565b7f4e487b7100000000000000000000000000000000000000000000000000000000600052602160045260246000fd5b600781106142bb576142ba61427b565b5b50565b60008190506142cc826142aa565b919050565b60006142dc826142be565b9050919050565b6142ec816142d1565b82525050565b60006060820190506143076000830187613e64565b818103602083015261431a81858761421f565b905061432960408301846142e3565b95945050505050565b6000819050919050565b6000819050919050565b60006143556020840184613435565b905092915050565b6000602082019050919050565b60006143768385613a52565b93506143818261433c565b8060005b858110156143ba576143978284614346565b6143a18882613778565b97506143ac8361435d565b925050600181019050614385565b5085925050509392505050565b60006143d484848461436a565b90509392505050565b600080fd5b600080fd5b600080fd5b60008083356001602003843603038112614409576144086143e7565b5b83810192508235915060208301925067ffffffffffffffff821115614431576144306143dd565b5b602082023603831315614447576144466143e2565b5b509250929050565b6000602082019050919050565b60006144688385613a31565b93508360208402850161447a84614332565b8060005b878110156144c057848403895261449582846143ec565b6144a08682846143c7565b95506144ab8461444f565b935060208b019a50505060018101905061447e565b50829750879450505050509392505050565b60006060820190506144e76000830188613e64565b81810360208301526144fa81868861421f565b9050818103604083015261450f81848661445c565b90509695505050505050565b7f4e487b7100000000000000000000000000000000000000000000000000000000600052603260045260246000fd5b7f4e487b7100000000000000000000000000000000000000000000000000000000600052601160045260246000fd5b600067ffffffffffffffff82169050919050565b600061459882614579565b915067ffffffffffffffff82036145b2576145b161454a565b5b600182019050919050565b6145c681614579565b82525050565b6000819050919050565b6145df816145cc565b82525050565b6000819050919050565b600061460a61460561460084614579565b6145e5565b614579565b9050919050565b61461a816145ef565b82525050565b600060c08201905061463560008301896145bd565b61464260208301886145d6565b61464f60408301876145bd565b61465c60608301866145bd565b818103608083015261466e8185613da1565b905061467d60a0830184614611565b979650505050505050565b600081905092915050565b600061469e82613d5b565b6146a88185614688565b93506146b8818560208601613d77565b80840191505092915050565b60006146d08284614693565b915081905092915050565b60006146e682613411565b91506146f183613411565b92508282039050677fffffffffffffff81137fffffffffffffffffffffffffffffffffffffffffffffffff8000000000000000821217156147355761473461454a565b5b92915050565b7f496e76616c69642043424f520000000000000000000000000000000000000000600082015250565b6000614771600c83614038565b915061477c8261473b565b602082019050919050565b600060208201905081810360008301526147a081614764565b9050919050565b60006040820190506147bc60008301856145d6565b6147c960208301846145d6565b9392505050565b6000819050919050565b6147e3816147d0565b81146147ee57600080fd5b50565b600081519050614800816147da565b92915050565b61480f81614579565b811461481a57600080fd5b50565b60008151905061482c81614806565b92915050565b60008060006060848603121561484b5761484a613290565b5b6000614859868287016147f1565b935050602061486a8682870161481d565b925050604084015167ffffffffffffffff81111561488b5761488a613295565b5b61489786828701614189565b9150509250925092565b60006020820190506148b660008301846145bd565b92915050565b7f696e76616c6964206d616a20286578706563746564204d616a41727261792900600082015250565b60006148f2601f83614038565b91506148fd826148bc565b602082019050919050565b60006020820190508181036000830152614921816148e5565b9050919050565b7f696e76616c6964206d616a20286578706563746564204d616a5369676e65644960008201527f6e74206f72204d616a556e7369676e6564496e74290000000000000000000000602082015250565b6000614984603583614038565b915061498f82614928565b604082019050919050565b600060208201905081810360008301526149b381614977565b9050919050565b6000815250565b60006149cc826149ba565b6001820191506149dc8284614693565b915081905092915050565b7f4e487b7100000000000000000000000000000000000000000000000000000000600052601260045260246000fd5b6000614a21826145cc565b9150614a2c836145cc565b925082614a3c57614a3b6149e7565b5b828206905092915050565b6000614a52826145cc565b9150614a5d836145cc565b9250828203905081811115614a7557614a7461454a565b5b92915050565b6000614a86826145cc565b9150614a91836145cc565b9250828201905080821115614aa957614aa861454a565b5b92915050565b7f696e76616c6964206d616a20286578706563746564204d616a556e7369676e6560008201527f64496e7429000000000000000000000000000000000000000000000000000000602082015250565b6000614b0b602583614038565b9150614b1682614aaf565b604082019050919050565b60006020820190508181036000830152614b3a81614afe565b9050919050565b7f63616e6e6f742068616e646c652068656164657273207769746820657874726160008201527f203e203237000000000000000000000000000000000000000000000000000000602082015250565b6000614b9d602583614038565b9150614ba882614b41565b604082019050919050565b60006020820190508181036000830152614bcc81614b90565b9050919050565b7f696e76616c69642063626f720000000000000000000000000000000000000000600082015250565b6000614c09600c83614038565b9150614c1482614bd3565b602082019050919050565b60006020820190508181036000830152614c3881614bfc565b9050919050565b7f4e487b7100000000000000000000000000000000000000000000000000000000600052600160045260246000fd5b6000614c79826145cc565b9150614c84836145cc565b9250828202614c92816145cc565b91508282048414831517614ca957614ca861454a565b5b5092915050565b60008160011c9050919050565b6000808291508390505b6001851115614d0757808604811115614ce357614ce261454a565b5b6001851615614cf25780820291505b8081029050614d0085614cb0565b9450614cc7565b94509492505050565b600082614d205760019050614ddc565b81614d2e5760009050614ddc565b8160018114614d445760028114614d4e57614d7d565b6001915050614ddc565b60ff841115614d6057614d5f61454a565b5b8360020a915084821115614d7757614d7661454a565b5b50614ddc565b5060208310610133831016604e8410600b8410161715614db25782820a905083811115614dad57614dac61454a565b5b614ddc565b614dbf8484846001614cbd565b92509050818404811115614dd657614dd561454a565b5b81810290505b9392505050565b6000614dee826145cc565b9150614df9836145cc565b9250614e267fffffffffffffffffffffffffffffffffffffffffffffffffffffffffffffffff8484614d10565b905092915050565b7f736c6963696e67206f7574206f662072616e6765000000000000000000000000600082015250565b6000614e64601483614038565b9150614e6f82614e2e565b602082019050919050565b60006020820190508181036000830152614e9381614e57565b905091905056fea2646970667358221220c310f6814852cab2c1edb3f4881cd78c07d43fd6d9763032b298779a7331b1e364736f6c63430008180033",
  "linkReferences": {},
  "deployedLinkReferences": {}
}