{
  "_format": "hh-sol-artifact-1",
  "contractName": "UserAnalytics",
  "sourceName": "contracts/UserAnalytics.sol",
  "abi": [
    {
      "inputs": [],
      "stateMutability": "nonpayable",
      "type": "constructor"
    },
    {
      "anonymous": false,
      "inputs": [
        {
          "indexed": false,
          "internalType": "address",
          "name": "user",
          "type": "address"
        },
        {
          "indexed": false,
          "internalType": "address",
          "name": "provider",
          "type": "address"
        },
        {
          "indexed": false,
          "internalType": "uint256",
          "name": "category",
          "type": "uint256"
        }
      ],
      "name": "NewAnalytics",
      "type": "event"
    },
    {
      "anonymous": false,
      "inputs": [
        {
          "indexed": true,
          "internalType": "address",
          "name": "previousOwner",
          "type": "address"
        },
        {
          "indexed": true,
          "internalType": "address",
          "name": "newOwner",
          "type": "address"
        }
      ],
      "name": "OwnershipTransferred",
      "type": "event"
    },
    {
      "inputs": [
        {
          "internalType": "address payable",
          "name": "userAddress",
          "type": "address"
        },
        {
          "internalType": "bytes32",
          "name": "schemaName",
          "type": "bytes32"
        },
        {
          "internalType": "bytes32[]",
          "name": "columns",
          "type": "bytes32[]"
        },
        {
          "internalType": "uint256[]",
          "name": "data",
          "type": "uint256[]"
        }
      ],
      "name": "addAnalytics",
      "outputs": [],
      "stateMutability": "payable",
      "type": "function"
    },
    {
      "inputs": [
        {
          "internalType": "bytes32",
          "name": "schemaName",
          "type": "bytes32"
        },
        {
          "internalType": "bytes32[]",
          "name": "columns",
          "type": "bytes32[]"
        },
        {
          "internalType": "enum UserAnalytics.Category",
          "name": "category",
          "type": "uint8"
        }
      ],
      "name": "addSchema",
      "outputs": [],
      "stateMutability": "nonpayable",
      "type": "function"
    },
    {
      "inputs": [
        {
          "internalType": "address",
          "name": "userAddress",
          "type": "address"
        }
      ],
      "name": "addUser",
      "outputs": [],
      "stateMutability": "nonpayable",
      "type": "function"
    },
    {
      "inputs": [
        {
          "internalType": "address",
          "name": "",
          "type": "address"
        }
      ],
      "name": "addressToId",
      "outputs": [
        {
          "internalType": "uint256",
          "name": "",
          "type": "uint256"
        }
      ],
      "stateMutability": "view",
      "type": "function"
    },
    {
      "inputs": [
        {
          "internalType": "address",
          "name": "",
          "type": "address"
        }
      ],
      "name": "consumerCredits",
      "outputs": [
        {
          "internalType": "uint256",
          "name": "",
          "type": "uint256"
        }
      ],
      "stateMutability": "view",
      "type": "function"
    },
    {
      "inputs": [
        {
          "internalType": "uint256",
          "name": "",
          "type": "uint256"
        }
      ],
      "name": "dappAnalytics",
      "outputs": [
        {
          "internalType": "bytes32",
          "name": "schemaName",
          "type": "bytes32"
        },
        {
          "internalType": "enum UserAnalytics.Category",
          "name": "schemaCategory",
          "type": "uint8"
        }
      ],
      "stateMutability": "view",
      "type": "function"
    },
    {
      "inputs": [],
      "name": "getAllSchemas",
      "outputs": [
        {
          "components": [
            {
              "internalType": "bytes32",
              "name": "schemaName",
              "type": "bytes32"
            },
            {
              "internalType": "bytes32[]",
              "name": "columns",
              "type": "bytes32[]"
            },
            {
              "internalType": "enum UserAnalytics.Category",
              "name": "schemaCategory",
              "type": "uint8"
            },
            {
              "internalType": "uint256",
              "name": "totalRecords",
              "type": "uint256"
            }
          ],
          "internalType": "struct UserAnalytics.SchemaDetails[]",
          "name": "",
          "type": "tuple[]"
        }
      ],
      "stateMutability": "view",
      "type": "function"
    },
    {
      "inputs": [
        {
          "internalType": "bytes32",
          "name": "schemaName",
          "type": "bytes32"
        }
      ],
      "name": "getAnalyticsDataBySchemaName",
      "outputs": [
        {
          "internalType": "uint256[][]",
          "name": "",
          "type": "uint256[][]"
        }
      ],
      "stateMutability": "view",
      "type": "function"
    },
    {
      "inputs": [
        {
          "internalType": "bytes32",
          "name": "schemaName",
          "type": "bytes32"
        }
      ],
      "name": "getColumnsOfSchema",
      "outputs": [
        {
          "internalType": "bytes32[]",
          "name": "",
          "type": "bytes32[]"
        }
      ],
      "stateMutability": "view",
      "type": "function"
    },
    {
      "inputs": [
        {
          "internalType": "address",
          "name": "userAddress",
          "type": "address"
        },
        {
          "internalType": "uint64",
          "name": "k",
          "type": "uint64"
        }
      ],
      "name": "getRecommendedFollowers",
      "outputs": [
        {
          "internalType": "address[][]",
          "name": "",
          "type": "address[][]"
        }
      ],
      "stateMutability": "view",
      "type": "function"
    },
    {
      "inputs": [
        {
          "internalType": "bytes32",
          "name": "schemaName",
          "type": "bytes32"
        },
        {
          "internalType": "address",
          "name": "userAddress",
          "type": "address"
        }
      ],
      "name": "getSchemaAddressToId",
      "outputs": [
        {
          "internalType": "uint256",
          "name": "",
          "type": "uint256"
        }
      ],
      "stateMutability": "view",
      "type": "function"
    },
    {
      "inputs": [
        {
          "internalType": "bytes32",
          "name": "schemaName",
          "type": "bytes32"
        },
        {
          "internalType": "uint256",
          "name": "userId",
          "type": "uint256"
        }
      ],
      "name": "getSchemaIdToAddress",
      "outputs": [
        {
          "internalType": "address",
          "name": "",
          "type": "address"
        }
      ],
      "stateMutability": "view",
      "type": "function"
    },
    {
      "inputs": [],
      "name": "getUserActivityMatrix",
      "outputs": [
        {
          "internalType": "uint256[][]",
          "name": "",
          "type": "uint256[][]"
        }
      ],
      "stateMutability": "view",
      "type": "function"
    },
    {
      "inputs": [
        {
          "internalType": "uint256",
          "name": "",
          "type": "uint256"
        }
      ],
      "name": "idToAddress",
      "outputs": [
        {
          "internalType": "address",
          "name": "",
          "type": "address"
        }
      ],
      "stateMutability": "view",
      "type": "function"
    },
    {
      "inputs": [],
      "name": "latestIndex",
      "outputs": [
        {
          "internalType": "uint256",
          "name": "",
          "type": "uint256"
        }
      ],
      "stateMutability": "view",
      "type": "function"
    },
    {
      "inputs": [],
      "name": "owner",
      "outputs": [
        {
          "internalType": "address",
          "name": "",
          "type": "address"
        }
      ],
      "stateMutability": "view",
      "type": "function"
    },
    {
      "inputs": [
        {
          "internalType": "uint256",
          "name": "userIndex",
          "type": "uint256"
        },
        {
          "internalType": "uint256[][]",
          "name": "similarityMatrix",
          "type": "uint256[][]"
        },
        {
          "internalType": "uint64",
          "name": "k",
          "type": "uint64"
        }
      ],
      "name": "recommendFollowers",
      "outputs": [
        {
          "internalType": "address[][]",
          "name": "",
          "type": "address[][]"
        }
      ],
      "stateMutability": "view",
      "type": "function"
    },
    {
      "inputs": [],
      "name": "renounceOwnership",
      "outputs": [],
      "stateMutability": "nonpayable",
      "type": "function"
    },
    {
      "inputs": [
        {
          "internalType": "bytes32",
          "name": "",
          "type": "bytes32"
        }
      ],
      "name": "schemaIndex",
      "outputs": [
        {
          "internalType": "uint256",
          "name": "",
          "type": "uint256"
        }
      ],
      "stateMutability": "view",
      "type": "function"
    },
    {
      "inputs": [],
      "name": "totalCategories",
      "outputs": [
        {
          "internalType": "uint256",
          "name": "",
          "type": "uint256"
        }
      ],
      "stateMutability": "view",
      "type": "function"
    },
    {
      "inputs": [
        {
          "internalType": "address",
          "name": "newOwner",
          "type": "address"
        }
      ],
      "name": "transferOwnership",
      "outputs": [],
      "stateMutability": "nonpayable",
      "type": "function"
    },
    {
      "inputs": [
        {
          "internalType": "address payable",
          "name": "userAddress",
          "type": "address"
        },
        {
          "internalType": "bytes32",
          "name": "schemaName",
          "type": "bytes32"
        },
        {
          "internalType": "bytes32[]",
          "name": "columns",
          "type": "bytes32[]"
        },
        {
          "internalType": "uint256[]",
          "name": "data",
          "type": "uint256[]"
        }
      ],
      "name": "updateAnalytics",
      "outputs": [],
      "stateMutability": "payable",
      "type": "function"
    },
    {
      "inputs": [
        {
          "internalType": "uint256",
          "name": "newReward",
          "type": "uint256"
        }
      ],
      "name": "updateUserReward",
      "outputs": [],
      "stateMutability": "nonpayable",
      "type": "function"
    },
    {
      "inputs": [
        {
          "internalType": "uint256",
          "name": "",
          "type": "uint256"
        },
        {
          "internalType": "uint256",
          "name": "",
          "type": "uint256"
        }
      ],
      "name": "userActivityMatrix",
      "outputs": [
        {
          "internalType": "uint256",
          "name": "",
          "type": "uint256"
        }
      ],
      "stateMutability": "view",
      "type": "function"
    },
    {
      "inputs": [],
      "name": "userRewardPerDatapoint",
      "outputs": [
        {
          "internalType": "uint256",
          "name": "",
          "type": "uint256"
        }
      ],
      "stateMutability": "view",
      "type": "function"
    },
    {
      "stateMutability": "payable",
      "type": "receive"
    }
  ],
  "bytecode": "0x60806040523480156200001157600080fd5b506200001d336200008e565b60018054808201825560009190915260608051909162000065917fb10e2d527612073b26eecdfd717e6a320cf44b4afac2b0732d9fcbe2b7fa0cf690910190608090620000de565b505060006006819055600780556009805460010181559052662386f26fc1000060085562000145565b600080546001600160a01b038381166001600160a01b0319831681178455604051919092169283917f8be0079c531659141344cd1fd0a4f28419497f9722a3daafe3b4186f6b6457e09190a35050565b8280548282559060005260206000209081019282156200011c579160200282015b828111156200011c578251825591602001919060010190620000ff565b506200012a9291506200012e565b5090565b5b808211156200012a57600081556001016200012f565b61250280620001556000396000f3fe60806040526004361061016a5760003560e01c8063715018a6116100d15780639fba53bf1161008a578063dd39e52211610064578063dd39e52214610475578063f2fde38b14610495578063f5096a7d146104b5578063fa2e47cc146104cb57600080fd5b80639fba53bf146103f9578063a9d2e2d71461041b578063cb0e0d7d1461044857600080fd5b8063715018a61461032c57806380a130961461034157806380eb65ae1461036e5780638343d5e61461039b5780638b12ed54146103bb5780638da5cb5b146103db57600080fd5b80632a45e1ed116101235780632a45e1ed1461027257806334aa9623146102a057806339275b0a146102b357806341206515146102c9578063421b2d8b146102f6578063578f2aa01461031657600080fd5b806302fa955d1461017657806306be2b411461018b5780631060192e146101b6578063165a055c146101d657806326fdc0f6146101f65780632a2d0c471461022457600080fd5b3661017157005b600080fd5b610189610184366004611e4f565b6104eb565b005b34801561019757600080fd5b506101a06108ff565b6040516101ad9190611eda565b60405180910390f35b3480156101c257600080fd5b506101896101d1366004611f64565b610998565b3480156101e257600080fd5b506101a06101f1366004611f64565b6109a5565b34801561020257600080fd5b50610216610211366004611f64565b610a72565b6040516101ad929190611fb5565b34801561023057600080fd5b5061025a61023f366004611f64565b6003602052600090815260409020546001600160a01b031681565b6040516001600160a01b0390911681526020016101ad565b34801561027e57600080fd5b5061029261028d366004611fc9565b610aa3565b6040519081526020016101ad565b6101896102ae366004611e4f565b610ae0565b3480156102bf57600080fd5b5061029260075481565b3480156102d557600080fd5b506102e96102e4366004612070565b610dc2565b6040516101ad9190612196565b34801561030257600080fd5b5061018961031136600461221b565b611144565b34801561032257600080fd5b5061029260065481565b34801561033857600080fd5b5061018961122f565b34801561034d57600080fd5b5061036161035c366004611f64565b611243565b6040516101ad9190612273565b34801561037a57600080fd5b50610292610389366004611f64565b60056020526000908152604090205481565b3480156103a757600080fd5b506101896103b6366004612286565b6112cf565b3480156103c757600080fd5b5061025a6103d6366004611fc9565b6114b2565b3480156103e757600080fd5b506000546001600160a01b031661025a565b34801561040557600080fd5b5061040e611508565b6040516101ad91906122e8565b34801561042757600080fd5b5061029261043636600461221b565b60046020526000908152604090205481565b34801561045457600080fd5b5061029261046336600461221b565b60026020526000908152604090205481565b34801561048157600080fd5b506102e961049036600461237d565b611732565b3480156104a157600080fd5b506101896104b036600461221b565b61176f565b3480156104c157600080fd5b5061029260085481565b3480156104d757600080fd5b506102926104e63660046123b2565b6117e8565b6001600160a01b03861660009081526002602052604081205490036105645760405163421b2d8b60e01b81526001600160a01b0387166004820152309063421b2d8b90602401600060405180830381600087803b15801561054b57600080fd5b505af115801561055f573d6000803e3d6000fd5b505050505b600085815260056020526040812054600980549091908110610588576105886123e2565b600091825260208083206001600160a01b038b16845260046007909302019182019052604082205490925090036106a257600381018054600101815560009081525b6001820154811015610627576003820180546105e89060019061240e565b815481106105f8576105f86123e2565b60009182526020808320909101805460018101825590835290822001558061061f81612421565b9150506105ca565b5060038101546106399060019061240e565b6001600160a01b038816600090815260048301602052604081209190915560038201548891600584019161066f9060019061240e565b815260200190815260200160002060006101000a8154816001600160a01b0302191690836001600160a01b031602179055505b60005b84811015610768578383828181106106bf576106bf6123e2565b90506020020135826003018360040160008b6001600160a01b03166001600160a01b031681526020019081526020016000205481548110610702576107026123e2565b90600052602060002001836006016000898986818110610724576107246123e2565b905060200201358152602001908152602001600020548154811061074a5761074a6123e2565b6000918252602090912001558061076081612421565b9150506106a5565b506001600160a01b03871660009081526002602052604090205460018054909182918110610798576107986123e2565b60009182526020909120600284015491019060ff1660068111156107be576107be611f7d565b815481106107ce576107ce6123e2565b9060005260206000200160008282546107e7919061243a565b90915550506008546040516000916001600160a01b038a169181156108fc02919084818181858888f193505050509050806108615760405162461bcd60e51b81526020600482015260156024820152742330b4b632b2103a37903932bbb0b932103ab9b2b960591b60448201526064015b60405180910390fd5b3360009081526004602052604090205461087c90600161243a565b3360008181526004602052604090209190915560028301547f3a5918ca939d93e6bd42ac6f2f818c05e35a0fec0af9c4e1fd1f2b32db4e2f0d918a9160ff1660068111156108cc576108cc611f7d565b604080516001600160a01b0394851681529390921660208401529082015260600160405180910390a15050505050505050565b60606001805480602002602001604051908101604052809291908181526020016000905b8282101561098f5760008481526020908190208301805460408051828502810185019091528181529283018282801561097b57602002820191906000526020600020905b815481526020019060010190808311610967575b505050505081526020019060010190610923565b50505050905090565b6109a061183d565b600855565b600081815260056020526040902054600980546060929081106109ca576109ca6123e2565b9060005260206000209060070201600301805480602002602001604051908101604052809291908181526020016000905b82821015610a6757600084815260209081902083018054604080518285028101850190915281815292830182828015610a5357602002820191906000526020600020905b815481526020019060010190808311610a3f575b5050505050815260200190600101906109fb565b505050509050919050565b60098181548110610a8257600080fd5b60009182526020909120600790910201805460029091015490915060ff1682565b60018281548110610ab357600080fd5b906000526020600020018181548110610acb57600080fd5b90600052602060002001600091509150505481565b6000858152600560205260408120549003610b325760405162461bcd60e51b815260206004820152601260248201527114d0d2115350481393d50814149154d1539560721b6044820152606401610858565b6001600160a01b0386166000908152600260205260408120549003610bab5760405163421b2d8b60e01b81526001600160a01b0387166004820152309063421b2d8b90602401600060405180830381600087803b158015610b9257600080fd5b505af1158015610ba6573d6000803e3d6000fd5b505050505b600085815260056020526040812054600980549091908110610bcf57610bcf6123e2565b600091825260208083206001600160a01b038b1684526004600790930201918201905260408220549092509003610ce957600381018054600101815560009081525b6001820154811015610c6e57600382018054610c2f9060019061240e565b81548110610c3f57610c3f6123e2565b600091825260208083209091018054600181018255908352908220015580610c6681612421565b915050610c11565b506003810154610c809060019061240e565b6001600160a01b0388166000908152600483016020526040812091909155600382015488916005840191610cb69060019061240e565b815260200190815260200160002060006101000a8154816001600160a01b0302191690836001600160a01b031602179055505b60005b8481101561076857838382818110610d0657610d066123e2565b90506020020135826003018360040160008b6001600160a01b03166001600160a01b031681526020019081526020016000205481548110610d4957610d496123e2565b90600052602060002001836006016000898986818110610d6b57610d6b6123e2565b9050602002013581526020019081526020016000205481548110610d9157610d916123e2565b906000526020600020016000828254610daa919061243a565b90915550819050610dba81612421565b915050610cec565b606060006001848681518110610dda57610dda6123e2565b602002602001015151610ded919061240e565b6001600160401b03811115610e0457610e04611feb565b604051908082528060200260200182016040528015610e4957816020015b6040805180820190915260008082526020820152815260200190600190039081610e225790505b509050600060015b858781518110610e6357610e636123e2565b602002602001015151811015610f0b57868114610ef95760408051808201909152600060208201528181528651879089908110610ea257610ea26123e2565b60200260200101518281518110610ebb57610ebb6123e2565b602002602001015181602001818152505080848481518110610edf57610edf6123e2565b6020908102919091010152610ef560018461243a565b9250505b80610f0381612421565b915050610e51565b50610f1582611897565b915060006007546001600160401b03811115610f3357610f33611feb565b604051908082528060200260200182016040528015610f6657816020015b6060815260200190600190039081610f515790505b50905060005b856001600160401b0316816001600160401b03161015611137576000805b600754811015611122576000886001600160401b03166001600160401b03811115610fb757610fb7611feb565b604051908082528060200260200182016040528015610fe0578160200160208202803683370190505b50905080858381518110610ff657610ff66123e2565b60200260200101819052506000600188866001600160401b031681518110611020576110206123e2565b6020026020010151600001518154811061103c5761103c6123e2565b906000526020600020018381548110611057576110576123e2565b9060005260206000200154111561110f576003600088866001600160401b031681518110611087576110876123e2565b602002602001015160000151815260200190815260200160002060009054906101000a90046001600160a01b03168583815181106110c7576110c76123e2565b6020026020010151846001600160401b0316815181106110e9576110e96123e2565b6001600160a01b039092166020928302919091019091015261110c83600161244d565b92505b508061111a81612421565b915050610f8a565b5050808061112f9061246d565b915050610f6c565b50925050505b9392505050565b60065461115290600161243a565b60065560018054808201825560009190915260608051909161119b917fb10e2d527612073b26eecdfd717e6a320cf44b4afac2b0732d9fcbe2b7fa0cf690910190608090611d8f565b5060005b6007548110156111ed576001600654815481106111be576111be6123e2565b6000918252602080832090910180546001810182559083529082200155806111e581612421565b91505061119f565b50506006546001600160a01b039091166000818152600260209081526040808320859055938252600390529190912080546001600160a01b0319169091179055565b61123761183d565b61124160006119cf565b565b60008181526005602052604090205460098054606092908110611268576112686123e2565b90600052602060002090600702016001018054806020026020016040519081016040528092919081815260200182805480156112c357602002820191906000526020600020905b8154815260200190600101908083116112af575b50505050509050919050565b600084815260056020526040902054156113205760405162461bcd60e51b8152602060048201526012602482015271534348454d41204e414d452045584953545360701b6044820152606401610858565b60098054600181810183556000929092526007027f6e1540171b6c0c960b71a7020d9f60077f6af931a8bbf590da0223dacf75c7af81018681557f6e1540171b6c0c960b71a7020d9f60077f6af931a8bbf590da0223dacf75c7b190910180549192849260ff19169083600681111561139b5761139b611f7d565b0217905550600381018054600181018255600091825260209091206060805190926113ca920190608090611d8f565b5060005b8481101561148857826003016000815481106113ec576113ec6123e2565b60009182526020808320909101805460018181018355918452918320909101919091558301868683818110611423576114236123e2565b83546001810185556000948552602080862092029390930135920191909155508190600685019088888481811061145c5761145c6123e2565b90506020020135815260200190815260200160002081905550808061148090612421565b9150506113ce565b506009546114989060019061240e565b600096875260056020526040909620959095555050505050565b6000828152600560205260408120546009805490919081106114d6576114d66123e2565b60009182526020808320858452600560079093020191909101905260409020546001600160a01b031690505b92915050565b60095460609060009061151d9060019061240e565b6001600160401b0381111561153457611534611feb565b60405190808252806020026020018201604052801561159057816020015b61157d6040805160808101825260008082526060602083015290918201908152602001600081525090565b8152602001906001900390816115525790505b50905060015b60095481101561172c576115cb6040805160808101825260008082526060602083015290918201908152602001600081525090565b600982815481106115de576115de6123e2565b600091825260209091206007909102015481526009805483908110611605576116056123e2565b906000526020600020906007020160010180548060200260200160405190810160405280929190818152602001828054801561166057602002820191906000526020600020905b81548152602001906001019080831161164c575b5050505050816020018190525060098281548110611680576116806123e2565b6000918252602090912060026007909202010154604082019060ff1660068111156116ad576116ad611f7d565b908160068111156116c0576116c0611f7d565b81525050600982815481106116d7576116d76123e2565b6000918252602090912060036007909202010154606082015280836116fd60018561240e565b8151811061170d5761170d6123e2565b602002602001018190525050808061172490612421565b915050611596565b50919050565b6060600061173e611a1f565b6001600160a01b03851660009081526002602052604081205491925090611766908386610dc2565b95945050505050565b61177761183d565b6001600160a01b0381166117dc5760405162461bcd60e51b815260206004820152602660248201527f4f776e61626c653a206e6577206f776e657220697320746865207a65726f206160448201526564647265737360d01b6064820152608401610858565b6117e5816119cf565b50565b60008281526005602052604081205460098054909190811061180c5761180c6123e2565b600091825260208083206001600160a01b038616845260046007909302019190910190526040902054905092915050565b6000546001600160a01b031633146112415760405162461bcd60e51b815260206004820181905260248201527f4f776e61626c653a2063616c6c6572206973206e6f7420746865206f776e65726044820152606401610858565b805160609060005b6118aa60018361240e565b8110156119c75760005b60016118c0838561240e565b6118ca919061240e565b8110156119b457846118dd82600161243a565b815181106118ed576118ed6123e2565b60200260200101516020015185828151811061190b5761190b6123e2565b60200260200101516020015111156119a2578461192982600161243a565b81518110611939576119396123e2565b6020026020010151858281518110611953576119536123e2565b602002602001015186838151811061196d5761196d6123e2565b6020026020010187846001611982919061243a565b81518110611992576119926123e2565b6020026020010182905282905250505b806119ac81612421565b9150506118b4565b50806119bf81612421565b91505061189f565b509192915050565b600080546001600160a01b038381166001600160a01b0319831681178455604051919092169283917f8be0079c531659141344cd1fd0a4f28419497f9722a3daafe3b4186f6b6457e09190a35050565b6001546060906000816001600160401b03811115611a3f57611a3f611feb565b604051908082528060200260200182016040528015611a7257816020015b6060815260200190600190039081611a5d5790505b50905060015b82811015611c55576000836001600160401b03811115611a9a57611a9a611feb565b604051908082528060200260200182016040528015611ac3578160200160208202803683370190505b50905080838381518110611ad957611ad96123e2565b602090810291909101015260015b84816001600160401b03161015611c4057600060018481548110611b0d57611b0d6123e2565b90600052602060002001805480602002602001604051908101604052809291908181526020018280548015611b6157602002820191906000526020600020905b815481526020019060010190808311611b4d575b5050505050905060006001836001600160401b031681548110611b8657611b866123e2565b90600052602060002001805480602002602001604051908101604052809291908181526020018280548015611bda57602002820191906000526020600020905b815481526020019060010190808311611bc6575b50505050509050611beb8282611c5c565b868681518110611bfd57611bfd6123e2565b6020026020010151846001600160401b031681518110611c1f57611c1f6123e2565b60200260200101818152505050508080611c389061246d565b915050611ae7565b50508080611c4d90612421565b915050611a78565b5092915050565b600080611c698484611cbd565b90506000611c7f611c7a8687611cbd565b611d3f565b90506000611c90611c7a8687611cbd565b90508082611c9f856064612493565b611ca991906124aa565b611cb39190612493565b9695505050505050565b60008151835114611ccd57600080fd5b6000805b8451811015611d375781848281518110611ced57611ced6123e2565b6020026020010151868381518110611d0757611d076123e2565b6020026020010151611d199190612493565b611d23919061243a565b915080611d2f81612421565b915050611cd1565b509392505050565b6000806002611d4f84600161243a565b611d5991906124aa565b9050825b8082101561113d575080600281611d7481876124aa565b611d7e919061243a565b611d8891906124aa565b9150611d5d565b828054828255906000526020600020908101928215611dca579160200282015b82811115611dca578251825591602001919060010190611daf565b50611dd6929150611dda565b5090565b5b80821115611dd65760008155600101611ddb565b6001600160a01b03811681146117e557600080fd5b60008083601f840112611e1657600080fd5b5081356001600160401b03811115611e2d57600080fd5b6020830191508360208260051b8501011115611e4857600080fd5b9250929050565b60008060008060008060808789031215611e6857600080fd5b8635611e7381611def565b95506020870135945060408701356001600160401b0380821115611e9657600080fd5b611ea28a838b01611e04565b90965094506060890135915080821115611ebb57600080fd5b50611ec889828a01611e04565b979a9699509497509295939492505050565b6000602080830181845280855180835260408601915060408160051b87010192508387016000805b83811015611f5657888603603f19018552825180518088529088019088880190845b81811015611f405783518352928a0192918a0191600101611f24565b5090975050509386019391860191600101611f02565b509398975050505050505050565b600060208284031215611f7657600080fd5b5035919050565b634e487b7160e01b600052602160045260246000fd5b60078110611fb157634e487b7160e01b600052602160045260246000fd5b9052565b8281526040810161113d6020830184611f93565b60008060408385031215611fdc57600080fd5b50508035926020909101359150565b634e487b7160e01b600052604160045260246000fd5b604051601f8201601f191681016001600160401b038111828210171561202957612029611feb565b604052919050565b60006001600160401b0382111561204a5761204a611feb565b5060051b60200190565b80356001600160401b038116811461206b57600080fd5b919050565b60008060006060848603121561208557600080fd5b833592506020808501356001600160401b03808211156120a457600080fd5b818701915087601f8301126120b857600080fd5b81356120cb6120c682612031565b612001565b81815260059190911b8301840190848101908a8311156120ea57600080fd5b8585015b838110156121775780358581111561210557600080fd5b8601603f81018d1361211657600080fd5b878101356121266120c682612031565b81815260059190911b820160400190898101908f8311156121475760008081fd5b6040840193505b828410156121675783358252928a0192908a019061214e565b86525050509186019186016120ee565b5080975050505050505061218d60408501612054565b90509250925092565b6000602080830181845280855180835260408601915060408160051b87010192508387016000805b83811015611f5657888603603f19018552825180518088529088019088880190845b818110156122055783516001600160a01b03168352928a0192918a01916001016121e0565b50909750505093860193918601916001016121be565b60006020828403121561222d57600080fd5b813561113d81611def565b600081518084526020808501945080840160005b838110156122685781518752958201959082019060010161224c565b509495945050505050565b60208152600061113d6020830184612238565b6000806000806060858703121561229c57600080fd5b8435935060208501356001600160401b038111156122b957600080fd5b6122c587828801611e04565b9094509250506040850135600781106122dd57600080fd5b939692955090935050565b60006020808301818452808551808352604092508286019150828160051b87010184880160005b8381101561236f57603f19898403018552815160808151855288820151818a87015261233d82870182612238565b9150508782015161235089870182611f93565b506060918201519490910193909352938601939086019060010161230f565b509098975050505050505050565b6000806040838503121561239057600080fd5b823561239b81611def565b91506123a960208401612054565b90509250929050565b600080604083850312156123c557600080fd5b8235915060208301356123d781611def565b809150509250929050565b634e487b7160e01b600052603260045260246000fd5b634e487b7160e01b600052601160045260246000fd5b81810381811115611502576115026123f8565b600060018201612433576124336123f8565b5060010190565b80820180821115611502576115026123f8565b6001600160401b03818116838216019080821115611c5557611c556123f8565b60006001600160401b03808316818103612489576124896123f8565b6001019392505050565b8082028115828204841417611502576115026123f8565b6000826124c757634e487b7160e01b600052601260045260246000fd5b50049056fea26469706673582212203aea4536911bd0970d1a65895dfacf1428eb145a68c37f1b3b7aac88bbcda57064736f6c63430008110033",
  "linkReferences": {},
  "deployedLinkReferences": {}
}